:020000040800F2
:1000000000200020915100089D4F0008A54F0008D6
:1000100000000000000000000000000000000000E0
:10002000000000000000000000000000AD4F0008CC
:100030000000000000000000B74F0008C14F00089A
:10004000115200080000000011520008115200086F
:1000500011520008E94F0008F94F0008115200083A
:10006000000000001152000811520008115200084F
:10007000115200081152000800000000115200083F
:100080000000000000000000000000000000000070
:10009000115200080000000000000000115200088A
:1000A00000000000115200080000000000000000E5
:1000B000D14F0008115200080000000000000000AD
:1000C00010B5064C2378002B07D1054B002B02D02E
:1000D000044800E000BF0123237010BDD4010020BC
:1000E00000000000B8C50008044B10B5002B03D079
:1000F0000349044800E000BF10BDC04600000000F6
:10010000D8010020B8C500080023C25C0133002AD2
:10011000FBD1581E7047000002B4714649084900DF
:10012000095C49008E4402BC7047C04603B4714666
:10013000490840004900095E49008E4403BC7047ED
:10014000002243088B4274D303098B425FD3030A16
:100150008B4244D3030B8B4228D3030C8B420DD329
:10016000FF22090212BA030C8B4202D312120902B7
:1001700065D0030B8B4219D300E0090AC30B8B42F5
:1001800001D3CB03C01A5241830B8B4201D38B03A3
:10019000C01A5241430B8B4201D34B03C01A524148
:1001A000030B8B4201D30B03C01A5241C30A8B428B
:1001B00001D3CB02C01A5241830A8B4201D38B0276
:1001C000C01A5241430A8B4201D34B02C01A52411A
:1001D000030A8B4201D30B02C01A5241CDD2C3098C
:1001E0008B4201D3CB01C01A524183098B4201D308
:1001F0008B01C01A524143098B4201D34B01C01AF3
:10020000524103098B4201D30B01C01A5241C3086A
:100210008B4201D3CB00C01A524183088B4201D3D9
:100220008B00C01A524143088B4201D34B00C01AC5
:100230005241411A00D20146524110467047FFE731
:1002400001B5002000F0F0F802BDC0460029F7D04B
:1002500076E7704703460B437FD4002243088B4266
:1002600074D303098B425FD3030A8B4244D3030B3D
:100270008B4228D3030C8B420DD3FF22090212BA02
:10028000030C8B4202D31212090265D0030B8B427E
:1002900019D300E0090AC30B8B4201D3CB03C01A68
:1002A0005241830B8B4201D38B03C01A5241430B43
:1002B0008B4201D34B03C01A5241030B8B4201D333
:1002C0000B03C01A5241C30A8B4201D3CB02C01A9E
:1002D0005241830A8B4201D38B02C01A5241430A16
:1002E0008B4201D34B02C01A5241030A8B4201D305
:1002F0000B02C01A5241CDD2C3098B4201D3CB01AC
:10030000C01A524183098B4201D38B01C01A52415A
:1003100043098B4201D34B01C01A524103098B425E
:1003200001D30B01C01A5241C3088B4201D3CB0049
:10033000C01A524183088B4201D38B00C01A52412C
:1003400043088B4201D34B00C01A5241411A00D2DC
:1003500001465241104670475DE0CA0F00D0494245
:10036000031000D34042534000229C4603098B42B5
:100370002DD3030A8B4212D3FC22890112BA030A3D
:100380008B420CD3890192118B4208D389019211BF
:100390008B4204D389013AD0921100E08909C30944
:1003A0008B4201D3CB01C01A524183098B4201D346
:1003B0008B01C01A524143098B4201D34B01C01A31
:1003C000524103098B4201D30B01C01A5241C308A9
:1003D0008B4201D3CB00C01A524183088B4201D318
:1003E0008B00C01A5241D9D243088B4201D34B0033
:1003F000C01A5241411A00D20146634652415B1075
:10040000104601D34042002B00D549427047634655
:100410005B1000D3404201B5002000F005F802BD9A
:100420000029F8D016E770477047C0468446100090
:1004300062468C461900634600E0C0461FB501F0D5
:10044000CFF8002801D40021C8421FBD10B501F02B
:100450000FF84042013010BD10B501F0C1F800287E
:1004600001DB002010BD012010BDC04610B501F019
:10047000B7F8002801DD002010BD012010BDC046E6
:1004800010B501F039F8002801DC002010BD012072
:1004900010BDC04610B501F02FF8002801DA002089
:1004A00010BD012010BDC046002B11D1002A0FD174
:1004B000002900D1002802D00021C943080007B458
:1004C000024802A14018029003BDC0465DFFFFFF35
:1004D00003B4684601B5029800F034F8019B9E46CB
:1004E00002B00CBC7047C046F0B5CE469946030C2E
:1004F0009C46130447461B0C1D000E006146040475
:10050000240C80B50700100C4B4365434143604306
:100510002C0CC01824188C46A34203D980235B02FC
:100520009846C444494679435643230C2D042D0C68
:100530008919634424046019C918C0BCB946B0467F
:10054000F0BDC046F0B557464E464546DE46E0B5DE
:1005500004000D009246994683B08B4230D82DD0CE
:100560004946504602F0ACF829000600200002F08F
:10057000A7F8331A9846203B34D49B4653465A4634
:10058000934042461F00534693401E00AF423BD863
:10059000AF4200D179E05B46A41BBD41002B00DADD
:1005A00076E0002200230092019301235A469340F3
:1005B0000193012342469340009329E08242CFD920
:1005C00000220023009201930C9B002B01D01C60A1
:1005D0005D600098019903B0F0BCBB46B246A946E5
:1005E000A046F0BD42469B4620239B1A5246DA4065
:1005F000414613004A468A40170042461F4353466D
:1006000093401E00AF42C3D9002200230092019301
:100610004346002BD8D0FB0772081A4346467B0896
:100620000EE0AB4201D1A2420CD8A41A9D41012098
:1006300024196D410021013E24184D41002E06D0A1
:10064000AB42EED9013E24196D41002EF8D100983D
:1006500001995B4600196941002B24DB2B005A46A7
:100660004446D3402A00E2401C005B461500002BA4
:100670002ADB26009E40330026004746BE4032005B
:10068000801A9941009001919EE7A342BCD882E76D
:100690004246202300219B1A002200910192012250
:1006A000DA40019285E7424620239B1A2A004646FB
:1006B0009A402300F340444613432A00E2401C00C2
:1006C0005B461500002BD4DA42462F00202326007B
:1006D00097409B1ADE403B003343CDE770B50028BE
:1006E00013D0C317C5185D40C40F280001F0CAFF1E
:1006F0009E2301001B1A962B0FDC082834D00839E2
:100700008D406D026D0AD8B202E000240020002561
:10071000C0052843E407204370BD992B16DC421F17
:10072000052800D095402A00114802406E0709D0E4
:100730000F263540042D05D00432550102D59F23E4
:1007400002405B1A9201550AD8B2E1E70522121A5B
:100750002800D040020008001B3085402800451EBC
:10076000A84102431500DEE76D0296206D0ACFE72F
:10077000FFFFFFFBF0B557464E464546DE46E0B567
:1007800083B0009001910C034F00CE0F610A009CD2
:100790001D03640F0C43009900920193C800590097
:1007A0004B0D9946009A019B6D0AD90F530F2B43AD
:1007B0009A46009B7F0DDA0094464A46B046BA1A24
:1007C0008E4200D1B0E0002A00DC78E049460029E2
:1007D00000D1E9E0C9498F4200D195E10125382ACD
:1007E00016DC8021534609040B439A461F2A00DD7C
:1007F000E7E1202155468B1A61469D40D1400D43CB
:10080000614699404B1E99415346D3400D43E41A2B
:10081000451BA84280414042241A230200D40FE124
:100820006402640A002C00D139E1200001F02AFFA3
:100830000300083B20212800CA1AD0409C40020037
:100840009D4022439F4200DD73E1D81B0130091A0D
:100850002C008D40C4406B1E9D411300C2408B4054
:100860002543002714001D436B0709D00F232B409D
:10087000042B05D02B1DAB42AD416D4264191D0008
:10088000230200D42DE19D4A0137974200D1D3E0E5
:1008900046469B49ED0821404A072A437C054D0204
:1008A0002D0B640D24052C43F60734431000210062
:1008B00003B0F0BCBB46B246A946A046F0BD002A34
:1008C00000D184E04A46D21B002F00D06DE1250004
:1008D000054300D127E1561E012A00D13BE2874D96
:1008E000AA4200D16AE20125382E12DC32001F2A0A
:1008F00000DDF8E120262500B61A07005346B04077
:10090000D440B540D740461EB0411B1B9A463D43DC
:1009100005436246551BAC459241534652420E0078
:100920004F4688469C1A78E7002A00DC8EE049464C
:10093000002975D161465346194300D1F6E0511E96
:10094000012A00D191E16D4DAA4200D1DCE00125E0
:10095000382914DC0A001F2A00DDA2E120215346B9
:10096000891A8B401D006346D3401D4363468B406C
:1009700019004B1E99415346D3400D43E4182D18DE
:100980008542804140422418230259D55B4B0137F0
:100990009F4251D001215A4B6A081C4029400A430A
:1009A000E507154364085FE761465346194300D1E4
:1009B000BCE0511E012A00D164E1504DAA4200D191
:1009C0006AE10125382900DD22E70A000EE74D4AD9
:1009D0007D1C154200D0D0E02500624653460543F9
:1009E0001A43002F00D037E1002D00D1A8E1002AE2
:1009F00000D16AE16346C51A5346E21AA8429B41F8
:100A00005B42D31A1A0200D403E263461D1AAC45B6
:100A10009241534652421C1B0E008846A41A23E7FB
:100A200036498F4270D00125382AA8DC80215346F0
:100A300009040B439A468EE73C000025002231E76B
:100A400007232B40002B00D010E793E0002A74D03E
:100A50004A46D21B002F00D1C7E02849894500D162
:100A600085E10125382A12DC802109040C431F2A64
:100A700000DDABE120212500891A070088408D4068
:100A8000D740411E8841D4403D430543A2446544BC
:100A9000654592415242524414004F4674E7280083
:100AA00001F0F0FD030018331F2B00DCC2E62A0022
:100AB000083882409F4200DDA9E0DB1B581C1F283C
:100AC00000DCACE115001F3BDD40202805D04023B1
:100AD0001B1A9A40531E9A411543072300272B40A7
:100AE000B0E7ED08054B62072A43E4089F420FD0A8
:100AF0002403250B7C05640DD4E6C046FF070000E7
:100B0000FFFF7FFFFE070000C00862070243E40802
:100B10001300234300D186E180252D0325432D03B7
:100B2000C34C2D0BBEE6604654460E001700C508A8
:100B3000D8E7C04CFF1A144096E6BF4A791C114210
:100B40006BD122000243002F00D0DBE0002A00D14D
:100B50002DE1624653461A4300D1B6E06346C518FC
:100B600085428041544440422418230202D50F009C
:100B7000B04B1C403A002800D8E76246851AA842CC
:100B80009241534652429146E31A1A004B46D21AFA
:100B9000130091461A0254D44A464C462A4300D0C8
:100BA00040E60026002400257CE6A14DA94500D1A1
:100BB00090E00125382A00DDABE680252D042C438A
:100BC00095E6110055462039CD40A946202A06D089
:100BD000402153468A1A934062461A43944665461A
:100BE0006B1E9D414B461D4312E62100014300D17F
:100BF000C4E0511E012A00D1FBE08D4DAA4200D174
:100C0000B5E00125382900DD41E70A002FE7894CCE
:100C1000FF1A14406207E4086AE7854A914200D14E
:100C2000E3E06346C21882428041230040425344BD
:100C30001B18DD075C080723520815430F002B40E3
:100C400000E763461D1AAC459241534652421C1BB5
:100C50000E008846A41AE5E5002D00D091E0002A98
:100C600038D180240026240356E76346C518854200
:100C700080415444404224180127230200D4DFE677
:100C8000022787E66346C51AA84280415346404280
:100C9000E41A0127241AC0E56207C0080243E408E9
:100CA00036E7110053462039CB409946202A06D01A
:100CB000402153468A1A934062461A439446654639
:100CC0006B1E9D414B461D4359E66207C008024317
:100CD000E4080DE753465A076346D80853460E000A
:100CE0000243DC0814E715002600203DEE40202AD0
:100CF00003D04025AA1A94402043421E904105008B
:100D0000354306E6002A7CD062465346C0081A43A3
:100D100000D1FAE6620710438022E408120314426D
:100D200008D0D908114205D16346D80853460C00B3
:100D30005B071843420FC000C00852070243E7E6B2
:100D4000002A00D12DE76346D80853465A070E0003
:100D50000243DC08CCE663461D1AAC45924153467B
:100D600052421C1B0E008846A41A013755E5634603
:100D7000D90853465A070A43DC08C9E66046544678
:100D8000D4E6C008002A00D1BFE6620710438022E3
:100D9000E40812031442CDD0DD081542CAD16346DF
:100DA000D80853465B070E002C001843C2E7634681
:100DB000D90853465A070A43DC0899E66346D8081F
:100DC00053465A070E000243DC08A1E61100270033
:100DD0002039CF40202A03D040218A1A9440204352
:100DE000421E904105003D4351E60C0000250022C3
:100DF00058E5604460459241544452420500A418AD
:100E00003AE753465A076346D90853460A43DC0873
:100E10007EE61A001C002A4300D0ABE6C1E6202182
:100E20000025091A19E500220025014C3AE5C046C3
:100E3000FF070000FFFF7FFFFE070000F0B5DE4662
:100E4000454657464E46E0B587B0009201930B03E6
:100E50001B0B9B46CA0F4B00040080465B0D0292A1
:100E600000D16AE1D44A934200D18CE15946420F45
:100E7000C9000A43802109041143C2009046CF4AA9
:100E8000894692469A44002300240393009E019FC2
:100E90003B031B0B9B467B0030005B0DFD0F002BC3
:100EA00000D128E1C44A934200D177E15946720F3C
:100EB000C9000A438021090411438B46BF49F2004F
:100EC0008C4651466344CB1A9A460023029E6E40DC
:100ED0000F2C27D8BA49A40009598F46CB46424661
:100EE000029E039B022B16D0032B00D1A6E2012BFE
:100EF00000D0DFE000220023002490461B0523439E
:100F0000F60733434046190007B0F0BCBB46B24673
:100F1000A946A046F0BD002200249046A64BEDE76E
:100F20002E00DFE7CB4500D2D4E100D1CFE1012391
:100F30005B429C46444648460027E2445B46150E09
:100F40001B021D43190C2B04120200951D0C914627
:100F500002910395FFF77AF902006A430B04210C12
:100F6000804619438A4209D9009D0123AC465B4261
:100F700061449C46E0448D4200D8FBE1881A029906
:100F8000FFF764F9039A240442430904240C030084
:100F90000C43A24206D90099013B8C466444A1420D
:100FA00000D8E1E1A01A424612041A4393464B4688
:100FB00059461B0C1D0004930B0449460904090CF7
:100FC0000C001B0C5C43120C6B43884651436A4374
:100FD000250CAC465B186344994203D98021490231
:100FE0008C466244190C24041B04240C8A181C1916
:100FF000904202D316D1A74214D25B46009D013B1A
:101000004F4405934F459B41AC465B426344C01837
:10101000854200D3A1E1824200D9F6E100D1F1E19D
:10102000059B9B463C1BA742BF41009D801A7F4207
:10103000C01B854200D1D0E10299FFF707F9039A5E
:101040000B044243210C070019438A4200D978E17E
:10105000881A0299FFF7FAF8039A24044243090414
:10106000240C03000C43A24200D95DE14146A41ABE
:101070003A041A43049D13041B0C594347466B431F
:101080009C46100C47430B0CBC44634468439F428E
:1010900003D980256D02AC4660441F0C09041B0473
:1010A000090C3F185B18BC4200D202E100D1FDE000
:1010B00001231A43434B5344002B00DCAEE051079D
:1010C00000D098E15946C90106D559463E4B194012
:1010D00080238B46DB0053443C498B4200DD1AE7FA
:1010E0005946D208490711435A465B0554028846BF
:1010F000240B5B0D02E75A46009B1A4300D17EE0A9
:101100005B46002B00D100E1584601F0BBFA02001B
:1011100003000B3A1D27009EBA1A19005846D64004
:1011200008398840320002439346009A8A40284991
:1011300053448A469A440023C8E65B4603439946D3
:1011400056D05B46002B00D1CDE0584601F09AFA0C
:101150000B235B429C460200844466461D239B1B76
:10116000260011005846DE4008398840330003430A
:10117000994623008B409846164B00249B1A9A46AA
:101180000023039382E65A46024391462AD1002265
:101190009A46022390460824039377E65A46009B1A
:1011A0001A430D4B9C46E244002A17D102231C43EC
:1011B00000239B46023389E6FF07000001FCFFFF86
:1011C00030C70008FF030000FFFFFFFEFE0700001E
:1011D000F30300000DFCFFFF01F8FFFF03233200C3
:1011E0001C4373E69A460323D9460C2403934DE629
:1011F000002398469A4601330424039346E60123CC
:101200001C4300239B46013360E60023802498465C
:101210000026924B240371E6012252420121C91A91
:10122000382900DD66E61F2900DCABE01F204042C4
:10123000C31A5846D8400300202904D0584688498C
:10124000514488400243511E8A411A430723190022
:101250000024114013420CD00F231340042B00D163
:10126000F9E0111D91429B410A005B4259075B0264
:101270001C0BD2080A43904600233FE680244B46CD
:101280002403234209D05B46234206D11C43240396
:101290002E009046714B240B30E680244B462403ED
:1012A0001C432403029E6D4B240B27E6002B00D128
:1012B00000E70098511E84466444844200D284E0D2
:1012C000BC4200D2AEE000D1C1E00A00F0E64245E7
:1012D00000D92CE64B46DC07580843465B081C4304
:1012E0004346DF072AE601F0CDF915239C468444E6
:1012F0000200634620321C2B00DC2EE72300083856
:10130000834099460023984636E701F0BBF9020076
:101310000300153220331C2A00DCFBE60099083854
:10132000814000228B4602E70099013B8C466444D1
:10133000A14200D99AE6A24200D897E6831E6444EF
:1013400094E6AC466144013F8D4200D980E68A4272
:1013500000D87DE6871E61447AE6854200D05FE6CC
:10136000B94500D95CE656E6A24200D81AE6831ECB
:10137000644417E68A4200D800E6AC46831E9846CD
:101380006144FBE537481400504482405B46170037
:101390008340CC407A1E974123433B431A005B466F
:1013A000CB40510709D00F211140042905D0111D50
:1013B0009142924152429B180A00190200D455E70B
:1013C000002201230024904698E50A00BC4200D088
:1013D0006EE64B4500D06BE66CE6234B234A534444
:1013E000924500DA18E7012149420A1D8A428941E3
:1013F00049428B4466E60F211140042900D161E681
:101400001100F2E7BC4200D80AE602235B429C4688
:1014100000994F444F459B41E3448C465B426344F3
:10142000C018FFE54946009D480048458941AC4643
:10143000494261448146023A6418C7E780245B460A
:1014400024031C4324039046044B240B56E5994582
:10145000E8D30A00BDE7002308E7C046FF07000005
:101460003E0400001E040000FF03000002FCFFFF1A
:10147000F0B55746DE464E464546E0B50D00040041
:10148000E80F83460903D80F090B824619488C469A
:101490001F0369005E00490D3F0B760D814218D095
:1014A00086420FD00120B1420DD1BC450BD19442F0
:1014B00009D1D3451CD0002905D160462043431EE5
:1014C000984100E00120F0BCBB46B246A946A046C8
:1014D000F0BD01208E42F6D1614639430F0017431B
:1014E0002743F0D15B465246981A431E9841EAE7DB
:1014F0000020E8E7FF070000F0B557464E46454696
:10150000DE46E0B50D000F03390B83B004008046C2
:1015100001915800E90F314F400D8C466E001903C0
:1015200082469146760D090BD80FBE421FD0BA45B0
:101530000FD0002E2FD15546019E3443002D27D1C8
:101540000A433AD0002C45D100281AD1012040424C
:1015500017E011433BD1002E02D1019F2743F3D066
:10156000844509D16346002BF0D0604609E0019F15
:1015700027432CD1B24524D063460220013B1840BA
:10158000013803B0F0BCBB46B246A946A046F0BD48
:10159000002CD9D0E4E75446002CEDD08445EBD1A3
:1015A0005645E9DCDEDB019B8B42E5D8DAD1C84544
:1015B000E2D80020C845E4D2D4E70020002CE0D0D7
:1015C000DAE7114303D18445D6D10020D9E70220C0
:1015D0004042D6E78445E6D0CEE7C046FF0700008C
:1015E000F0B557464E464546DE46E0B50D000F03C2
:1015F00004008046E80F390B844683B05800304F12
:10160000400D01911E03690082469146490D360B3B
:10161000D80FB94220D0BA450FD000292BD101995B
:101620000C435146002937D1324338D0002C44D1E5
:10163000002819D10120404216E0164313D1002999
:1016400002D1019F2743F3D0844520D06346022076
:10165000013B1840013807E0019F274303D18A4529
:10166000F4D116431FD0022003B0F0BCBB46B246F3
:10167000A946A046F0BD5446002CE7D08445E5D1EC
:101680005145E3DC03DB019BB342DFD80FD0634657
:10169000002BCFD06046E7E7002CC9D0D4E700206C
:1016A000002CE1D0D2E78445D0D10020DCE7C8454A
:1016B000CCD80020C845D7D2E9E78445E3D0C5E7B8
:1016C000FF070000F0B55746DE464E464546E0B5FA
:1016D0001F000B031B0B16009A46CA0F4B00040099
:1016E000934687B05B0D00D1D5E0BB4A934200D151
:1016F000F8E05146420FC9000A4380210904114312
:10170000C2009146B54A8A469D1800239846029326
:101710003C037B00FA0F3000240B5B0D009200D1DC
:1017200096E0AD4A934231D0720FE4002243802408
:1017300024041443A94AF000944663445B195A1CDC
:101740000192424600260A2A42DC5A4600994A4043
:1017500093464246022A32DC013A012A00D949E185
:10176000022E00D1CAE0012E3DD100230024002228
:1017700010005A461B052343D2071343190007B034
:10178000F0BCBB46B246A946A046F0BD924B2643EC
:10179000EB18002E00D1BBE00322414611435A460C
:1017A000884600994A40802109018C4629006144FD
:1017B000019141460A2900DD33E293460326424661
:1017C00001279740A6213A00C9000A400F4231D0B4
:1017D000029E022E00D135E2032E00D1D2E1544602
:1017E0004846012EC1D0019A7D4B94466344002B9C
:1017F00000DCC0E0420709D00F220240042A05D0D5
:10180000021D82428041404224181000E20106D5A8
:10181000744B019A1C4080239446DB006344724A57
:1018200093426BDC6207C00864025B050243240B31
:101830005B0D9DE7902189000F4263D188223A42D7
:1018400000D1D7E0009BA2469B4681460296BFE7A7
:101850002300334300D17FE0002C00D1ADE1200014
:1018600000F010FF020003000B3A1D201900821A3D
:1018700030000839D0408C400443300088405B4A37
:10188000EB1A944663445A1C0192424600260A2AE7
:1018900000DC5AE79CE753460343994654D053462D
:1018A000002B00D177E1504600F0ECFE0B235B42A9
:1018B0009C460200844411005046083988401D238C
:1018C000804660461B1A2000D84003004046034370
:1018D0009A4623008B4099460023444D9846AD1A02
:1018E000029315E752460243914626D100221D007D
:1018F0000223924608329046029309E70024002210
:10190000354B35E7002380249B462403324B2FE7D9
:101910000222414611438022120194462A00624469
:10192000884601920A2900DD52E75A4600200099B4
:1019300004004A40934602260BE70C221D000323B5
:10194000814690460293E3E600239A460433984684
:10195000033B00250293DBE6424601331A432B008A
:1019600090465A1C019242460024002001260A2A71
:1019700000DCEAE62CE70122D21A382A00DDF4E680
:101980001F2A00DC2AE11F214942CB1A2100D9403D
:101990000B00202A05D0164A019D94466544AC40B0
:1019A0002043421E904118430723190000240140A0
:1019B00003420CD00F230340042B00D140E1031D50
:1019C0008342A4411800644261076402240BC208E8
:1019D00000230A43CCE6C046FF07000001FCFFFFDE
:1019E000FF030000FFFFFFFEFE0700000DFCFFFFEE
:1019F0003E04000049464A460904090C0D00160C35
:101A0000020C0004000C4543AC4605007543A84693
:101A100015000F007543009202952A00009D6F4348
:101A200065462D0CA94647444F44B84505D91500D5
:101A3000802252029046454402953D0C039565462E
:101A40002D043F042D0CAC463D0065440495250C47
:101A50002404240CAC4625007543A84665460F00B7
:101A60006943414489466743390C49446E4388457C
:101A700003D980225202904646440D0CA8463500F8
:101A800045440595039D3F04A8463F0C0904C91928
:101A900088444546039555462E04360C2F0C3500D8
:101AA0004543784381463800A8462D0CAA46009A43
:101AB000504372434A445244914503D980256D02F4
:101AC000A9464844150CA94645462D042D0CA846A8
:101AD00065467D43120448449044A9463200654659
:101AE00062436E437C43170C3619BF19BC4203D9BD
:101AF00080246402A446E144029C039EA446059D02
:101B000066448E428941AC4612043C04120CA21871
:101B10006244494254184644A4464645A44182467C
:101B20006442A046AA4292418C458941E244D04495
:101B3000494252420A43A045A44182458941644238
:101B400049420C4341463F0CD2191219CC0D04995D
:101B500070020843411E884141464A44F60D520234
:101B60003043490214430843D20135D501224308CA
:101B700002401343E0071843640834E6009BA24682
:101B80009B4681468024534624031C4324034A4633
:101B90002E4B240BECE500F075FD15239C46844488
:101BA0000200634620321C2B00DC84E600239946A9
:101BB0002300083883409A468EE600F063FD020059
:101BC0000300153220331C2A00DC4EE602003400EC
:101BD000083A0020944052E6019304E61C4B210091
:101BE0009C460300019DD3406544A940194303006E
:101BF000AB40581E834119430800D4404B0709D01D
:101C00000F230B40042B05D00B1D8B42804140421B
:101C100024181800230200D4D6E601230024002251
:101C2000A6E50F29AAD1802352461B031A42A9D048
:101C30001C42A7D11C43009B02009B46034B97E527
:101C40000024C1E60024014B220091E5FF070000BB
:101C50001E040000F0B54E464546DE465746E0B548
:101C600085B0009001910C034F00CE0F610A009CDB
:101C7000B046640F0C4300997F0DC80011001A0094
:101C80001B039C460091019251004B0D9946019B0C
:101C9000009DD90F63466A0F5B0A1343EA0094461E
:101CA0009346C14A03900293914500D1CDE00125AE
:101CB00069404D467D1BAA468E4200D180E0002D32
:101CC00000DC35E34946002900D1DFE0974200D12E
:101CD00094E152460125382A19DC8022029B120425
:101CE0001343029352461F2A00DDE3E153462022AC
:101CF0006146029DD21A9540D9400D4361469140FC
:101D00000A00511E8A411543029ADA40A41A451B63
:101D1000A84280414042241A230200D43DE16402DB
:101D2000640A002C00D147E1200000F0ABFC030066
:101D3000083B20212800CA1AD0409C4002009D4048
:101D400022439F4200DD77E1D81B0130091A2C00A5
:101D50008D40C4406B1E9D411300C2408B40254303
:101D6000002714001D436B0709D00F232B40042BC1
:101D700005D02B1DAB42AD416D4264191D002302FD
:101D800000D440E1884A0137974200D101E10126A1
:101D900043468649ED0821404A072A437C054D0207
:101DA0002D0B640D1E4024052C43F6073443100010
:101DB000210005B0F0BCBB46B246A946A046F0BD26
:101DC000002D00DCD0E24946002900D0D4E0614675
:101DD000029B194300D12BE1691E012D00D1D9E1ED
:101DE000954200D10AE10125382917DC8A4653467D
:101DF0001F2B00DDE7E12022D21A029B61469340AF
:101E00001D005346D940634693401A000D43511EAE
:101E10008A4153461543029ADA40A4182D18854288
:101E2000804140422418230200D4B6E05E4B0137C3
:101E30009F4200D1ADE001215C4B6A081C40294063
:101E40000A43E507154364088DE7594A029B924609
:101E50006246BA441A432CD08E422ED05246002AF3
:101E600060D0002F00D1DBE063460E00029CD80852
:101E700062070243E4081300234300D154E28025A3
:101E80002D0325432D03484C2D0B8CE76146029B07
:101E9000194300D1CCE029000139012D00D188E19E
:101EA000954200D1AAE00125382900DD2FE78A46B6
:101EB00018E7012251408E42D0D15346002B00D169
:101EC000BEE0002F00D038E1CA462200024300D114
:101ED000E2E15346591E012B00D10DE2324A9245F0
:101EE00000D1D2E10127382913DC1F2900DDEEE102
:101EF0002022029B521A250007009A46CC409040AF
:101F00009540CF40A244421E904153462F43074381
:101F100002933D00654465459241029B52424F4603
:101F2000D41880E7234A7D1C154200D0AAE06246FF
:101F30002500029B05431A43002F00D0F5E0002D39
:101F400000D16BE1002A00D152E16346C51A029B21
:101F5000E21AA8429B415B42D31A1A0200D4D5E18F
:101F600063461D1AAC4592410126029B52421C1B3E
:101F70008846A41A0E40F6E697423FD05246012505
:101F8000382A00DD4AE78022029B120413430293A1
:101F90002DE73C000025002205E707232B40002BFE
:101FA00000D0E2E66BE0C046FF070000FFFF7FFFC6
:101FB00001F8FFFFFE070000280000F063FB0300AC
:101FC00018331F2B00DCB4E62A00083882409F42F9
:101FD00000DDB9E0DB1B581C1F2800DCA0E1150068
:101FE0001F3BDD40202805D040231B1A9A40531E7A
:101FF0009A411543072300272B40D0E7C00862070A
:102000000243E40837E7EA0863071A43D34BE408BE
:102010009F4200D12FE72403250B7C05640DC2E607
:10202000CA462200024358D163460E00029C039325
:10203000039B5746DA08E7E7C94CFF1A144092E6BB
:10204000C84D7A1C2A4200D084E022000243002FAF
:1020500000D0EFE0002A00D1E5E0624602990A4391
:1020600000D1C5E06346C5188C4685428041644472
:1020700040422418230202D5B94B01371C40BA460E
:102080000395D5E76246851AA8429241524291468D
:10209000029BE31A1A004B46D21A130091461A0209
:1020A0006CD44A464C462A4300D03AE60026002427
:1020B000002578E6029953460D00203AD540202BA2
:1020C00006D04022D21A0B00934062461A43934630
:1020D0005B465A1E93411D4319E653465A1E012B77
:1020E00000D1C6E09D4EB24500D1BDE688460E0047
:1020F0000125382A10DC1F2A7FDC20212500891ABF
:10210000070088408D40D740D440411E8841029B43
:102110003D431B1B054302936246551BAC45924150
:10212000029B52424F469C1AF6E5002D00D0B7E0C4
:10213000002A00D1F0E001260E4063460298D9083B
:1021400042070A43C40896E6854CFF1A144062070A
:10215000E40860E781498A4200D1C9E06346C118BA
:1021600081428041029B4042E3181B18DD075C0856
:10217000072349080D4317002B4010E763461D1A3B
:10218000AC4592410126029B52421C1B8846A41A70
:102190000E40C6E56346C518029B854280419C46B9
:1021A0004042644424180127230200D4F5E60227A4
:1021B00041E66346C51AA8428041029B4042E41AA8
:1021C0000127241AA8E5029D52462B00203AD3404D
:1021D00019005346202B06D04022D21A2B009340E0
:1021E00062461A4393465D466B1E9D410D4315E6BC
:1021F0006207C0080243E4080DE7110027002039F8
:10220000CF40202A05D040218A1A9440250005435A
:102210000395039D6A1E95413D437DE7002A00D149
:1022200044E701260E406346D908029B5A070A4339
:10223000DC08F0E6002A28D06246029FC0083A4334
:1022400000D1DCE6620710438022E4081203144246
:1022500009D0FD08154206D1634601262C00D80896
:102260007B0718430E40420FC000C00852070243CC
:1022700001E663461D1AAC459241029B52421C1B6B
:102280000E0088460127A41A46E56346D908029B3A
:102290005A070A43DC08EEE56346029C0393C7E64F
:1022A000C008002A00D1AAE6620710438022E40891
:1022B00012031442D7D0029FFD081542D3D16346C2
:1022C0000126D8087B072C0018430E40CBE70A00F4
:1022D0002700203AD740202905D04022521A9440A6
:1022E000250005430395039D6A1E95412F4310E683
:1022F00014000025002256E5029B60449946604583
:1023000092414C4452420500A4184CE71A001C00AC
:102310002A4300D0B3E6C9E6802400262403AEE5B4
:1023200020210025091A17E5002200250B4C3AE56B
:10233000002D00D1F6E54B46DA1B9246002F00D166
:102340006FE6382A05DC80263604344388460E00C2
:10235000D1E688460E000125DEE6C046FF070000F4
:10236000FFFF7FFFFE070000002D00D168E64B460F
:10237000D91B002F01D18A46A7E50127382900DDA6
:10238000C7E5802212041443AFE5C046F0B5C64647
:102390001E03360BB0460D4E0C034D005F0000B51A
:1023A000240B6D0D7F0DB5420BD0084900208F42E4
:1023B00004D1464616433000431E984180BCB846BF
:1023C000F0BD04430120002CF8D1EEE7FF07000028
:1023D0000B00020070B5164D0C0382B049000020BE
:1023E00000920193240B490DDE0FA94204DD114830
:1023F000814203DD104BF01802B070BD8020400315
:1024000020430E4C641A1F2C08DD0D4B5B1AD8407C
:1024100003005842002EEFD11800EDE7094B009A57
:102420009C46030061448B40E2401343F1E7C04601
:10243000FE0300001D040000FFFFFF7F33040000C7
:1024400013040000EDFBFFFF70B5002816D0C31782
:10245000C5185D40C40F280000F014F9104B1B1A7A
:102460005B055B0D0A2814DC02002E001532964035
:102470000B22121AD5402D032D0B03E0002400235C
:10248000002500261B052B43E407234330001900D9
:1024900070BD0B3885402D0300262D0BF2E7C0469A
:1024A0001E04000010B5041E10D000F0EBF80E4B17
:1024B0001B1A5B055B0D0A280FDC0B222100121A88
:1024C000D14015300A038440120B01E000230022A2
:1024D0001B0513432000190010BD22000B38824059
:1024E00012030024120BF3E71E04000070B5420231
:1024F0004300C40FFE201B0E591C550A08420CD085
:10250000E02189008C466D07120B63441B051343C1
:10251000E40723432800190070BD002B14D1002DBF
:102520001BD0280000F0AEF80A281CDC0B232A0080
:102530001B1ADA40030015339D400E4B12031B1A81
:102540005B05120B5B0DE1E7002D09D0130B802218
:1025500012031A436D07084BD8E700230022D5E782
:102560000022054BD2E703002A000B3B9A400025CE
:10257000E3E7C04689030000FF070000F0B54B0009
:102580000F035B0D3B4C450F83B07F0A5E1C2F434E
:1025900000900191CA0FC50026420BD036495C1845
:1025A000FE2C13DDFF200023C0051843D207104383
:1025B00003B0F0BD002B02D100200023F4E73D431F
:1025C000F0D08023DB03FF203B43EDE7002C14DD3C
:1025D000009BFF009B01581E8341690F3B430B4347
:1025E000590741D00F211940042928D0043359013B
:1025F00025D501340023E0B2D6E721001731DBDB1B
:1026000080211E2009043943001B1F281BDD0226E0
:102610007642341B0E00E6403400202804D01748D0
:102620008446634499400D432B00591E8B4123433C
:10263000590715D00F2100241940042917D19B01F7
:102640005B0AE0B2B0E70E4C1C192B00A540C3405A
:10265000A140681E854129430B4300245907C1D17D
:102660009B0100205B0A9FE7DB08E0B29CE7043394
:10267000E5E7C046FE07000080FCFFFFA2FCFFFF6D
:1026800082FCFFFF1C2101231B04984201D3000C94
:1026900010391B0A984201D3000A08391B099842D5
:1026A00001D30009043902A2105C40187047C046EB
:1026B000040302020101010100000000000000000B
:1026C00010B5002903D1FFF7DDFF203002E008003C
:1026D000FFF7D8FF10BDC04680B500AFBFF34F8FE6
:1026E000C046044B044ADA60BFF34F8FC046C04671
:1026F000FDE7C04600ED00E00400FA0580B582B0B9
:1027000000AF7860074B1B6800225A62C046054B39
:102710001B685B6A7A689A42F9D8C046C046BD46D3
:1027200002B080BDA002002080B584B000AF786008
:102730000023FB6007E0FA239B001800FFF7DEFF91
:10274000FB680133FB60FB687A689A42F3D8C046A5
:10275000C046BD4604B080BD80B586B000AFF8600D
:10276000B960FB1D1A7017217B1800221A707B18A4
:1027700000221A700FE017203B181B78FA68D21855
:102780003B181B78B968CB1812781A703B181A7866
:102790003B1801321A701723FA18FB1D12781B78A8
:1027A0009A42E8D3C046C046BD4606B080BD80B55B
:1027B00082B000AF78603B1D1B681800BD4602B0B8
:1027C00080BD80B584B000AF78600A00FB1C1A7031
:1027D0000E23FB1800221A700F23FB1800221A7018
:1027E00010E00F203B181B787A68D31819780E2256
:1027F000BB18BA1812788A181A703B181A783B1846
:1028000001321A700F23FA18FB1C12781B789A42B7
:10281000E7D30E217B187A181278D2431A707B18EE
:102820001B781800BD4604B080BD80B584B000AFF1
:1028300078600A00FB1C1A700E23FB1800221A7025
:102840003EE00F23FB1880221A7031E00E217B1826
:102850001B785BB2002B0DDA7A187B181B78DB181B
:1028600013707B181B785BB2072253405AB27B1857
:102870001A7005E00E23FA18FB181B78DB1813708A
:102880007B681B780F22BA1812781340DBB2002B3A
:1028900008D00E217B181B785BB2072253405AB236
:1028A0007B181A700F22BB18BA18127852081A70C7
:1028B0000F23FB181B78002BC8D17B6801337B608A
:1028C000FB1C1B78FA1C591E1170002BB9D10E236A
:1028D000FB181B781800BD4604B080BDB0B594B09D
:1028E00004AF39601100FB1D021C1A70BB1D0A1CCD
:1028F0001A70142579193C4A0B0011CA11C31088AB
:10290000188092789A700B23CB181522002118009A
:1029100007F088FE37217B1800221A707A18BB1D39
:102920001B78DB18137010217B1810221A707B188B
:10293000FA1D12785A703B681A787B189A703B68B7
:102940001A787B191A707B1803211800FFF76DFFA6
:1029500003001A007B195A700223FB630123BB6337
:1029600025E03A68BB6BD318197814243A19FB6B2D
:10297000D3180A1C1A70FB6B0133FB633A68BB6BFC
:10298000D3181A780C217B181A707B1801211800B3
:10299000FFF74BFF030019003A19FB6BD3180A1C11
:1029A0001A70FB6B0133FB63BB6B0133BB63BB1D55
:1029B0001B78BA6B9A42D4D3FB1D1B7899B237238C
:1029C000FB181B789BB20948FA22920002920193ED
:1029D0001423FB18009301230A00102103F044FB89
:1029E000C046BD4610B0B0BDD0C500084C020020A6
:1029F000F0B59DB004AF39601100FB1D021C1A70C8
:102A0000BB1D0A1C1A700023FB653023FB18534AB8
:102A100013CA13C313CA13C303CA03C35326BB1970
:102A200000221A7008257B194C4A13CA13C313CA13
:102A300013C303CA03C330003A18BB1D1B78DB184D
:102A4000137052243B1900221A70FB1D1B7899B297
:102A50003B181B789BB24248FA22920002920193E3
:102A60007B19009301230A00102103F02BFC28217D
:102A70007B1810221A707B18FA1D12785A707B1876
:102A800011229A707B191A787B18DA7026003C198B
:102A90007B1804211800FFF7C8FE030023707B1980
:102AA0005B78BA1912789A4202D0FB6D0133FB654C
:102AB0000823FB181A783023FB181A700223BB6511
:102AC00001237B652EE008257A19BB6DD318197890
:102AD0003023FA187B6DD3180A1C1A707A19BB6D53
:102AE000D3181A782C217B181A70BB6D0133BB6583
:102AF0005226BC197B1801211800FFF796FE03002F
:102B000023707A19BB6DD3181B78BA1912789A42C0
:102B100002D0FB6D0133FB65BB6D0133BB657B6D83
:102B200001337B65BB1D1B787A6D9A42CBD353234F
:102B3000FB181A7839683023FB181800FFF70CFED1
:102B4000FB6D9AB2074B1B88D3189AB2054B1A80BB
:102B500000231800BD4619B0F0BDC046F0C50008FE
:102B60004C0200201604002090B587B000AF3960F9
:102B70001100BB1D021C1A807B1D0A1C1A70142335
:102B8000FB1800221A800C203B18554A1168196066
:102B900092889A80BB1D1B88DAB23B181A70BB1D45
:102BA0001B881B0A9BB2DAB23B185A703B68DAB238
:102BB0003B189A707B1D1B78042B55D000DD88E0F4
:102BC000012B02D0022B25D083E00C243B190322D9
:102BD00019003E20FFF782FEFA23DB001800FFF702
:102BE0008DFD3B1903211800FFF7EBFD03001A00D0
:102BF00014217B181A707B1805225A707B18022248
:102C000019006020FFF76AFEFA23DB001800FFF7C7
:102C100075FD5EE03B681B0ADAB20C243B19DA70E2
:102C20003B19042219003E20FFF758FEFA23DB006F
:102C30001800FFF763FD3B1904211800FFF7C1FDE1
:102C400003001A0014217B181A707B1806225A7090
:102C50007B18022219006020FFF740FEFA23DB00F8
:102C60001800FFF74BFD34E03B681B0ADAB20C2179
:102C70007B18DA703B681B0CDAB27B181A713B6860
:102C80001B0EDAB27B185A710C007B180622190051
:102C90003E20FFF723FEFA23DB001800FFF72EFD8E
:102CA0003B1906211800FFF78CFD03001A001421C0
:102CB0007B181A707B1808225A707B1802221900A0
:102CC0006020FFF70BFEFA23DB001800FFF716FD6C
:102CD000C0460220FFF728FDC046BD4607B090BDA4
:102CE00010C6000880B584B000AF0200BB1D1A807A
:102CF0000C217B1800221A80BB1D1B88DAB27B18BE
:102D00001A70BB1D1B881B0A9BB2DAB27B185A7063
:102D10007B18022219003E20FFF7E0FD0220FFF79A
:102D200003FDC046BD4604B080BD000090B585B02F
:102D300000AF040008001100BB1D221C1A803B1DBF
:102D4000021C1A80FB1C0A1C1A700C217B18002222
:102D50001A600823FB1800221A80BB1D1B88DAB2F8
:102D60007B181A70BB1D1B881B0A9BB2DAB27B183A
:102D70005A70FB1C1B78002B11D17B180222190002
:102D80003E20FFF7ABFDFA23DB001800FFF7B6FC8F
:102D9000334B102219004020FFF72AFE58E0FB1C9D
:102DA0001B78012B24D13B1D1B88DAB20C243B1964
:102DB0009A703B19032219003E20FFF78FFDFA237A
:102DC000DB001800FFF79AFC3B1903211800FFF7FE
:102DD000F8FC03001A0008217B181A707B180522E2
:102DE0005A707B18022219006020FFF777FD2FE050
:102DF000FB1C1B78022B2BD13B1D1B88DAB20C214C
:102E00007B189A703B1D1B881B0A9BB2DAB27B1899
:102E1000DA700C007B18042219003E20FFF75EFDDB
:102E2000FA239B001800FFF769FC3B1904211800E6
:102E3000FFF7C7FC03001A0008217B181A707B18E3
:102E400006225A707B18022219006020FFF746FD07
:102E50000220FFF769FCC046BD4605B090BDC046E4
:102E6000A403002090B585B000AF04000800110055
:102E7000FB1D221C1A703B1D021C1A80BB1D0A1C64
:102E80001A700C217B1800221A803B1D1B88DAB2B5
:102E90007B181A703B1D1B881B0A9BB2DAB27B1889
:102EA0005A70BB1D1B78002B0BD11049FB1D1B78E2
:102EB00002221800FFF79CFDFA23DB001800FFF741
:102EC0001DFCBB1D1B78012B0CD10C23F918FB1D1D
:102ED0001B7802221800FFF701FDFA23DB0018001F
:102EE000FFF70CFCC046BD4605B090BDA003002016
:102EF00080B582B000AF0200BB1D1A807B1D0A1C8A
:102F00001A70BB1D1B88002200211800FFF70EFF5E
:102F10007B1D1B78012B02D0022B03D00BE0084B4A
:102F20001B7809E0064B5B781B029BB2044A1278BF
:102F30009B189BB200E000231800BD4602B080BD84
:102F4000A403002080B500AF002200211220FFF76B
:102F500089FF064B5B781B029BB2044A12789B18D0
:102F60009AB2034B1A80C046BD4680BDA003002024
:102F70000604002080B500AF9020FFF7B3FEFA23CF
:102F8000DB001800FFF7BAFBC749C84B0222180044
:102F9000FFF7EAFDC64B01220D211800FFF7E4FD03
:102FA000C44B012201211800FFF7DEFDC24B0122B4
:102FB0000D211800FFF7D8FDC04B02225021180048
:102FC000FFF7D2FDBE4B012282211800FFF7CCFD96
:102FD000BC4B012282211800FFF7C6FDBA4B01222B
:102FE00026211800FFF7C0FDB84B01220721180069
:102FF000FFF7BAFDB64B012207211800FFF7B4FD19
:1030000093231B02012207211800FFF7ADFDB14BEE
:10301000022280211800FFF7A7FDAF4B181CFFF715
:10302000C6FB0300AD4804221900FFF79DFDAC4B21
:10303000181CFFF7BCFB0300AA4804221900FFF785
:1030400093FDA949A94B02221800FFF78DFDA8495D
:10305000A84B02221800FFF787FDA749A74B0222C1
:103060001800FFF781FDA249A54B02221800FFF7C7
:103070007BFDA449A44B02221800FFF775FDA3496C
:10308000A34B02221800FFF76FFDA249A24B0222B8
:103090001800FFF769FDA149A14B02221800FFF7B4
:1030A00063FDA049A04B02221800FFF75DFD9F4978
:1030B0009F4B02221800FFF757FD9E499E4B0222AC
:1030C0001800FFF751FD9D4B0122BC211800FFF7AE
:1030D0004BFD9B4B012277211800FFF745FD994BD3
:1030E000012205211800FFF73FFD0A235B429648A5
:1030F00001221900FFF738FD944B01222821180006
:10310000FFF732FD924B012237211800FFF72CFD0B
:103110009049914B02221800FFF726FD8F49904BF2
:1031200002221800FFF720FD8E4B01220321180018
:10313000FFF71AFD8C4B012201211800FFF714FD47
:103140008A4B0222F0211800FFF70EFD884B022265
:1031500002211800FFF708FD864B01220321180009
:10316000FFF702FD844B012203211800FFF7FCFC4E
:10317000824B012219211800FFF7F6FC804B012237
:1031800019211800FFF7F0FC7E4B01220F211800D7
:10319000FFF7EAFC7C4B01220F211800FFF7E4FC4B
:1031A0007A497B4B02221800FFF7DEFC7749794B06
:1031B00002221800FFF7D8FC774B012234211800B7
:1031C000FFF7D2FC754B012253211800FFF7CCFC0E
:1031D00096231B01724802221900FFF7C5FC7149B2
:1031E000714B02221800FFF7BFFC704B0122042133
:1031F0001800FFF7B9FC6E4B022264211800FFF79C
:10320000B3FC6C4B022232211800FFF7ADFC6A4B75
:1032100001220F211800FFF7A7FC684B01221E2195
:103220001800FFF7A1FC664B01227D211800FFF773
:103230009BFC644B012204211800FFF795FC624BB4
:10324000012264211800FFF78FFC604B01225A21F4
:103250001800FFF789FC5E495E4B02221800FFF759
:1032600083FC5D4B02220F211800FFF77DFC5B4BB6
:1032700001220D211800FFF777FC594B0122112183
:103280001800FFF771FC574B012201211800FFF7CE
:103290006BFC9220FFF726FD534B1800FFF72EFA28
:1032A000C046BD4680BDC046A22C0000349200003E
:1032B000089300003792000036920000439300000C
:1032C000FB920000FA920000FC920000FD920000C8
:1032D000FF9200006D92000044C0413FA8910000A1
:1032E00014725C48AC91000061A9FFFFEA910000F4
:1032F000D07B0000EC910000F4BEFFFFEE910000D7
:10330000F0910000BD0F0000F2910000E5A2FFFF68
:10331000F491000002510000F6910000EADEFFFF88
:10332000F8910000F4110000FA910000B72D0000A0
:10333000FE910000FFAA00000493000061920000CB
:1033400062920000A6920000A99200009A920000EA
:103350009D9200006C070000CB92000094110000C9
:10336000CE920000C0920000C3920000D1920000F3
:103370005F920000359300003A9300003D930000F7
:10338000419300003E93000042930000740E000041
:103390003B9300003F93000075920000789200007C
:1033A0003F920000C80A0000419200007B9200009A
:1033B00010930000129300008092000081920000A0
:1033C00082920000839200008492000085920000A7
:1033D00080C1FFFF8A9200008C920000869200005C
:1033E000879200009592000060EA000080B500AF6F
:1033F000FFF7C0FDFFF7A6FD0B4B1B881A0001234A
:10340000134001D000230CE0084B02211800FFF705
:103410006FFD03001A00064B9A4201D0002300E022
:1034200001231800BD4680BD06040020049300005F
:10343000FFAA000080B500AF074B0022082118004A
:1034400002F039FD044B00221021180002F033FD78
:10345000C046BD4680BDC0460004005080B500AFE8
:10346000074B01220821180002F025FD044B012220
:103470001021180002F01FFDC046BD4680BDC046A9
:103480000004005080B500AF002200217F20FFF72C
:10349000E9FC144B1A78144B1A70124B1B789B08DA
:1034A000DBB201221340DAB2104B1A700D4B1B78BD
:1034B00001221340DAB20E4B1A700A4B1B785B08DC
:1034C000DBB201221340DAB20A4B1A70054B1B78AB
:1034D000DB08DBB201221340DAB2074B1A70C04698
:1034E000BD4680BDA0030020080400201104002078
:1034F00012040020130400201404002080B500AF43
:10350000A023DB0500220221180002F0D4FCC046F3
:10351000BD4680BD80B500AF0F20FFF7E3FBFA2367
:10352000DB001800FFF7EAF80F20FFF7DBFBFA23B8
:10353000DB001800FFF7E2F800F09CF803001A0027
:103540000423134001D0012300E000231800BD46EE
:1035500080BD80B500AFA023DB0501220221180049
:1035600002F0A9FCFA23DB001800FFF7C7F8A0233C
:10357000DB0500220221180002F09DFCFA23DB008B
:103580001800FFF7BBF800F075F803001A000423D9
:10359000134001D0002300E001231800BD4680BD88
:1035A00080B582B000AFFB1D00221A700FE08023AF
:1035B0009900A023DB050122180002F07CFC1220F8
:1035C000FFF790FBFB1D1A78FB1D01321A70FB1DE3
:1035D0001B78132BEBD901F08BFBC046BD4602B024
:1035E00080BD000080B500AFFFF7ACFC074B1B8827
:1035F0001A00C0239B00134004D03C20FFF794F82E
:10360000012300E000231800BD4680BD0604002011
:1036100080B500AFA023DB0501220221180002F0D3
:103620004AFCFA23DB001800FFF768F8A023DB054B
:1036300000220221180002F03EFCFA23DB001800F1
:10364000FFF75CF8C046BD4680BD000080B500AF06
:10365000002200216220FFF705FC054B5B781B026E
:103660009BB2034A12789B189BB21800BD4680BDDE
:10367000A003002080B500AF002200210020FFF74A
:10368000F1FB054B5B781B029BB2034A12789B1837
:103690009BB21800BD4680BDA003002080B500AFDE
:1036A000002200210320FFF7DDFB284B1A78284B6E
:1036B0001A70264B1B789B08DBB201221340DAB24A
:1036C000244B1A70214B1B78DB08DBB2012213401C
:1036D000DAB2214B1A701D4B5B78DB08DBB201229A
:1036E0001340DAB21D4B1A70184B5B785B08DBB2E3
:1036F00001221340DAB21A4B1A7000220021052071
:10370000FFF7B0FB114B1A78164B1A7000220021FC
:103710000720FFF7A7FB0D4B1A78134B1A700C4BC1
:103720001B781A000F4B1B78D3180F4A12789B187E
:10373000012B03DD0D4B01221A7002E00B4B00221E
:103740001A7001231800BD4680BDC046A0030020AA
:10375000020400200C0400200D0400200E040020B0
:103760000F040020030400200404002010040020A3
:1037700080B582B000AF0200FB1D1A70FB1D1B78E4
:10378000002200211800FFF76DFBFA23DB00180070
:10379000FEF7B4FFFB1D1B78132B0CD9FB1D1B7808
:1037A000322B08D80C4B5B781B029BB20A4A12786A
:1037B0009B189BB20BE0084B5B781B02064A127801
:1037C0009B189BB21A1C9200D318DB189BB21800EE
:1037D000BD4602B080BDC046A003002080B582B0C7
:1037E00000AF00237B6010E07B680A33DBB2DB189C
:1037F000DBB21800FFF7BCFF030019B2114B7A6867
:103800005200D1527B6801337B607B680F2BEBDD6C
:103810003420FFF7ADFF03001A000B4B1A8036204F
:10382000FFF7A6FF03001A00084B1A803820FFF7A5
:103830009FFF03001A00064B1A80C046BD4602B027
:1038400080BDC046C4030020F8030020FA03002016
:10385000FC03002080B500AF002200213A20FFF7D2
:1038600001FB064B5B781B029BB2044A12789B1843
:103870009BB21BB21800BD4680BDC046A00300200D
:1038800080B582B000AF0200FB1D1A70FB1D1B78D3
:10389000002200211800FFF7E5FA124B5B781B02AB
:1038A000104A12789B181800FCF718FF031C181C0C
:1038B000FEF71CFE0C4A0D4BFDF704FF02000B0047
:1038C000100019000A4A0B4BFEF7C4F902000B0066
:1038D00010001900FEF752FE031C181CBD4602B072
:1038E00080BDC046A00300209A9999999999B93F43
:1038F000666666666612714080B500AF00220021E0
:103900008320FFF713FA064B5B781B029BB2044A35
:1039100012789B189AB2034B1A80C046BD4680BDF0
:10392000A40300200A04002080B500AFFFF78EFE3C
:1039300003001A001A4B1A80194B1B881A008023A7
:10394000134028D0FFF786FF03001A00154B1A809A
:10395000FFF744FFFFF7D0FF7020FFF791FF021C35
:10396000114B1A607420FFF78BFF021C0E4B5A603C
:103970007620FFF785FF021C0B4B9A606820FFF74B
:103980007FFF021C084BDA60012280216220FFF7D2
:1039900069FA012300E000231800BD4680BDC0463F
:1039A00000040020FE030020E803002080B584B05E
:1039B00000AF3223FB601C4BBB6000237B6023E025
:1039C0001A4A7B681A4113000122134019D0184B80
:1039D0007A685200D35E1A00BB68934204DD144B30
:1039E0007A685200D35EBB60114B7A685200D35E96
:1039F0001A00FB68934204DA0D4B7A685200D35EDA
:103A0000FB607B6801337B607B680F2BD8DDBB6874
:103A10001AB2084B1A80FB681AB2074B1A80C046CC
:103A2000BD4604B080BDC04670170000FFAA00006C
:103A3000C4030020E4030020E603002080B584B026
:103A400000AF78600A00BB1C1A800E23FB1801220D
:103A500052421A800D23FB1800221A703AE00D23FF
:103A6000FB181B787A68D3181B7819000E22BB1834
:103A7000BA1812884A401A800C23FB1800221A70C8
:103A80001DE00E217B181B88012213400BD07B18F0
:103A90007A18128852081A807B187A1812881549E9
:103AA0004A401A8005E00E22BB18BA181288520844
:103AB0001A800C217B181A787B1801321A700C239B
:103AC000FB181B78072BDCD90D217B181A787B1883
:103AD00001321A700D23FB181B789BB2BA1C128896
:103AE0009A42BCD80E23FB181B881800BD4604B0B0
:103AF00080BDC04601A0FFFF80B500AFA023DB055D
:103B000000224021180002F0D6F9A023DB05012293
:103B10008021180002F0CFF9C046BD4680BD80B5B7
:103B200000AFA023DB0501224021180002F0C3F9F9
:103B3000A023DB0501228021180002F0BCF9C04659
:103B4000BD4680BD80B500AFA023DB05002240212B
:103B5000180002F0B0F9A023DB0500228021180034
:103B600002F0A9F9C046BD4680BD000080B582B014
:103B700000AF134B1B78DBB2002B1DD100237B6001
:103B800007E0104A7B68D31800221A707B68013363
:103B90007B607B68072BF4DDFFF7D4FF0A4B8022A4
:103BA000202199500749084B0822180005F060FFB2
:103BB000031E01D001F09CF8C046BD4602B080BD96
:103BC0009C03002020040020E002002090B585B076
:103BD00000AF0023FB6007E0334AFB68D3180022E4
:103BE0001A70FB680133FB60FB681F2BF4DD2E4B62
:103BF00002221A702C4B03225A702B4B18229A70F7
:103C00000023BB6000237B602EE0284A7B681A41BA
:103C100013000122134024D0254B7A685200D35E52
:103C20005B0003211800FCF715FB03001A12BB68A8
:103C30005B000333D1B21C4AD1541D4B7A68520049
:103C4000D35E5B0003211800FCF704FB03001A009D
:103C5000BB6802335B00D1B2134AD154BB68013355
:103C6000BB607B6801337B607B680F2BCDDDBC1CA8
:103C70000D4B1B211800FFF7E1FE03002380BB1C46
:103C80001B88DAB2084BDA76BB1C1B881B0A9BB276
:103C9000DAB2054B1A77044BFF225A771E2318001D
:103CA000BD4605B090BDC04628040020FFAA000014
:103CB000C403002090B587B000AF00237B6107E00C
:103CC000354A7B69D31800221A707B6901337B6106
:103CD0007B691F2BF4DD304B02221A702E4B03221E
:103CE0005A702D4B02229A701223FB1800221A8060
:103CF0000023FB600023BB6022E0284ABB681A4116
:103D000013000122134018D0254B1B881A00BB68F2
:103D10001A411300012213400CD00122FB689A4083
:103D200013001AB212217B1800201B5E13431AB233
:103D30007B181A80FB680133FB60BB680133BB60F2
:103D4000BB680F2BD9DD12217B181B881B0A9BB285
:103D5000DAB2114BDA707B181B88DAB20E4B1A718B
:103D6000BC1D0D4B05211800FFF768FE03002380E2
:103D7000BB1D1B88DAB2084B5A71BB1D1B881B0A7E
:103D80009BB2DAB2044B9A71034BFF22DA7108231B
:103D90001800BD4607B090BD28040020FFAA00000F
:103DA0000A04002090B583B000AF00237B6007E0D9
:103DB0001A4A7B68D31800221A707B6801337B6033
:103DC0007B681F2BF4DD154B02221A70134B032264
:103DD0005A70124B02229A70104B0022DA700F4B6D
:103DE00000221A71BC1C0D4B05211800FFF726FE9E
:103DF00003002380BB1C1B88DAB2084B5A71BB1C22
:103E00001B881B0A9BB2DAB2044B9A71034BFF2248
:103E1000DA7108231800BD4603B090BD28040020C5
:103E200090B583B000AF00237B6007E01A4A7B683F
:103E3000D31800221A707B6801337B607B681F2BCC
:103E4000F4DD154B02221A70134B03225A70124BE9
:103E500002229A70104B0022DA700F4B19221A714D
:103E6000BC1C0D4B05211800FFF7E8FD0300238063
:103E7000BB1C1B88DAB2084B5A71BB1C1B881B0A7F
:103E80009BB2DAB2044B9A71034BFF22DA7108231A
:103E90001800BD4603B090BD28040020F0B587B0DF
:103EA00000AF78600A00BB1C1A80BB1C1B88082B63
:103EB00000D0ADE017243B197A6812781A701625E5
:103EC0007B197A6852781A707B6802331B781B0260
:103ED0001AB27B6803331B781BB213431AB2142641
:103EE000BB191A807B6804331B781B021AB27B68EB
:103EF00005331B781BB213431AB21223FB181A8026
:103F00007B6807331B781B021AB27B6806331B7869
:103F10001BB213431AB21023FB181A807B680621C8
:103F20001800FFF78BFD03001A001023FB181B88F5
:103F3000934200D06CE03B191B78022B68D1E1233F
:103F40005B001800FEF7DAFB7B191B78032B5FD1AF
:103F5000BB191B88022B10D10F257C19FFF736FEE9
:103F600003002370FFF7DBFD7B191B789AB22F4902
:103F70002F48032304F09EFA4AE01423FB181B8801
:103F8000172B10D10F257C19FFF794FE0300237027
:103F9000FFF7C5FD7B191B789AB2244924480323F7
:103FA00004F088FA34E01423FB181B88002B15D189
:103FB0001223FB181B88012B10D10F257C19FFF74A
:103FC000F1FE03002370FFF7AAFD7B191B789AB25C
:103FD00016491748032304F06DFA19E01423FB185F
:103FE0001B88012B14D11223FB181B88012B0FD126
:103FF0000F257C19FFF714FF03002370FFF78FFDD7
:104000007B191B789AB209490948032304F052FA34
:10401000FFF798FD80239900A023DB0500221800FC
:1040200001F049FFC046BD4607B0F0BD280400209E
:10403000E002002080B500AF054B180002F052FEF0
:10404000031E01D000F054FEC046BD4680BDC046F0
:104050006803002080B500AF00F022F8031E06D0F0
:104060000E4B1B780133DAB20C4B1A7009E00B4B84
:104070001B78002B05D0094B1B78013BDAB2074BAC
:104080001A70064B1B780F2B04D9044B00221A70B0
:1040900000F042F9C046BD4680BDC0461504002070
:1040A00080B500AFA023DB050121180001F0E6FE7A
:1040B00003005A425341DBB21800BD4680BD0000E8
:1040C00080B500AF184B00229B5EFA331BDB164B0A
:1040D00000229B5E4B2B16DC144B1B78002B0BD164
:1040E000134B1B78002B07D0124B1B882D33FF334B
:1040F0009AB2104B1A800CE00E4B1B8801339AB217
:104100000C4B1A8005E00B4B1B885B089AB2094BDD
:104110001A80084B1B88084A934201D900F0FCF82A
:10412000C046BD4680BDC046FE03002012040020EC
:104130001104002018040020F82A000090B58BB06C
:1041400000AF5E4B00220121180001F0B4FE5B4B72
:1041500000220221180001F0AEFE80235900A023A6
:10416000DB050022180001F0A6FE80239900A023A1
:10417000DB050022180001F09EFEFFF75BF9FFF758
:10418000BBFC00F077FA00F047FA4D4BDA6A4C4B73
:1041900001210A43DA624A4BDB6A012213403B6188
:1041A0003B69474BDA6A464B02210A43DA62444BC9
:1041B000DB6A02221340FB60FB68414BDA6A404B2A
:1041C00004210A43DA623E4BDB6A04221340BB60DF
:1041D000BB683B4BDA6A3A4B08210A43DA62384B38
:1041E000DB6A082213407B607B68354BDA6A344B0C
:1041F00080210A43DA62324BDB6A802213403B6043
:104200003B6814243B1903225A603B1900229A6030
:104210003B192C4A1A603A19A023DB05110018003B
:1042200001F0DCFB3B19284A1A603B19234A1900AC
:10423000100001F0D3FB3B19244A1A603B19244AB1
:104240001900100001F0CAFB3B19224A19001000A6
:1042500001F0C4FB3B19204A1900100001F0BEFB1D
:10426000174BDA6A164B01218A43DA62144BDA6A79
:10427000134B02218A43DA62114BDA6A104B042194
:104280008A43DA620E4BDA6A0D4B08218A43DA62FE
:104290000B4BDA6A0A4B80218A43DA620F4B180013
:1042A00000F0DEFD0E4B1A680D4B04210A431A6024
:1042B0000121012002F044FDFEF70EFA0004005037
:1042C00000100240FEFF0000DFFF0000FFFF0000C3
:1042D00000080050000C0050001C00507803002023
:1042E0000070004080B500AF094B1A6D80239B051C
:1042F000134002D0074B01221A70054B1A6D044B74
:10430000802109040A431A65C046BD4680BDC046E7
:10431000001002401C04002080B500AFFFF78AFEA9
:10432000134B1B681A68124B1B6820218A431A60C2
:10433000FFF780F8C820FEF7F7F903E00D4B1800EF
:10434000FEF7DCF9FFF7E6F8031EF7D00122802123
:104350006220FEF787FD02F0D5FC074A074B0121DA
:10436000180003F063FD02F0DBFCFEF7B5F9C04670
:10437000E002002088130000ADDE0000780300207A
:1043800080B500AF0C4B0121180003F067FD03005E
:104390000A4A93420BD102F0B5FC074B00220121DF
:1043A000180003F043FD02F0BBFC012300E00023F2
:1043B0001800BD4680BDC04678030020ADDE000079
:1043C00080B500AF00F026FFFFF78CFF00F082F908
:1043D00000F07AFB00F0F0F900F054FA00F0C6FAB1
:1043E00000F018FB00F08EFA00F044FB664B18005A
:1043F00003F08AFDFFF754FE031E02D0634B012237
:104400001A70FFF7BDFF031E01D0FFF797FEFFF7FD
:1044100075F83220FEF788F900F086FAFFF7A6FB60
:10442000FFF708F8FFF7F4F810E0FA239B001800F4
:10443000FEF764F9564B1B88642B01D9FFF7B0F8DF
:10444000534B1B8801339AB2514B1A80FFF7CAF8BD
:10445000031EEAD04E4B00221A8010E0FA239B0084
:104460001800FEF74BF94A4B1B88642B01D9FFF764
:1044700097F8474B1B8801339AB2454B1A80FFF7D8
:1044800068F8031EEAD0424B00221A800BE0404B32
:104490001B88642B01D9FFF783F83D4B1B88013340
:1044A0009AB23B4B1A80FEF7A1FF031EEFD0384BA8
:1044B00000221A800FE0364B1B88642B01D9FFF7CE
:1044C0006FF8334B1B8801339AB2314B1A80314B52
:1044D0001800FEF713F9FFF727FA031EEBD02C4B59
:1044E00000221A80294B1B78002B06D12A4B1B88EF
:1044F0002A4A934201D8FFF70FFF2220FEF7F2FB72
:10450000FEF7ACFF2220FEF7EDFBFFF72FFBFFF7D6
:10451000A1FDFEF7B7FFFFF7D3FDFFF747FAFEF760
:1045200011FDFFF701FA031E03D0194B00221A8078
:1045300005E0174B1B8801339AB2154B1A80FFF721
:10454000ADF8031E03D0124B00221A8005E0104B79
:104550001B8801339AB20E4B1A8080235900A02386
:10456000DB050022180001F0A6FC094B1B88642B18
:1045700002D9FFF715F805E0FFF75CFD0A20FEF70A
:10458000D3F8C4E74CE7C046A00200201D04002079
:104590001A04002088130000FA030020973A000054
:1045A00080B582B000AF7860A023DB0501228021B6
:1045B000180001F080FC1420FEF7A0F8A023DB0512
:1045C00001224021180001F076FC1420FEF796F835
:1045D0000F4B391D0F48012203F06CFFA023DB05B0
:1045E00000224021180001F066FC1420FEF786F836
:1045F000A023DB0501228021180001F05CFC1420BF
:10460000FEF77CF87B681800BD4602B080BDC0464E
:10461000FFFF0000E002002080B586B000AF144B21
:10462000DA6A134B01210A43DA62114BDB6A012279
:1046300013403B603B683B1D842292035A603B1D44
:1046400001229A603B1D01221A603A1DA023DB055E
:104650001100180001F0C2F900220221052001F02A
:10466000F3F8052001F005F9C046BD4606B080BD4F
:104670000010024080B586B000AF144BDA6A134BCD
:1046800002210A43DA62114BDB6A022213403B60CB
:104690003B683B1D882252035A603B1D02229A60F0
:1046A0003B1D20221A603B1D094A1900100001F031
:1046B00095F900220221062001F0C6F8062001F03B
:1046C000D8F8C046BD4606B080BDC04600100240C6
:1046D0000004005090B599B000AF2C243B1918008D
:1046E00034231A00002105F09DFF1823FB18180041
:1046F00014231A00002105F095FF3B001800182331
:104700001A00002105F08EFF294B1B68294A1A4028
:10471000274B802109010A431A6021007B180A22D5
:104720001A607B180122DA607B1810221A617B184C
:1047300001225A617B1800225A627B18180002F08D
:1047400077FB031E01D000F0D3FA18217B180F224B
:104750001A607B1801225A607B1800229A607B182D
:104760000022DA607B1800221A617B1800211800F1
:1047700002F0DAFE031E01D000F0BAFA3B002A2252
:104780001A603B0008229A603B00802292011A6165
:104790003B00802292025A603B00180003F0E8F8C8
:1047A000031E01D000F0A4FAC046BD4619B090BD6A
:1047B00000700040FFE7FFFF80B582B000AF3B0014
:1047C000180008231A00002105F02CFF2A4B2B4A61
:1047D0001A60294B0022DA63274BC02212065A6066
:1047E000254B00229A60244B00229A63224B01221F
:1047F0001A61214B0022DA601F4B202200219954BC
:104800001D4B2122002199541B4B00229A621A4B06
:10481000C222FF325A62184B2C2200219954164BA7
:1048200004225A61144B00221A63134B00229A612E
:10483000114B00225A63104B0022DA610E4B180014
:1048400000F058FD031E01D000F052FA3B000C4A64
:104850001A603B00802252015A603A00064B110058
:10486000180000F0BBFE031E01D000F041FAC04664
:10487000BD4602B080BDC046F001002000240140CA
:104880002000001480B500AF1B4B1C4A1A601A4B65
:104890001B4A5A60184B00229A60174B0122DA60BB
:1048A000154B00221A61144B00225A61124B002250
:1048B0009A61114B0022DA610F4B00221A620E4BF3
:1048C000180001F03BFB031E01D000F011FA0A4B67
:1048D0000021180002F01CF9031E01D000F008FAB4
:1048E000054B0021180002F05FF9031E01D000F013
:1048F000FFF9C046BD4680BD4C0200200054004078
:104900001706300080B500AF02F084FA02F074FAA6
:10491000044BDA68034B802109020A43DA60C0467F
:10492000BD4680BD0010024080B500AF0B4B0C4A65
:104930001A600A4B02225A60084B0A4ADA60074B97
:10494000094A9A60054B180002F07AF9031E01D05B
:1049500000F0CEF9C046BD4680BDC04668030020C9
:1049600000300040FF0F0000FC08000080B586B05A
:1049700000AF0823FB18180010231A00002105F0CF
:1049800051FE3B00180008231A00002105F04AFEE2
:104990001E4B8022D2051A601C4B0E225A601B4B04
:1049A00000229A60194B1A4ADA60184B00221A61E9
:1049B000164B00225A61154B180003F065FA031ECE
:1049C00001D000F095F908217B18802252011A606D
:1049D0007A180E4B1100180003F0D2FA031E01D012
:1049E00000F086F93B0000221A603B0000225A606A
:1049F0003A00064B1100180003F07AFC031E01D0A8
:104A000000F076F9C046BD4606B080BDA002002089
:104A1000FFFF000080B500AF144B154A1A60134B1E
:104A2000E12252025A60114B00229A600F4B002281
:104A3000DA600E4B00221A610C4B0C225A610B4BB0
:104A400000229A61094B0022DA61084B00221A62A7
:104A5000064B00225A62054B180003F099FC031E16
:104A600001D000F045F9C046BD4680BDE0020020FF
:104A70000044004080B500AF114B124A1A60104B41
:104A800000225A600E4B7F229A600D4BFF22DA60A3
:104A90000B4B00221A610A4B00225A61084B00227C
:104AA0009A61074B0022DA61054B180003F08CF87D
:104AB000031E01D000F01CF9C046BD4680BDC046B3
:104AC000780300200028004090B589B000AF0C2486
:104AD0003B19180014231A00002105F0A3FD3D4BDB
:104AE000DA6A3C4B04210A43DA623A4BDB6A04225D
:104AF0001340BB60BB68374BDA6A364B01210A436F
:104B0000DA62344BDB6A012213407B607B68314BF5
:104B1000DA6A304B02210A43DA622E4BDB6A022248
:104B200013403B603B682C49A023DB0500221800A2
:104B300001F0C1F9294B00221B21180001F0BBF93B
:104B40003B19254A1A603B1901225A603B19002281
:104B50009A603B190022DA603A19A023DB051100A4
:104B6000180000F03BFF3B191B221A603B19012281
:104B70005A603B1900229A603B190022DA603B1907
:104B8000164A1900100000F029FF3B1920221A6074
:104B90003B1900225A603B1900229A603B190F4AC8
:104BA0001900100000F01AFF21007B1801221A6082
:104BB0007B1800225A607B1801229A607A18A02381
:104BC000DB051100180000F009FFC046BD4609B022
:104BD00090BDC04600100240C20300000004005017
:104BE00080B582B000AF78600A00BB1C1A80124BFF
:104BF0001B78DBB2002B1AD10F4B01221A700F4B1E
:104C00001B681A680D4B1B6820218A431A60BB1C65
:104C10001B88082B04D10A4B08211800FFF73EF926
:104C2000054B00221A70FEF78DFFFEF79FFFC0466E
:104C3000BD4602B080BDC0469C030020E0020020BB
:104C40002004002080B582B000AF7860264B1B683E
:104C50001A68254B1B6820218A431A607B688422CE
:104C60009B580422134003D01F4B1B6802221A6278
:104C70007B6884229B580822134003D01A4B1B6880
:104C800008221A627B6884229B580222134003D0B8
:104C9000154B1B6804221A627B6884229B580122F0
:104CA000134003D0104B1B6801221A627B688422D8
:104CB0009B58002B0FD10C4B180003F0BDFB031EBB
:104CC00001D000F015F8084B180003F061FB031E3B
:104CD00001D000F00DF8054B00221A70FEF746FFD8
:104CE000C046BD4602B080BDE00200209C0300200B
:104CF00080B500AF72B6C046FA239B001800FDF7DE
:104D000013FDC046FDE7000080B500AF074B5A6BAE
:104D1000064B01210A435A63044B9A6B034B8021D3
:104D200049050A439A63C046BD4680BD0010024053
:104D300090B589B000AF78600C243B19180014239B
:104D40001A00002105F06EFC7B681B68144A934230
:104D500022D1144B5A6B134B802189000A435A63AA
:104D6000104BDA6A0F4B01210A43DA620D4BDB6A02
:104D700001221340BB60BB683B1920221A603B191B
:104D800003225A603B1900229A603A19A023DB05DE
:104D90001100180000F022FEC046BD4609B090BDCB
:104DA000002401400010024090B589B000AF786047
:104DB0000C243B19180014231A00002105F032FCC2
:104DC0007B681B68174A934228D1174BDA6A164B47
:104DD00002210A43DA62144BDB6A02221340BB60F1
:104DE000BB6821007B18C0221A607B1812225A600F
:104DF0007B1800229A607B180322DA607B1801225C
:104E00001A617B18094A1900100000F0E7FD064BF3
:104E10009A6B054B802189030A439A63C046BD46BD
:104E200009B090BD00540040001002400004005042
:104E300080B582B000AF78607B681B68064A9342F9
:104E400006D1064B1A6D054B8021C9020A431A652B
:104E5000C046BD4602B080BD0028004000100240A0
:104E600080B582B000AF78607B681B68064A9342C9
:104E700005D1064B1A6D054B05490A401A65C04617
:104E8000BD4602B080BDC046002800400010024070
:104E9000FFFFFBFF80B582B000AF78607B681A68C7
:104EA0008023DB059A4205D1044B9A6B034B012109
:104EB0000A439A63C046BD4602B080BD001002405E
:104EC00090B589B000AF78600C243B19180014230A
:104ED0001A00002105F0A6FB7B681B681C4A934260
:104EE00031D11C4B9A6B1B4B802189020A439A6378
:104EF000184BDA6A174B01210A43DA62154BDB6A59
:104F000001221340BB60BB6821007B180C221A6091
:104F10007B1802225A607B1800229A607B180322B9
:104F2000DA607B1804221A617A18A023DB051100CD
:104F3000180000F053FD002200211C2000F084FC2A
:104F40001C2000F096FCC046BD4609B090BDC0468E
:104F5000004400400010024080B582B000AF78608D
:104F60007B681B680A4A93420ED10A4B9A6B094B25
:104F700009490A409A63A023DB050C21180000F0C0
:104F8000A3FE1C2000F085FCC046BD4602B080BDDB
:104F90000044004000100240FFFFFDFF80B500AF5D
:104FA000C046FDE780B500AFC046FDE780B500AF65
:104FB000C046BD4680BD80B500AFC046BD4680BD81
:104FC00080B500AF00F07AF9C046BD4680BD000054
:104FD00080B500AF034B180003F00CFBC046BD4684
:104FE00080BDC046E002002080B500AF012000F087
:104FF0007FFFC046BD4680BD80B500AF202000F0D9
:1050000077FFC046BD4680BD80B500AF01231800C4
:10501000BD4680BD80B582B000AF7860396005F0D4
:105020005BFB030016221A6001235B421800BD4699
:1050300002B080BD80B582B000AF786001235A42D3
:105040007B6811001800FFF7E5FFC046FDE780B55B
:1050500086B000AFF860B9607A6000237B610AE037
:1050600000E000BF0100BB685A1CBA60CAB21A70E7
:105070007B6901337B617A697B689A42F0DB7B68EC
:105080001800BD4606B080BD80B586B000AFF860A0
:10509000B9607A6000237B6109E0BB685A1CBA6082
:1050A0001B781800FFF77CFA7B6901337B617A6912
:1050B0007B689A42F1DB7B681800BD4606B080BD74
:1050C00080B582B000AF786001235B421800BD4616
:1050D00002B080BD80B582B000AF786039603B68B7
:1050E000802292015A6000231800BD4602B080BDA4
:1050F00080B582B000AF786001231800BD4602B0D1
:1051000080BD80B584B000AFF860B9607A600023DC
:105110001800BD4604B080BD80B586B000AF786091
:10512000144A154BD31A7B617B693B61134B1B6897
:10513000002B02D1114B124A1A60104B1A687B687F
:10514000D3183A699A4207D205F0C6FA03000C2236
:105150001A6001235B4209E0084B1B68FB60074BA8
:105160001A687B68D218054B1A60FB681800BD46A8
:1051700006B080BD0020002000040000480400208C
:10518000A005002080B500AFC046BD4680BD000030
:1051900013488546FFF7F6FF12480168090E124AC8
:1051A000914205D11148124901601248124901602B
:1051B00012481349134A002302E0D458C450043360
:1051C000C4188C42F9D3104A104C002301E013603C
:1051D0000432A242FBD305F085FAFFF7F1F8FEE7AF
:1051E00000200020040000001F00000034100240D6
:1051F000010000000000014000000000000000204D
:10520000D401002060CB0008D40100209C050020C0
:10521000FEE7000080B582B000AFFB1D00221A70CF
:105220000B4B1A680A4B40210A431A60032000F016
:1052300011F8031E03D0FB1D01221A7001E0FFF7D5
:1052400063FDFB1D1B781800BD4602B080BDC04643
:105250000020024090B583B000AF7860144B1C680A
:10526000144B1B781900FA239800FAF769FF030022
:1052700019002000FAF764FF0300180000F019FB82
:10528000031E01D001230FE07B68032B0BD8796844
:1052900001235B420022180000F0D6FA064B7A6820
:1052A0001A60002300E001231800BD4603B090BD42
:1052B00000000020080000200400002080B500AF9E
:1052C000054B1B781A00054B1B68D218034B1A605C
:1052D000C046BD4680BDC046080000204C040020EA
:1052E00080B500AF024B1B681800BD4680BDC046AC
:1052F0004C04002080B582B000AF78607B68002B42
:1053000001D1012359E17B685B6D002B0AD17B68D9
:1053100000229A657B685022002199547B6818000E
:10532000FFF706FD7B685B6D10221340102B05D044
:105330007B681B689B68042213400BD07B685B6D05
:1053400010221A437B685A657B68502200219954C9
:10535000012332E17B685B6D9A4A134002221A43B3
:105360007B685A657B681B689B6803221340012B8E
:1053700008D17B681B681B6801221340012B01D1F7
:10538000012300E00023002B49D17B685A68C02329
:105390001B069A420BD07B685A688023DB059A4231
:1053A00005D07B685A6880231B069A4211D17B681E
:1053B0001B681A697B681B68920092081A617B68F7
:1053C0001B6819697B685A687B681B680A431A6105
:1053D00014E07B681B681A697B681B68920092085E
:1053E0001A61794B1A68784B78490A401A60764BF3
:1053F00019687B685A68744B0A431A607B681B689B
:10540000DA687B681B6818218A43DA607B681B684E
:10541000D9687B689A687B681B680A43DA606A4BC4
:105420001A68694B6A490A401A60674B19687B68B9
:105430005B6B5A06644B0A431A607B681B689A6868
:1054400080235B05134008D17B681B689A687B68E2
:105450001B68802149050A439A607B681B68DA68EB
:105460007B681B685B490A40DA607B681B68D96807
:105470007B68DA687B681B69022B01D1042300E09A
:1054800000231A437B6820201B5C5B031A437B6864
:105490002C201B5C5B001A437B681B6B1A437B68E8
:1054A0009B699B031A437B68DB69DB031A437B68B8
:1054B0001B680A43DA607B685A6AC223FF339A4248
:1054C0000BD07B681B68D9687B685A6A7B689B6ACB
:1054D0001A437B681B680A43DA607B6821229B5C65
:1054E000012B1AD17B6820229B5C002B09D17B68A1
:1054F0001B68DA687B681B68802149020A43DA600E
:105500000BE07B685B6D20221A437B685A657B68E1
:105510009B6D01221A437B689A657B68DB6B012BCC
:105520001FD17B681B681A697B681B682A490A407F
:105530001A617B681B6819697B681A6C7B685B6CF5
:105540001A437B689B6C1A437B681B680A431A6189
:105550007B681B681A697B681B6801210A431A6112
:105560000EE07B681B681B6901221340012B07D1E9
:105570007B681B681A697B681B6801218A431A6172
:105580007B681B685A697B681B6807218A435A61DC
:105590007B681B6859697B689A6B7B681B680A4348
:1055A0005A617B6800229A657B685B6D0322934396
:1055B00001221A437B685A6500231800BD4602B0D9
:1055C00080BDC046FDFEFFFF08270140FFFFC3FF6F
:1055D000FFFFFFFD1902FEFF03FCFFFF80B582B055
:1055E00000AF786039607B6850229B5C012B01D151
:1055F000022350E07B685022012199547B681B688C
:105600009B68042213400BD07B685B6D20221A43F9
:105610007B685A657B6850220021995401233AE047
:105620003B685B681E4A934218D07B681B68996A86
:105630003B681B685B035A0B7B681B680A439A62D2
:105640003B681A6880239B0213401FD0154B1A68D1
:10565000144B8021C9030A431A6017E07B681B685A
:105660009A6A3B681B685B035B0BD9437B681B68CA
:105670000A409A623B681A6880239B02134005D057
:10568000084B1A68074B08490A401A607B68502289
:105690000021995400231800BD4602B080BDC046C9
:1056A0000110000008270140FFFFBFFF80B582B056
:1056B00000AF0200FB1D1A70FB1D1B787F2B09D861
:1056C000FB1D1B781A001F231A40044B0121914037
:1056D0000A001A60C046BD4602B080BD00E100E08D
:1056E00080B582B000AF0200FB1D1A70FB1D1B7855
:1056F0007F2B10D8FB1D1B781A001F23134008496D
:1057000001229A40130080228B50BFF34F8FC04676
:10571000BFF36F8FC046C046BD4602B080BDC046D5
:1057200000E100E090B583B000AF02003960FB1DDE
:105730001A70FB1D1B787F2B28D82F4AFB1D1B7866
:105740005BB29B08C0339B009B58FA1D1278110076
:1057500003220A40D200FF2191400A00D2431A409E
:1057600011003B689B01FF221A40FB1D1B781800AB
:1057700003230340DB009A401F48FB1D1B785BB2EC
:105780009B080A43C0339B001A5031E01B4AFB1DA3
:105790001B7819000F230B40083B9B0806339B0026
:1057A000D31804331B68FA1D1278110003220A4033
:1057B000D200FF2191400A00D2431A4011003B68F9
:1057C0009B01FF221A40FB1D1B7818000323034096
:1057D000DB009A400948FB1D1B781C000F23234067
:1057E000083B9B080A4306339B00C31804331A6026
:1057F000C046BD4603B090BD00E100E000ED00E012
:1058000080B582B000AF78607B685A1E80235B044D
:105810009A4201D3012310E00A4B7A68013A5A6098
:1058200001235B4203211800FFF77CFF054B002298
:105830009A60044B07221A6000231800BD4602B08C
:1058400080BDC04610E000E080B584B000AFB96014
:105850007A600F217B18021C1A70BA687B181B78BB
:105860005BB211001800FFF75DFFC046BD4604B0F3
:1058700080BD80B582B000AF0200FB1D1A70FB1D19
:105880001B785BB21800FFF711FFC046BD4602B09F
:1058900080BD80B582B000AF0200FB1D1A70FB1DF9
:1058A0001B785BB21800FFF71BFFC046BD4602B075
:1058B00080BD80B582B000AF78607B681800FFF7CC
:1058C0009FFF03001800BD4602B080BD80B584B0C4
:1058D00000AF78600F23FB1800221A707B68252226
:1058E0009B5CDBB2022B08D07B680422DA637B6806
:1058F000242200219954012324E07B681B681A6844
:105900007B681B680E218A431A607B681B681A68D3
:105910007B681B6801218A431A607B685B6C1C22D0
:105920001A407B681B6C012191400A005A607B6819
:105930002522012199547B682422002199540F23A8
:10594000FB181B781800BD4604B080BD80B584B03C
:1059500000AF78600F217B1800221A707B68252227
:105960009B5CDBB2022B06D07B680422DA637B18D7
:1059700001221A702AE07B681B681A687B681B6822
:105980000E218A431A607B681B681A687B681B6853
:1059900001218A431A607B685B6C1C221A407B6879
:1059A0001B6C012191400A005A607B68252201216D
:1059B00099547B682422002199547B689B6B002BAF
:1059C00004D07B689B6B7A68100098470F23FB1804
:1059D0001B781800BD4604B080BD000080B586B0BD
:1059E00000AF7860396000237B610023FB600023F7
:1059F0003B614FE13B681B6801217A6991400A00D5
:105A00001340FB60FB68002B00D140E13B685B6802
:105A100003221340012B05D03B685B68032213402F
:105A2000022B30D17B689B683B617B695B00032262
:105A30009A401300DA433B6913403B613B68DA68E4
:105A40007B695B009A4013003A6913433B617B68B2
:105A50003A699A607B685B683B6101227B699A4086
:105A60001300DA433B6913403B613B685B681B09E9
:105A700001221A407B699A4013003A6913433B6143
:105A80007B683A695A603B685B6803221340032BCA
:105A900017D07B68DB683B617B695B0003229A401F
:105AA0001300DA433B6913403B613B689A687B69AA
:105AB0005B009A4013003A6913433B617B683A6983
:105AC000DA603B685B6803221340022B23D17B69B9
:105AD000DA087B6808329200D3583B617B69072261
