:020000040000FA
:100000000C9447010C9464010C9464010C946401F9
:100010000C9464010C9464010C9464010C946401CC
:100020000C9464010C9464010C9464010C946401BC
:100030000C9464010C9473180C9464010C94640186
:100040000C9464010C9464010C9464010C9464019C
:100050000C94F40C0C9464010C9464010C946401F1
:100060000C9464010C9464010C9464010C9464017C
:100070000C9464010C9464010C9464010C9464016C
:100080000C9464010C9464010C9464010C9464015C
:100090000C9464010C9464010C9464010C9464014C
:1000A0000C9464010C9464010C9464010C9464013C
:1000B0000C9464010C9464010C9464010C9464012C
:1000C0000C9464010C9464010C9464010C9464011C
:1000D0000C9464010C9464010C9464010C9464010C
:1000E0000C9464010C9464010C9419290C94EB2871
:1000F0000C9464010C9464010C9464010C946401EC
:100100000C9464010C9464010C9464010C946401DB
:100110000C9464010C9464010C9464010C946401CB
:100120000C9464010C9464010C9464010C946401BB
:100130000C9464010C9464010C9464010C946401AB
:100140000C9464010C9464010C9464010C9464019B
:100150000C9464010C9464010C9464010C9464018B
:100160000C94102A0C94E2290C9464010C94BC2B7E
:100170000C948E2B0C9464010C9464010C94640117
:100180000C9464010C9464010C9464010C9464015B
:100190000C9464010C9464010C9464010C9464014B
:1001A0000C9464010C9464010C9464010C9464013B
:1001B0000C9464010C9464010C9464010C9464012B
:1001C0000C9464010C9464010C9464010C9464011B
:1001D0000C9464010C9464010C9464010C9464010B
:1001E0000C9464010C9464010C9464010C946401FB
:1001F0000C9464010C9464010C9464019032943268
:1002000098329C32A032A432A832AC32B032B4322E
:10021000B832B832B832B832B832B832B832B8328E
:10022000B832B832B832B832B832B832B832B8327E
:10023000B832B832B832B832B832B832B832B8326E
:10024000B832B832B832B832B832B832B832B8325E
:10025000B832B832B832B832B832B832B8324132C5
:10026000B8328D323A3259328A32B8328732B832A5
:10027000B832B832B8324732B832B8324D32B8320A
:10028000B83244324A32B8323E32B8325332112494
:100290001FBECFEFDFE2DEBFCDBF16E2A0E0B0E2CF
:1002A000E2EFF8E602C005900D92A630B107D9F74B
:1002B0002DE2A6E0B6E201C01D92A038B207E1F738
:1002C0000E94BE1C0C9477340C940000EF92FF92B5
:1002D0000F931F93CF93DF93CDB7DEB70E943E2AD3
:1002E0006894EE24E1F8F12C08E110E020E040E011
:1002F00060E480E696E00E94511610924226109229
:10030000432610924C2610924D26DF91CF911F91DB
:100310000F91FF90EF900895CF93DF93CDB7DEB7A5
:1003200002C00E94C3290E94782B8823D1F7DF9155
:10033000CF9108950F931F93CF93DF93CDB7DEB77F
:100340006397CDBFDEBF888B998B6A8B7B8B8A8945
:100350009B89813021E0920714F080E0A6C00E94C2
:10036000C22A81E0898390C08981082F10E08889A2
:100370009989FC012081888999890196888B998BBC
:10038000822F0E94E32A882F90E08023912321E08E
:10039000009709F420E0298384E19EEAA7E0BFE307
:1003A0008A839B83AC83BD832DEC3CEC4CE255E40B
:1003B0006A817B818C819D810E944433DC01CB0169
:1003C0008E839F83A887B98720E030E040E85FE311
:1003D0006E817F81888599850E94C33288232CF4A1
:1003E00081E090E08A879B8742C020E03FEF4FE7A3
:1003F00057E46E817F81888599850E944033181665
:1004000064F520E030E040E251E46A817B818C8138
:100410009D810E944433DC01CB01BC01CD010E94CF
:10042000C732DC01CB018A879B8712C084E191E04F
:100430008C879D878C859D858C01C8010197F1F77C
:100440008C010C871D878A859B8501978A879B87EE
:100450008A859B85009751F717C06E817F818885BB
:1004600099850E94C732DC01CB018A879B878A85E8
:100470009B858E879F878E859F858C01F80131979C
:10048000F1F78F010E871F8721E08A899B890097EA
:1004900009F420E08A899B8901978A8B9B8B222310
:1004A00009F062CF0E94972A89816396CDBFDEBF93
:1004B000DF91CF911F910F910895CF93DF93CDB727
:1004C000DEB71092AB261092AC26DF91CF91089543
:1004D000CF93DF9300D0CDB7DEB789839A83209185
:1004E000AB263091AC2641E089819A81821793072F
:1004F00008F040E0842F0F900F90DF91CF91089586
:10050000CF93DF93CDB7DEB70E94F6020E9421059C
:1005100080918B2690918C26DF91CF910895CF9377
:10052000DF93CDB7DEB72997CDBFDEBF8E839F8324
:10053000688779878091892690918A268C839D830C
:1005400000008C819D819C012B5F3F4F809189260B
:1005500090918A2682179307A0F382E08093AD26BC
:1005600083E08093AE268E819F818093AF26909307
:10057000B026888599858093B1269093B2268AE02B
:1005800090E20E94980D89838981882341F11A8223
:100590001B8220C089818823C1F080918926909197
:1005A0008A268C839D8300008C819D819C012B5F1A
:1005B0003F4F8091892690918A2682179307A0F356
:1005C0008AE090E20E94980D89838A819B8101963E
:1005D0008A839B838A819B8182309105DCF28981A9
:1005E0002996CDBFDEBFDF91CF910895CF93DF93E2
:1005F0001F92CDB7DEB7198261E070E080E090E035
:100600000E948F0289838981882311F0898152C0D9
:1006100080911B2790911C2780938D2690938E2686
:1006200080911B2790911C27009731F083E090E088
:1006300080938B2690938C2661E070E081E090E0BF
:100640000E948F0289838981882311F0898132C0B9
:1006500080911B2790911C2780938F269093902642
:100660006CE070E082E090E00E948F0289838981D3
:10067000882311F089811EC088E1EBE1F7E2A1E94E
:10068000B6E201900D928A95E1F761E070E087E1B2
:1006900090E00E948F0289838981882311F08981EB
:1006A00009C080911B2790911C278093A9269093C5
:1006B000AA2689810F90DF91CF910895CF93DF9380
:1006C0001F92CDB7DEB7198210928B2610928C261E
:1006D00061E070E080E090E00E948F028983898170
:1006E000882341F084E090E080938B2690938C26C1
:1006F000898157C080911B2790911C2780938D265C
:1007000090938E2680911B2790911C278130910514
:1007100031F483E090E080938B2690938C2661E007
:1007200070E081E090E00E948F02898389818823B4
:1007300071F080918B2690918C26009731F484E0A3
:1007400090E080938B2690938C2689812AC080919B
:100750001B2790911C2780938F26909390266CE006
:1007600070E082E090E00E948F0289838981882373
:1007700071F080918B2690918C26009731F484E063
:1007800090E080938B2690938C2689810AC088E123
:10079000EBE1F7E2A1E9B6E201900D928A95E1F76B
:1007A00089810F90DF91CF910895CF93DF93CDB7DB
:1007B000DEB72C97CDBFDEBF82E08D8389E08E83CC
:1007C0008AEA8F8385E588878AEA898785E58A872B
:1007D000CE010596BC0186E090E00E94D5128B8385
:1007E0009C838B818B878B819C81892F99278C8718
:1007F00019821A8218C00E945D02000084E690E00F
:100800000E9468028823D1F320910E2030910F209E
:10081000CE01059668E070E0F901099589819A8119
:10082000019689839A8389819A818A3091051CF384
:10083000FFCFCF93DF9300D000D0CDB7DEB78FEFDF
:100840009FEF89839A831B821C8220C08B819C81AD
:100850000396880F991F8557994DFC01208131819E
:1008600089819A812817390760F48B819C810396CE
:10087000880F991F8557994DFC018081918189834B
:100880009A838B819C8101968B839C838B819C8135
:100890008C309105DCF289819A81853AF6E09F07D8
:1008A00018F480E090E00DC089819A81813D27E0B5
:1008B000920718F481E090E004C089819A81805DFC
:1008C00097402496CDBFDEBFDF91CF910895AF92C0
:1008D000BF92CF92DF92EF92FF920F931F93CF932D
:1008E000DF93CDB7DEB72E97CDBFDEBF6B877C879A
:1008F0008D879E8782E999E0A0E0B0E08B839C839E
:10090000AD83BE838B859C85AD85BE858D3B22E006
:100910009207A105B1051CF084E690E084C08B85A8
:100920009C85AD85BE85BB231CF480E090E07BC038
:100930008B859C85AD85BE858F3541E09407A105EB
:10094000B105BCF12CEB32E040E050E08B859C859A
:10095000AD85BE85281B390B4A0B5B0B1CEBE12ECA
:1009600012E0F12E00E010E08B859C85AD85BE8500
:1009700057016801A81AB90ACA0ADB0AD601C501DB
:10098000BC01CD010E94CF33DC01CB012B813C8126
:100990004D815E81BC01CD010E94F333DA01C901B2
:1009A00024E630E06901C81AD90AC60189839A830E
:1009B0001AC02B853C854D855E858B859C85AD85D4
:1009C000BE85BC01CD010E94CF33DC01CB012B8160
:1009D0003C814D815E81BC01CD010E94F333DA017F
:1009E000C90189839A834B855C859A01A3E9B4E2A6
:1009F0000E941B349A01281B390B36952795820FCC
:100A0000931F96958795969587958F8398872981CB
:100A10003A818F819885820F931F96958795898754
:100A20009A8789859A852E96CDBFDEBFDF91CF91BB
:100A30001F910F91FF90EF90DF90CF90BF90AF90FC
:100A40000895CF93DF93CDB7DEB72797CDBFDEBF35
:100A500010926F26109270261092712610927226B4
:100A600064E176E287E196E20E94580A8A839B83DA
:100A70008A819B810097D9F580911726909118263D
:100A80008F369105A0F58091172690911826CC01FC
:100A9000A0E0B0E08093852690938626A0938726D9
:100AA000B09388268091142690911526CC01A0E061
:100AB000B0E080936F2690937026A0937126B09338
:100AC000722680916F2690917026A0917126B09128
:100AD0007226813727E19207A105B10540F01092F7
:100AE0006F2610927026109271261092722619822B
:100AF00006C08981833040F489818F5F89830E9499
:100B00005E038823B1F701C0000080918B2690918D
:100B10008C2684309105B9F486E990E0A0E0B0E03D
:100B20008093852690938626A0938726B093882667
:100B30008091852690918626A0918726B09188265F
:100B40000E942716D9C080916F2690917026A0919F
:100B50007126B09172260097A105B10509F46DC008
:100B60000E941904880F991F880F991F880F991FD9
:100B7000CC01A0E0B0E08C839D83AE83BF838C81E9
:100B80009D81AE81BF81813C28E09207A105B1051E
:100B9000F8F08C819D81AE81BF819C01AD01205C0C
:100BA00038404109510980916F2690917026A0919B
:100BB0007126B091722682179307A407B50740F4F7
:100BC00010926F2610927026109271261092722643
:100BD00080916F2690917026A0917126B091722617
:100BE0000097A105B10549F18C819D81AE81BF813E
:100BF000803B2EE09207A105B105F8F48C819D8120
:100C0000AE81BF819C01AD012054374F4F4F5F4FE4
:100C100080916F2690917026A0917126B0917226D6
:100C2000281739074A075B0740F410926F26109285
:100C30007026109271261092722680916F269091E4
:100C40007026A0917126B09172260097A105B1057A
:100C500089F08091852690918626A0918726B09173
:100C600088260E94271680918F26909190260E94B8
:100C70003C1642C00E941904880F991F880F991FC3
:100C8000880F991FCC01A0E0B0E080936F2690936D
:100C90007026A0937126B093722680916F26909152
:100CA0007026A0917126B0917226689412F8B695BC
:100CB000A795979587951694D1F7BC01CD010E9411
:100CC0006704CC01A0E0B0E080938526909386264F
:100CD000A0938726B09388268091852690918626BA
:100CE000A0918726B09188260E94271680918F2692
:100CF000909190260E943C162796CDBFDEBFDF91D3
:100D0000CF910895CF93DF93CDB7DEB7809185263D
:100D100090918626A0918726B091882686399105E4
:100D2000A105B10511F40E942105809189269091B9
:100D30008A26883E23E0920710F480E0BFC010921C
:100D4000892610928A260E945E0380918B269091BC
:100D50008C268330910511F481E0B0C080916F261C
:100D600090917026A0917126B09172260097A105EE
:100D7000B105A9F40E941904880F991F880F991FC3
:100D8000880F991FCC01A0E0B0E080936F2690936C
:100D90007026A0937126B093722680E08FC0809158
:100DA0008B2690918C268430910511F480E086C0CA
:100DB0000E941904880F991F880F991F880F991F87
:100DC0009C0140E050E080916F2690917026A091A8
:100DD0007126B091722682179307A407B50798F47D
:100DE00080916F2690917026A0917126B091722605
:100DF0000196A11DB11D80936F2690937026A0933C
:100E00007126B09372260E941904880F991F880FCB
:100E1000991F880F991F9C0140E050E080916F2638
:100E200090917026A0917126B091722628173907EB
:100E30004A075B0798F480916F2690917026A091E5
:100E40007126B09172260497A109B10980936F268B
:100E500090937026A0937126B093722680916F268E
:100E600090917026A0917126B0917226689412F824
:100E7000B695A795979587951694D1F7BC01CD01A6
:100E80000E946704CC01A0E0B0E080938526909397
:100E90008626A0938726B0938826809185269091F8
:100EA0008626A0918726B09188260E9427168091D9
:100EB0008F26909190260E943C1680E0DF91CF9182
:100EC0000895CF93DF93CDB7DEB7809189269091B7
:100ED0008A26883E23E0920708F47BC01092892678
:100EE00010928A260E945E030E941904CC01A0E0A1
:100EF000B0E080936F2690937026A0937126B093F4
:100F0000722680916F2690917026A0917126B091E3
:100F1000722683339105A105B10548F410926F261E
:100F20001092702610927126109272261FC0809126
:100F30006F2690917026A0917126B0917226C2976B
:100F4000A109B109880F991FAA1FBB1F880F991FFC
:100F5000AA1FBB1F880F991FAA1FBB1F80936F2654
:100F600090937026A0937126B093722680916F267D
:100F700090917026A0917126B0917226689412F813
:100F8000B695A795979587951694D1F727E030E009
:100F900040E050E0BC01CD010E94F333DA01C90109
:100FA0008093852690938626A0938726B0938826E3
:100FB0008091852690918626A0918726B0918826DB
:100FC0000E94271680918F26909190260E943C16B1
:100FD00001C00000DF91CF9108950F93CF93DF936D
:100FE000CDB7DEB72697CDBFDEBF8C839D836E83E2
:100FF0008FE390E0FC0180818B83F8948C819D814C
:1010000089839A838BE390E0FC01108289819A8125
:101010002E81FC0108ED04BF20838FE390E02B813B
:10102000FC0120832696CDBFDEBFDF91CF910F91CB
:101030000895CF93DF93CDB7DEB72597CDBFDEBF41
:1010400089839A836B834C835D8380E590E039814B
:101050002B81222311F020E201C020E0232B322F2C
:101060002C81232BFC0122832596CDBFDEBFDF918F
:10107000CF910895CF93DF9300D0CDB7DEB78A83A9
:1010800080E590E020E530E0F9012081322F2A81CF
:1010900020952323FC01208380E590E0FC019081D2
:1010A0008A818923898389810F900F90DF91CF9165
:1010B0000895CF93DF9300D01F92CDB7DEB78A8318
:1010C0009B8380E490E0FC018081982F987F8A8147
:1010D000892B8983698180E490E00E94ED0780E498
:1010E00090E0FC0190818A818923898389812396FC
:1010F000CDBFDEBFDF91CF9108951F93CF93DF93D4
:10110000CDB7DEB72597CDBFDEBF8D838AEC91E0EA
:1011100021E0FC0120838D81882F90E089839A83D0
:1011200089819A81FC0114911B838B818C838AECC9
:1011300091E0FC0110828C812596CDBFDEBFDF914E
:10114000CF911F910895CF93DF93CDB7DEB780EC99
:1011500091E020EC31E0F9012485277FFC01248710
:1011600010922026109221261092132610921F26EC
:1011700010921B2610921C2610921D2610921E26DD
:1011800010921626109217261092182610921426E6
:10119000109215260E94CF08DF91CF910895CF932A
:1011A000DF9300D01F92CDB7DEB782E296E28A834A
:1011B0009B8319820CC08981882F90E02A813B8112
:1011C000820F931FFC01108289818F5F898389813F
:1011D000803288F32396CDBFDEBFDF91CF91089593
:1011E000CF93DF93CDB7DEB780911B2690911C265D
:1011F000A0911D26B0911E269C014A2F20932226E5
:1012000030932326409324260196A11DB11D80937F
:101210001B2690931C26A0931D26B0931E2680911A
:1012200016268093252689E091E00E94F715809389
:1012300026269093272662E276E28EE190E00E94D5
:10124000D512809340269093412682E296E20E9436
:10125000850B80911F260E94BC0B80911F26982F22
:101260008F5F80931F26892F0E94FD0B0E94CF085D
:1012700080911F26803211F410921F2680911B2628
:1012800090911C26A0911D26B0911E268F3F2FEF16
:101290009207A207B10541F410921B2610921C265A
:1012A00010921D2610921E26DF91CF9108950F9364
:1012B0001F93CF93DF93CDB7DEB7AC97CDBFDEBF23
:1012C0008AA79BA76CA7CE010A96888799871F8259
:1012D00011C08F81882F90E0288539858901080FFA
:1012E000191F6F8180E00E942A0BF80180838F8193
:1012F0008F5F8F838F81833060F38A859B85AC8578
:10130000CC01AA2FB0E089839A83AB83BC83898107
:101310009A81AB81BC818F3FFFEF9F07AF07B1057B
:1013200081F48CA5882351F010921F2610921B2661
:1013300010921C2610921D2610921E2681E090E02D
:10134000AFC01D8281E08E833DC01F8211C08F819E
:10135000882F90E0288539858901080F191F6F8132
:101360008E810E942A0BF80180838F818F5F8F838B
:101370008F81833060F38A859B85AC859C014A2FE1
:1013800050E089819A81AB81BC81281739074A07CF
:101390005B07E0F08A859B85AC858F3FFFEF9F0759
:1013A000AF07A1F08A859B85AC85CC01AA2FB0E060
:1013B00089839A83AB83BC838D818F5F8D838E817C
:1013C0008F5F8E838E81803208F4BFCF1E8211C062
:1013D0008E81882F90E0288539858901080F191F93
:1013E0006E818D810E942A0BF80180838E818F5F30
:1013F0008E838E81803260F308A519A5CE010A96EE
:10140000BC018EE190E00E94D51208171907C9F5BA
:101410008CA5882349F189819A81AB81BC81019691
:10142000A11DB11D80931B2690931C26A0931D2601
:10143000B0931E2680911B2690911C26A0911D26FC
:10144000B0911E268F3FFFEF9F07AF07B10541F414
:1014500010921B2610921C2610921D2610921E26FA
:101460008D818F5F80931F268AA59BA520E2FE01B8
:101470003A96DC0101900D922A95E1F780E090E028
:101480000FC08CA5882351F010921F2610921B26A6
:1014900010921C2610921D2610921E2682E090E0CB
:1014A000AC96CDBFDEBFDF91CF911F910F91089514
:1014B000CF93DF93CDB7DEB7A797CDBFDEBF8CA3A9
:1014C0009DA36EA37FA380E2E2E2F6E2DE01149622
:1014D00001900D928A95E1F71A821B82809116265F
:1014E000898381E09981992309F480E09981915061
:1014F0009983882361F18981882F90E0880F991F53
:10150000880F991F9E012F5F3F4F820F931F0996EF
:10151000FC01208131818CA19DA1FC0120833183BC
:101520008981882F90E00296880F991F880F991F54
:101530009E012F5F3F4F820F931F0396FC01208176
:1015400031818EA19FA1FC01208331837BC0CE011C
:10155000049660E00E945709009709F065C019825F
:101560002CC08981882F90E0880F991F880F991FC0
:101570009E012F5F3F4F820F931F0996FC018081D0
:1015800091818F3FFFEF9F07A9F48981882F90E019
:101590000296880F991F880F991F9E012F5F3F4F5A
:1015A000820F931F0396FC01808191818F3FFFEF93
:1015B0009F0739F089818F5F89838981863088F21E
:1015C00001C0000089818823E9F1898181508983E4
:1015D0008981882F90E0880F991F880F991F9E019D
:1015E0002F5F3F4F820F931F0996FC0120813181AD
:1015F0008CA19DA1FC01208331838981882F90E0FB
:101600000296880F991F880F991F9E012F5F3F4FE9
:10161000820F931F0396FC01208131818EA19FA12F
:10162000FC01208331830EC081E090E08A839B839C
:101630008CA19DA1FC01108211828EA19FA1FC01B1
:10164000108211828A819B81A796CDBFDEBFDF9178
:10165000CF910895CF93DF9300D000D0CDB7DEB700
:101660008B836C830E94780B8B81882F90E0880F8E
:10167000991F82959295907F9827807F98279C014B
:101680008C81882F90E08F719927822B932B8983EF
:101690009A8380EC91E02981FC01208380EC91E029
:1016A00029813A81232F33272F71FC01218380EC7C
:1016B00091E0FC01128280EC91E026E0FC0122879F
:1016C000EF93FF930F932F93EBECF1E008ED21E004
:1016D00004BF20832F910F91FF91EF9180EC91E057
:1016E000FC0184812496CDBFDEBFDF91CF910895A8
:1016F000CF93DF93CDB7DEB780EC91E0FC01878517
:101700008823D4F3DF91CF910895CF93DF9300D056
:101710001F92CDB7DEB78A839B830E94780B80EC43
:1017200091E023E3FC01228780EC91E0FC0111822F
:1017300080EC91E0FC011282198215C080EC91E0EE
:101740002981FC01208380EC91E02A813B81F90111
:101750002081FC0124838A819B8101968A839B835B
:1017600089818F5F89838981803240F32396CDBF41
:10177000DEBFDF91CF910895CF93DF9300D01F920A
:10178000CDB7DEB78B830E94780B8B81882F90E0DA
:10179000880F991F82959295907F9827807F982730
:1017A00089839A8380EC91E02981FC01208380EC7D
:1017B00091E029813A81232F33272F71FC01218366
:1017C00080EC91E0FC01128280EC91E022E3FC01CC
:1017D0002287EF93FF930F932F93EBECF1E008ED4B
:1017E00021E004BF20832F910F91FF91EF91239669
:1017F000CDBFDEBFDF91CF910895CF93DF9300D0AF
:101800001F92CDB7DEB78B830E94780B8B81882F18
:1018100090E0880F991F82959295907F9827807FFE
:10182000982789839A8380EC91E02981FC012083A9
:1018300080EC91E029813A81232F33272F71FC011D
:10184000218380EC91E0FC01128280EC91E024E3A2
:10185000FC012287EF93FF930F932F93EBECF1E0C2
:1018600008ED21E004BF20832F910F91FF91EF91AC
:101870002396CDBFDEBFDF91CF910895CF93DF9345
:10188000CDB7DEB70E94780B80EC91E020E3FC013D
:101890002287EF93FF930F932F93EBECF1E008ED8A
:1018A00021E004BF20832F910F91FF91EF91DF91F1
:1018B000CF910895CF93DF93CDB7DEB780E896E060
:1018C00020E836E0F90120812260FC01208380E8D5
:1018D00096E020E836E0F90124812D7FFC01248385
:1018E00080E896E020E836E0F90120812160FC01E3
:1018F0002083DF91CF910895CF93DF93CDB7DEB7EB
:1019000080E896E020E836E0F90124812D7FFC0193
:10191000248380E896E020E836E0F90124812E7FD8
:10192000FC012483DF91CF910895CF93DF931F9221
:10193000CDB7DEB789838981882349F080E896E0B6
:1019400020E836E0F90124812160FC01248380E84D
:1019500096E020E836E0F90124812260FC0124832E
:101960000F90DF91CF910895CF93DF93CDB7DEB77E
:101970001092AB261092AC26DF91CF910895CF93B1
:10198000DF93CDB7DEB78091AB269091AC2621E0F6
:101990008F31910508F420E0822FDF91CF910895D7
:1019A000CF93DF93CDB7DEB780E498E02DEA30E047
:1019B000FC0126A337A362E070E080E498E00E9477
:1019C000A02565E070E080E498E00E94832580EA2D
:1019D00090E020EA30E0F90122812260FC012283BC
:1019E0007894DF91CF9108951F920F9200903F005D
:1019F0000F9211242F933F938F939F93AF93BF9395
:101A0000CF93DF93CDB7DEB78091AB269091AC2614
:101A100001968093AB269093AC2680918926909175
:101A20008A2601968093892690938A268091732630
:101A300090917426019680937326909374268091DA
:101A400011269091122601968093112690931226CA
:101A500080910C2690910D26019680930C269093F0
:101A60000D268091412790914227A0914327B09164
:101A700044270196A11DB11D8093412790934227D1
:101A8000A0934327B093442780913D2790913E2710
:101A9000019680933D2790933E2780910826909150
:101AA0000926A0910A26B0910B260196A11DB11D11
:101AB0008093082690930926A0930A26B0930B26BC
:101AC0008091202690912126019680932026909344
:101AD000212680910626909107260196809306265E
:101AE0009093072680914C2690914D2601968093E5
:101AF0004C2690934D2620913D2730913E27809192
:101B00001E2090911F208217930720F410923D27EA
:101B100010923E27DF91CF91BF91AF919F918F910E
:101B20003F912F910F9000923F000F901F901895BA
:101B3000CF93DF9300D000D0CDB7DEB78B839C83EB
:101B40008FEF9FEF89839A832091AD2689819A81B7
:101B5000622F0E941B1389839A838091AD26809304
:101B6000E6262091AE2689819A81622F0E941B135E
:101B700089839A838091AE268093E7268091AF2651
:101B80009091B026892F9927282F89819A81622FD9
:101B90000E941B1389839A838091AF269091B0266F
:101BA000282F89819A81622F0E941B1389839A832F
:101BB0008091AF269091B026892F99278093E826AF
:101BC0008091AF269091B0268093E9268091B1262E
:101BD0009091B2268131910510F084E042C080914D
:101BE000B1269091B226892F9927282F89819A8131
:101BF000622F0E941B1389839A838091B126909152
:101C0000B226282F89819A81622F0E941B13898313
:101C10009A838091B1269091B226892F992780933B
:101C2000EA268091B1269091B2268093EB26898195
:101C30009A818093B3269093B4268091B326909195
:101C4000B4268093EC268091B3269091B426892FF8
:101C500099278093ED268B819C81BC0188E00E94AE
:101C6000590F2496CDBFDEBFDF91CF910895CF935A
:101C7000DF93CDB7DEB72697CDBFDEBF8D839E83C2
:101C80008FEF9FEF89839A832091BD2689819A8166
:101C9000622F0E941B1389839A838091BD268093B3
:101CA000E6262091BE2689819A81622F0E941B130D
:101CB00089839A838091BE268093E7268091BF26F0
:101CC0009091C026892F9927282F89819A81622F88
:101CD0000E941B1389839A838091BF269091C0260E
:101CE000282F89819A81622F0E941B1389839A83EE
:101CF0008091BF269091C026892F99278093E8264E
:101D00008091BF269091C0268093E9268091C126BC
:101D10009091C2268131910510F084E0C4C0809179
:101D2000C1269091C226892F9927282F89819A81CF
:101D3000622F0E941B1389839A838091C126909100
:101D4000C226282F89819A81622F0E941B138983C2
:101D50009A838091C1269091C226892F99278093DA
:101D6000EA268091C1269091C2268093EB2620918D
:101D7000C32689819A81622F0E941B1389839A83CB
:101D80008091C3268093EC261B821C824FC08B81DE
:101D90009C81880F991F8C53994DFC018081918102
:101DA000892F9927282F89819A81622F0E941B13DE
:101DB00089839A838B819C81880F991F8C53994DBD
:101DC000FC0180819181282F89819A81622F0E9454
:101DD0001B1389839A838B819C81880F991F079697
:101DE0002B813C81220F331F2C53394DF901208167
:101DF0003181232F33278A51994DFC0120838B8118
:101E00009C810496880F991F2B813C81220F331FE0
:101E10002C53394DF901208131818A51994DFC01B2
:101E200020838B819C8101968B839C832B813C81B9
:101E30008091C1269091C2262817390708F4A7CFB0
:101E400089819A818093E4269093E5268091C1262A
:101E50009091C226880F991F07962091E426309111
:101E6000E5268A51994DFC0120838091C1269091ED
:101E7000C2260496880F991F2091E4263091E5260A
:101E8000232F33278A51994DFC0120838091C1264D
:101E90009091C226880F282F275F8D819E81BC01DB
:101EA000822F0E94590F2696CDBFDEBFDF91CF91C2
:101EB00008950F931F93CF93DF93CDB7DEB7C2552D
:101EC000D109CDBFDEBF9E01205B3F4FF90180836A
:101ED000CE018F5A9F4FFC01608371838FEF9FEF7C
:101EE00089839A831B828091E726833091F48091C5
:101EF000EA26882F90E0382F22278091EB26882F22
:101F000090E0820F931F880F991F05968C839D8305
:101F10000BC08091E726803129F488E090E08C8323
:101F20009D8302C084E038C3CE018F5A9F4FFC01CD
:101F300080819181FC0182819381009759F0CE01CB
:101F40008F5A9F4FFC0180819181FC018281938196
:101F5000FC010995CE018F5A9F4FFC018081918130
:101F6000FC0184819581009709F494C0CE018F5AB9
:101F70009F4FFC0180819181FC0124813581CE013C
:101F8000805B9F4FFC018081882F90E0BC0186EE32
:101F900096E2F901099580E090E0A0E0B0E48A8F34
:101FA0009B8FAC8FBD8F2DEC3CEC4CE255E46A8DE1
:101FB0007B8D8C8D9D8D0E944433DC01CB018E8FF7
:101FC0009F8FA8A3B9A320E030E040E85FE36E8DC7
:101FD0007F8D88A199A10E94C33288232CF481E0CF
:101FE00090E08AA39BA342C020E03FEF4FE757E475
:101FF0006E8D7F8D88A199A10E944033181664F5DB
:1020000020E030E040E251E46A8D7B8D8C8D9D8D27
:102010000E944433DC01CB01BC01CD010E94C732D8
:10202000DC01CB018AA39BA312C084E191E08CA3C5
:102030009DA38CA19DA18C01C8010197F1F78C0192
:102040000CA31DA38AA19BA101978AA39BA38AA18C
:102050009BA1009751F717C06E8D7F8D88A199A124
:102060000E94C732DC01CB018AA39BA38AA19BA15A
:102070008EA39FA38EA19FA18C01F8013197F1F748
:102080008F010EA31FA31E821F820E94B40C82E048
:102090008B8351C085E080C2CE018F5A9F4FFC01D7
:1020A00080819181FC01808591850097C1F1CE01ED
:1020B0008F5A9F4FFC0180819181FC018085918521
:1020C000FC010995882371F10E94B40CCE018F5A4E
:1020D0009F4FFC0180819181FC018681978100974F
:1020E000D9F0CE018F5A9F4FFC0180819181FC0174
:1020F00086819781FC010995482F9E01285D3F4FFD
:102100008E819F81820F931FFC0140838E819F816E
:1021100001968E839F8306C085E08B8311C085E086
:102120008B830EC02E813F818C819D8128173907BA
:1021300010F01B8205C00E94BF0C882309F4ACCFAD
:102140008B81823009F427C21E821F828091E7268C
:10215000833009F004C19E01285D3F4F8E819F812D
:10216000820F931FFC018081809318278E819F81AD
:1021700001968E839F832091182789819A81622FEF
:102180000E941B1389839A83909118278091AD2612
:10219000981711F086E000C29E01285D3F4F8E81A6
:1021A0009F81820F931FFC018081809319278E816C
:1021B0009F8101968E839F832091192789819A811F
:1021C000622F0E941B1389839A8390911927809113
:1021D000AE26981711F086E0DFC19E01285D3F4FC3
:1021E0008E819F81820F931FFC01808180931A272B
:1021F0008E819F8101968E839F8320911A278981EA
:102200009A81622F0E941B1389839A8380911A27D7
:10221000282F30E08091B1269091B226880F991F27
:102220002817390711F086E0B7C180911A2781324B
:1022300010F086E0B1C1188619864AC09E01285D5B
:102240003F4F8E819F81820F931FFC018081882FD9
:1022500090E08A879B878E819F8101968E839F83E2
:102260002A8589819A81622F0E941B1389839A8310
:102270009E01285D3F4F8E819F81820F931FFC013D
:102280008081882F90E08C879D878E819F81019629
:102290008E839F832C8589819A81622F0E941B13D4
:1022A00089839A838A859B85382F22278C859D85F3
:1022B000280F391F88859985880F991F855E984D4D
:1022C000FC012083318388859985019688879987C9
:1022D00080911A278695282F30E088859985821766
:1022E00093070CF4ABCF9E01285D3F4F8E819F81F9
:1022F000820F931FFC018081882F90E08E879F873B
:102300008E819F8101968E839F839E01285D3F4F22
:102310008E819F81820F931FFC018081882F90E026
:10232000888B998B8E819F8101968E839F8388896C
:102330009989382F22278E859F85820F931F80933E
:102340003B2790933C2720913B2730913C27898164
:102350009A812817390709F41EC181E01DC18091B7
:10236000E726803109F017C19E01285D3F4F8E811D
:102370009F81820F931FFC0180818093B5268E81FF
:102380009F8101968E839F832091B52689819A81B2
:10239000622F0E941B1389839A839091B5268091A6
:1023A000BD26981711F086E0F7C09E01285D3F4FCB
:1023B0008E819F81820F931FFC0180818093B626BE
:1023C0008E819F8101968E839F832091B62689817D
:1023D0009A81622F0E941B1389839A839091B6265B
:1023E0008091BE26981711F086E0D6C09E01285D28
:1023F0003F4F8E819F81820F931FFC018081882F28
:1024000090E08A8B9B8B8E819F8101968E839F8328
:102410002A8989819A81622F0E941B1389839A835A
:102420009E01285D3F4F8E819F81820F931FFC018B
:102430008081882F90E08C8B9D8B8E819F8101966F
:102440008E839F832C8989819A81622F0E941B131E
:1024500089839A838A899B89382F22278C899D8931
:10246000820F931F8093B7269093B8262091B726AA
:102470003091B8268091BF269091C0262817390741
:1024800011F086E089C09E01285D3F4F8E819F81BB
:10249000820F931FFC018081882F90E08A8B9B8B99
:1024A0008E819F8101968E839F832A8989819A815B
:1024B000622F0E941B1389839A839E01285D3F4FE0
:1024C0008E819F81820F931FFC018081882F90E075
:1024D0008C8B9D8B8E819F8101968E839F832C890F
:1024E00089819A81622F0E941B1389839A838A892A
:1024F0009B89382F22278C899D89820F931F809377
:10250000B9269093BA262091B9263091BA268091A7
:10251000C1269091C2262817390711F086E03CC0E9
:102520009E01285D3F4F8E819F81820F931FFC018A
:102530008081882F90E08E8B9F8B8E819F8101966A
:102540008E839F839E01285D3F4F8E819F81820FE6
:10255000931FFC018081882F90E0888F998F8E8156
:102560009F8101968E839F83888D998D382F222796
:102570008E899F89820F931F8093BB269093BC26E0
:102580002091BB263091BC2689819A812817390772
:1025900011F081E001C08B81CE5ADF4FCDBFDEBF8D
:1025A000DF91CF911F910F910895CF93DF93CDB716
:1025B000DEB72897CDBFDEBF8D839E836F8378877C
:1025C0008FEF9FEF89839A831B8225C08B81882F91
:1025D00090E02F813885820F931FFC0190818981C3
:1025E00089278C8389819A81892F992789839A8366
:1025F0008C81882F90E0880F991F885C9F4DFC018B
:102600008081918129813A818227932789839A83C6
:102610008B818F5F8B838B81282F30E08D819E8112
:102620002817390798F289819A812896CDBFDEBF95
:10263000DF91CF910895CF93DF9300D000D0CDB735
:10264000DEB78A839B836C839A818C8189278983F7
:102650008A819B81892F99278A839B838981882FEF
:1026600090E0880F991F885C9F4DFC0180819181CB
:102670002A813B81822793278A839B838A819B813E
:102680002496CDBFDEBFDF91CF910895CF93DF9326
:1026900000D000D0CDB7DEB789839A836B837C836B
:1026A00081E08093AD2683E08093AE2689819A8174
:1026B0008093AF269093B0268B819C818093B12626
:1026C0009093B22680E090E20E94980D2496CDBFB0
:1026D000DEBFDF91CF910895CF93DF93CDB7DEB703
:1026E0002897CDBFDEBF8B839C836D837E834F8312
:1026F000588781E08093BD2680E18093BE268B8140
:102700009C818093BF269093C0268D819E8180936B
:10271000C1269093C2268D81880F8093C32619828B
:102720001A8219C089819A81880F991F2F81388553
:10273000820F931FFC012081318189819A81880F4A
:10274000991F8C53994DFC012083318389819A8193
:10275000019689839A8329813A818091C12690913B
:10276000C22628173907F0F280E090E20E94370E67
:102770002896CDBFDEBFDF91CF910895CF93DF9331
:10278000CDB7DEB780912020909121209C0140E0C0
:1027900050E080913D2790913E27A0913F27B09136
:1027A0004027281739074A075B0710F481E001C06A
:1027B00080E0DF91CF910895CF93DF9300D0CDB724
:1027C000DEB789839A8389819A8180931E209093B2
:1027D0001F2089819A8196958795809320209093D8
:1027E00021200F900F90DF91CF910895CF93DF9329
:1027F000CDB7DEB761E070E08BE491E00E94461354
:1028000080911B2790911C27009741F0109241273F
:10281000109242271092432710924427809141271B
:1028200090914227A0914327B0914427813C27E211
:10283000920729E0A207B10510F081E001C080E015
:10284000DF91CF910895CF93DF93CDB7DEB710928C
:102850004127109242271092432710924427DF917C
:10286000CF910895CF93DF93CDB7DEB70E94CD14FB
:10287000DF91CF910895CF93DF931F92CDB7DEB74D
:10288000198261E070E081E091E00E944613898343
:1028900080911B2790911C27809375269093762614
:1028A0008981882311F0898174C061E070E08AE039
:1028B00091E00E944613898380911B2790911C27E9
:1028C00080937726909378268981882311F08981D7
:1028D00060C061E070E089E091E00E944613898366
:1028E00080911B2790911C278093792690937A26BC
:1028F0008981882311F089814CC061E070E085E016
:1029000091E00E944613898380911B2790911C2798
:1029100080937B2690937C268981882311F089817E
:1029200038C061E070E084E091E00E944613898342
:1029300080911B2790911C2780937D2690937E2663
:102940008981882311F0898124C061E070E089E4E5
:1029500090E00E944613898380911B2790911C2749
:1029600080937F26909380268981882311F0898126
:1029700010C061E070E08AEF91E00E944613898305
:1029800080911B2790911C2780938126909382260B
:1029900089810F90DF91CF910895CF93DF9300D07D
:1029A000CDB7DEB780E190E089839A830E943B1423
:1029B000882319F081E190E002C089819A810F900B
:1029C0000F90DF91CF910895CF93DF9300D01F92A6
:1029D000CDB7DEB78FEF9FE78A839B83CE01029648
:1029E000AC0161E070E08CEF91E00E946C13898390
:1029F00080E090E00E940B158091812690918226C4
:102A00000E940B150E94CD1489812396CDBFDEBF95
:102A1000DF91CF910895CF93DF93CDB7DEB72597A0
:102A2000CDBFDEBF8C839D838C819D818A839B83F8
:102A30001982CE010296AC0161E070E089E490E079
:102A40000E946C1389838981882311F0898118C0C1
:102A500061E070E089E490E00E94461389838981F7
:102A6000882311F089810CC020911B2730911C27ED
:102A70008A819B812817390711F083E08983898136
:102A80002596CDBFDEBFDF91CF910895CF93DF9321
:102A9000CDB7DEB72597CDBFDEBF8C839D838C81FC
:102AA0009D818A839B831982CE010296AC0161E0ED
:102AB00070E08AEF91E00E946C13898389818823FA
:102AC00011F0898118C061E070E08AEF91E00E9406
:102AD000461389838981882311F089810CC0209154
:102AE0001B2730911C278A819B812817390711F0F9
:102AF00083E0898389812596CDBFDEBFDF91CF91A9
:102B00000895CF93DF93CDB7DEB763E373E18DE92B
:102B100090E00E940D1663E373E18EE990E00E945D
:102B20000D1663E373E18FE990E00E940D1663E3F5
:102B300073E180EA90E00E940D1660E070E181EAA6
:102B400090E00E940D1666E67EE082EA90E00E9428
:102B50000D1666E67EE083EA90E00E940D1666E6BA
:102B60007EE084EA90E00E940D1684E090E00E94EE
:102B70004615DF91CF910895CF93DF93CDB7DEB7A0
:102B800063E373E18DE990E00E940D1663E373E166
:102B90008EE990E00E940D1663E373E18FE990E007
:102BA0000E940D1663E373E180EA90E00E940D1627
:102BB00060E070E181EA90E00E940D166BEE7DE02E
:102BC00082EA90E00E940D1660E07CE083EA90E0EB
:102BD0000E940D1663E37BE084EA90E00E940D16EC
:102BE00082E090E00E944615DF91CF910895CF9347
:102BF000DF9300D0CDB7DEB789839A8389819A812C
:102C000061E070E00E94461380911B2790911C2781
:102C10000F900F90DF91CF910895CF93DF9300D065
:102C200000D0CDB7DEB789839A836B837C839E0106
:102C30002D5F3F4F89819A81A90161E070E00E9478
:102C40006C132496CDBFDEBFDF91CF910895CF9353
:102C5000DF9300D0CDB7DEB789839A83CE0101968A
:102C6000AC0161E070E087EF91E00E946C130F907F
:102C70000F90DF91CF910895CF93DF9300D0CDB720
:102C8000DEB789839A83CE010196AC0161E070E0E2
:102C900088EF91E00E946C130F900F90DF91CF911D
:102CA0000895EF92FF920F931F93CF93DF93CDB7C9
:102CB000DEB72B97CDBFDEBF8B839C836D834E83A6
:102CC0002F8308871987EA86FB8698858A85982B43
:102CD0008E81882311F080E801C080E0982B8F81DD
:102CE000882311F080E401C080E0892B89838FE381
:102CF00090E0FC0180818A83F89480EB90E02D8144
:102D0000FC0120838B819C812981FC01208B8FE336
:102D100090E02A81FC0120832B96CDBFDEBFDF919E
:102D2000CF911F910F91FF90EF900895CF93DF9374
:102D3000CDB7DEB780EB90E023E0FC01208380E498
:102D400096E020E436E0F9012089277C2861FC0127
:102D5000208B2FEF40E450E060E874E085E497E2D8
:102D60000E94BD2580EA90E020EA30E0F90122814E
:102D70002160FC0122837894DF91CF9108950F9315
:102D80001F93CF93DF93CDB7DEB76297CDBFDEBF82
:102D90000E94961680E090E0A0EAB0E489839A83CE
:102DA000AB83BC832DEC3CEC4CE255E469817A8129
:102DB0008B819C810E944433DC01CB018D839E83F7
:102DC000AF83B88720E030E040E85FE36D817E812B
:102DD0008F8198850E94C33288232CF481E090E093
:102DE00089879A8742C020E03FEF4FE757E46D8123
:102DF0007E818F8198850E944033181664F520E00B
:102E000030E040E251E469817A818B819C810E94AB
:102E10004433DC01CB01BC01CD010E94C732DC018F
:102E2000CB0189879A8712C084E191E08B879C87C8
:102E30008B859C858C01C8010197F1F78C010B876C
:102E40001C8789859A85019789879A8789859A85BC
:102E5000009751F717C06D817E818F8198850E9400
:102E6000C732DC01CB0189879A8789859A858D874E
:102E70009E878D859E858C01C8010197F1F78C0195
:102E80000D871E878FEF8A8B8A89898B8989888B2A
:102E900080E18F87CE010F9624E0AC0160E285E4EB
:102EA00097E20E94F125000080915C278823E1F7DA
:102EB0008FE08F8780E3888BCE010F9622E0AC01F4
:102EC00060E285E497E20E94F125000080915C2792
:102ED0008823E1F78EE08F8780E8888BCE010F96FC
:102EE00022E0AC0160E285E497E20E94F125000057
:102EF00080915C278823E1F76296CDBFDEBFDF912A
:102F0000CF911F910F9108950F93CF93DF9300D02E
:102F100000D0CDB7DEB78C838C81863008F03EC000
:102F20008C81882F90E0880F991F8E5D9F4D01E066
:102F300021E0AC0160E285E497E20E9411260000E6
:102F400080915C278823E1F780915027282F8C817E
:102F5000882F90E0880F991F8D5D9F4DFC01808127
:102F600080958223886889838C81882F90E0880FE0
:102F7000991F8E5D9F4DFC0180818A8389818B839F
:102F8000CE01029622E0AC0160E285E497E20E9465
:102F9000F125000080915C278823E1F72496CDBFBE
:102FA000DEBFDF91CF910F910895CF93DF93CDB71F
:102FB000DEB72B97CDBFDEBF8B8783E08D8381E0AB
:102FC00090E089839A830FC09E01295F3F4F8981DA
:102FD0009A81820F931F28E8FC01208389819A81BE
:102FE000019689839A838D81882F90E09C012F5FC1
:102FF0003F4F89819A818217930734F38091222071
:103000008E838E818F838B858F738B871B821C822F
:103010004EC08B85882F90E00B8002C095958795D8
:103020000A94E2F7817099270097E1F58B819C81E2
:10303000880F991F8E5D9F4DFC018081282F30E005
:103040008E81882F90E0A901481B590BCA01019677
:103050002B813C81220F331F2E5D3F4DF9012081D2
:10306000422F50E02E81222F30E0BA01621B730BF9
:103070009B012F5F3F4FAE01495F5F4F240F351F0C
:10308000F90140812B813C81220F331F2D5D3F4D83
:10309000F9012081422B9E01295F3F4F820F931F30
:1030A000FC0140838B819C8101968B839C838B8167
:1030B0009C81863091050CF4ACCF8D81282F2F5F39
:1030C000CE010796AC0160E285E497E20E94F1250B
:1030D000000080915C278823E1F72B96CDBFDEBFEF
:1030E000DF91CF9108951F920F9200903F000F92B1
:1030F00011242F933F934F935F936F937F938F93FD
:103100009F93AF93BF93EF93FF93CF93DF93CDB78D
:10311000DEB785E497E20E94A226DF91CF91FF916E
:10312000EF91BF91AF919F918F917F916F915F913F
:103130004F913F912F910F9000923F000F901F9061
:103140001895CF93DF93CDB7DEB78FEF0E94D517D9
:10315000DF91CF910895CF93DF93CDB7DEB780E0B5
:103160000E94D517DF91CF910895EF92FF920F93B0
:103170001F93CF93DF93CDB7DEB780E696E020E4D0
:10318000FC012283E12CF12C08E110E020E040E07A
:1031900060E480E696E00E945116DF91CF911F9186
:1031A0000F91FF90EF900895CF93DF93CDB7DEB7E7
:1031B00080E696E0FC018085882F90E08074992756
:1031C00021E0009709F020E0822FDF91CF91089550
:1031D000CF93DF93CDB7DEB780E696E020E636E00A
:1031E000F90120812061FC012083DF91CF910895B6
:1031F000CF93DF93CDB7DEB780E696E020E636E0EA
:10320000F90124812061FC012483DF91CF9108958D
:10321000CF93DF93CDB7DEB780E696E020E636E0C9
:10322000F90124812F7EFC012483DF91CF91089541
:10323000EF92FF920F931F93CF93DF93CDB7DEB73B
:1032400080E696E020E2FC012283E12CF12C08E1EB
:1032500010E020E040E060E280E696E00E94511637
:10326000DF91CF911F910F91FF90EF900895CF9331
:10327000DF93CDB7DEB780E696E0FC018085882F2E
:1032800090E08072992721E0009709F420E0822FD6
:10329000DF91CF910895CF93DF93CDB7DEB780E272
:1032A00096E020E236E0F90120812260FC012083D3
:1032B00080E296E020E236E0F90124812D7FFC01D6
:1032C0002483DF91CF910895CF93DF93CDB7DEB7FD
:1032D00080E296E020E236E0F90124812260FC01E0
:1032E0002483DF91CF910895CF93DF93CDB7DEB7DD
:1032F00080E296E020E236E0F90124812D7FFC0196
:103300002483DF91CF910895CF93DF93CDB7DEB7BC
:10331000DF91CF910895CF93DF93CDB7DEB70E94B1
:103320004B190E94B5180E94E8180E9418190E94B3
:103330008419DF91CF910895CF93DF93CDB7DEB796
:1033400043E050E060E080E890E00E94190880E5EA
:1033500090E020E530E0F90120812860FC01208325
:1033600080E590E0FC018181882F90E088709927AA
:103370000097B1F383E090E00E94590882E00E9438
:103380003A08DF91CF9108950F931F93CF93DF9366
:10339000CDB7DEB7C654D109CDBFDEBF0E949C19A0
:1033A0000E945A0C0E948B190E94BF160E94B518E9
:1033B0000E94D418982F81E08927882309F4B0C28D
:1033C00080E00E94841780E090E0A0EFB1E4898360
:1033D0009A83AB83BC832DEC3CEC4CE255E46981D1
:1033E0007A818B819C810E944433DC01CB018D83E7
:1033F0009E83AF83B88720E030E040E85FE36D81D3
:103400007E818F8198850E94C33288232CF481E0CD
:1034100090E089879A8742C020E03FEF4FE757E46A
:103420006D817E818F8198850E944033181664F5E6
:1034300020E030E040E251E469817A818B819C8117
:103440000E944433DC01CB01BC01CD010E94C73294
:10345000DC01CB0189879A8712C084E191E08B87D8
:103460009C878B859C858C01C8010197F1F78C01A5
:103470000B871C8789859A85019789879A87898513
:103480009A85009751F717C06D817E818F8198854D
:103490000E94C732DC01CB0189879A8789859A858A
:1034A0008D879E878D859E858C01F8013197F1F778
:1034B0008F010D871E8781E00E94841780E090E0D5
:1034C000A0EFB1E48F87988BA98BBA8B2DEC3CECE5
:1034D0004CE255E46F85788989899A890E94443342
:1034E000DC01CB018B8B9C8BAD8BBE8B20E030E065
:1034F00040E85FE36B897C898D899E890E94C33295
:1035000088232CF481E090E08F8B988F42C020E0DC
:103510003FEF4FE757E46B897C898D899E890E9434
:103520004033181664F520E030E040E251E46F8546
:10353000788989899A890E944433DC01CB01BC01D6
:10354000CD010E94C732DC01CB018F8B988F12C056
:1035500084E191E0898F9A8F898D9A8D8C01C801C1
:103560000197F1F78C01098F1A8F8F89988D019738
:103570008F8B988F8F89988D009751F717C06B8923
:103580007C898D899E890E94C732DC01CB018F8B9B
:10359000988F8F89988D8B8F9C8F8B8D9C8D8C01B4
:1035A000F8013197F1F78F010B8F1C8F82E00E9499
:1035B000841780E090E0A0EFB1E48D8F9E8FAF8FF5
:1035C000B8A32DEC3CEC4CE255E46D8D7E8D8F8DD7
:1035D00098A10E944433DC01CB0189A39AA3ABA339
:1035E000BCA320E030E040E85FE369A17AA18BA1B1
:1035F0009CA10E94C33288232CF481E090E08DA32B
:103600009EA342C020E03FEF4FE757E469A17AA1B3
:103610008BA19CA10E944033181664F520E030E095
:1036200040E251E46D8D7E8D8F8D98A10E944433D0
:10363000DC01CB01BC01CD010E94C732DC01CB0112
:103640008DA39EA312C084E191E08FA398A78FA1C0
:1036500098A58C01C8010197F1F78C010FA318A759
:103660008DA19EA101978DA39EA38DA19EA10097E0
:1036700051F717C069A17AA18BA19CA10E94C73202
:10368000DC01CB018DA39EA38DA19EA189A79AA742
:1036900089A59AA58C01F8013197F1F78F0109A747
:1036A0001AA783E00E94841780E090E0A0EFB1E4C5
:1036B0008BA79CA7ADA7BEA72DEC3CEC4CE255E434
:1036C0006BA57CA58DA59EA50E944433DC01CB0192
:1036D0008FA798ABA9ABBAAB20E030E040E85FE33E
:1036E0006FA578A989A99AA90E94C33288232CF4CE
:1036F00081E090E08BAB9CAB42C020E03FEF4FE716
:1037000057E46FA578A989A99AA90E944033181691
:1037100064F520E030E040E251E46BA57CA58DA586
:103720009EA50E944433DC01CB01BC01CD010E9467
:10373000C732DC01CB018BAB9CAB12C084E191E0C2
:103740008DAB9EAB8DA99EA98C01C8010197F1F7A5
:103750008C010DAB1EAB8BA99CA901978BAB9CABCD
:103760008BA99CA9009751F717C06FA578A989A9C3
:103770009AA90E94C732DC01CB018BAB9CAB8BA911
:103780009CA98FAB98AF8FA998AD8C01F8013197A8
:10379000F1F78F010FAB18AF84E00E94841780E02F
:1037A00090E0A0EFB1E489AF9AAFABAFBCAF2DEC26
:1037B0003CEC4CE255E469AD7AAD8BAD9CAD0E941A
:1037C0004433DC01CB019E01235C3F4FF901808330
:1037D0009183A283B38320E030E040E85FE3CE0131
:1037E000CD96FC0160817181828193810E94C332F8
:1037F00088234CF4CE018F5B9F4F21E030E0FC0129
:10380000208331836AC020E03FEF4FE757E4CE01C9
:10381000CD96FC0160817181828193810E94403349
:1038200018160CF049C020E030E040E251E469ADE8
:103830007AAD8BAD9CAD0E944433DC01CB018E018F
:103840000F5B1F4FBC01CD010E94C732DC01CB01D1
:10385000F8018083918327C0CE018D5B9F4F24E1C7
:1038600031E0FC0120833183CE018D5B9F4FFC0151
:10387000808191818C01C8010197F1F78C01CE0103
:103880008D5B9F4FFC0100831183CE018F5B9F4FA7
:103890009E012F5B3F4FF901208131812150310979
:1038A000FC0120833183CE018F5B9F4FFC0180811F
:1038B0009181009789F62EC08E010F5B1F4FCE01BC
:1038C000CD96FC0160817181828193810E94C73213
:1038D000DC01CB01F80180839183CE018B5B9F4F8C
:1038E0009E012F5B3F4FF90120813181FC01208334
:1038F0003183CE018B5B9F4FFC01808191818C01D4
:10390000C8010197F1F78C01CE018B5B9F4FFC0141
:103910000083118385E00E9484178FEF0E94950C2D
:103920008091002090910120FC01099580910A204E
:1039300090910B20FC0109950E94D00C0E9432143A
:103940000E94BC150E94A30861E082E296E20E94F8
:1039500057090E94CF080E9480020E94BA238CEA75
:103960009DE08093732690937426CA5BDF4FCDBF92
:10397000DEBFDF91CF911F910F910895CF93DF9319
:10398000CDB7DEB72697CDBFDEBF0E94C4190E9417
:10399000D418882311F00E94CF1E0E947419198236
:1039A0001A8212C00E94C92D882349F089E00E9422
:1039B000D5170E94132E85E090E089839A83898130
:1039C0009A81019689839A8389819A8185309105AC
:1039D0004CF38EE591E080937F269093802682E0E1
:1039E00090E080938126909382260E94BC150E94CD
:1039F000A1188FEF0E94950C01C000000E94D418FE
:103A0000882311F00E94CF1E0E9474190E9437195A
:103A1000882311F00E94BC218091112690911226DA
:103A2000893823E19207F0F01092112610921226A5
:103A30000E94C92D8823B1F00E947C0C89E00E946D
:103A4000D51780E090E00E9446150E94132E0E9438
:103A5000A1188FEF0E94950C80918126909182266B
:103A60000E9446150E94E4248D839E838D819E8151
:103A70008130910571F08130910530F082309105EF
:103A800069F41B821C8211C082E090E08B839C83CE
:103A90000CC084E090E08B839C8307C080918126DA
:103AA000909182268B839C83000080910E26882330
:103AB00011F01B821C8220918126309182268B81FD
:103AC0009C8128173907F1F00E9423148B819C8177
:103AD0008230910551F08430910551F0009759F4EE
:103AE0008B819C810E94461507C00E94BC1504C0B2
:103AF0000E94811501C000008B819C8180938126EA
:103B0000909382260E948206882311F00E94671EED
:103B100080917326909174268938E3E19E0790F096
:103B2000109273261092742680910E26882351F4E9
:103B30008091852690918626A0918726B09188262F
:103B40000E94592580910E26882349F08091852670
:103B500090918626A0918726B091882611C08091E9
:103B6000852690918626A0918726B09188268091FF
:103B70008B2690918C268330910511F40E94671E4C
:103B80008091202690912126803DF7E09F0708F440
:103B90003FC0109220261092212680911626482F91
:103BA00050E08091852690918626A0918726B0913D
:103BB00088269C01CA01880F991F880F991F885D6C
:103BC000994DFC012083318360911626462F50E0E9
:103BD00080916F2690917026A0917126B0917226E7
:103BE0009C01CA010296880F991F880F991F8E5D4C
:103BF000994DFC0120833183862F8F5F8093162699
:103C000080911626863021F40E94F0081092162624
:103C10008091062690910726883EF3E09F0790F05A
:103C2000109206261092072682E091E00E94F71576
:103C3000009731F48BE291E00E94F715009711F0A4
:103C40000E94E4140E94F613882309F4D6CE0E9441
:103C50007C0C0E94AB181092202610922126809195
:103C60001626482F50E08091852690918626A091B7
:103C70008726B09188269C01CA01880F991F880F5A
:103C8000991F885D994DFC01208331836091162630
:103C9000462F50E080916F2690917026A09171265A
:103CA000B09172269C01CA010296880F991F880F55
:103CB000991F8E5D994DFC0120833183862F8F5F84
:103CC000809316260E94F0080E94D50396CECF93CB
:103CD000DF93CDB7DEB781E080930E2680E090E0E1
:103CE0000E945925109281261092822680E090E051
:103CF0000E944615DF91CF910895CF93DF93CDB702
:103D0000DEB710920E26DF91CF910895CF93DF9307
:103D1000CDB7DEB70E94A11801C000000E94D418E0
:103D2000982F81E089278823C1F30000DF91CF918C
:103D30000895CF93DF9300D0CDB7DEB78A830E947A
:103D4000BE1389839A818981981729F080910F2663
:103D50008F5F80930F2620910F268BEA289F812D5D
:103D60001124982F96959695892F880F890F880F83
:103D7000922F981B90930F2680910F26282F30E0CA
:103D800081E090E002C0880F991F2A95E2F70E9417
:103D9000D51789810F900F90DF91CF910895EF9201
:103DA000FF920F931F93CF93DF93CDB7DEB7A59705
:103DB000CDBFDEBF80E090E00E9446150E94D4187F
:103DC000882309F4CEC20E9464190E945E031982FE
:103DD0001A821B821C821D821E821EC08D819E81C2
:103DE0000396880F991F8557994DFC018081918119
:103DF000CC01A0E0B0E029813A814B815C81820F47
:103E0000931FA41FB51F89839A83AB83BC838D81C5
:103E10009E8101968D839E838D819E818C3091053C
:103E2000ECF281E090E08F8398871986B8C01A86FB
:103E30001B861C861D860E945E031E861F861EC072
:103E40008E859F850396880F991F8557994DFC0194
:103E500080819181CC01A0E0B0E02A853B854C8532
:103E60005D85820F931FA41FB51F8A879B87AC8730
:103E7000BD878E859F8501968E879F878E859F85BE
:103E80008C309105ECF289819A81AB81BC819C01D7
:103E9000AD012E5C3F4F4F4F5F4F8A859B85AC85B0
:103EA000BD85281739074A075B0720F489858F5F8E
:103EB000898701C019868985853610F01F8218868A
:103EC0008F819885883EF3E09F0709F068C0188AC3
:103ED0000E94231450C00E945E031A861B861C8613
:103EE0001D86198A1A8A1EC089899A890396880FA5
:103EF000991F8557994DFC0180819181CC01A0E0EB
:103F0000B0E02A853B854C855D85820F931FA41FF9
:103F1000B51F8A879B87AC87BD8789899A89019657
:103F2000898B9A8B89899A898C309105ECF28981E9
:103F30009A81AB81BC819C01AD012C593F4F4F4F01
:103F40005F4F8A859B85AC85BD85281739074A0751
:103F50005B0720F489858F5F898701C01986898571
:103F6000853618F081E0888B0BC00E94F6138823F9
:103F700011F00E94D5030E94D418882309F0ABCF1A
:103F80008889882319F01F82188617C0809181269E
:103F9000909182260E9446150E947419E3C121E087
:103FA0008F819885009709F420E08F81988501968C
:103FB0008F839887222309F03ACF0E947C0C0E94BD
:103FC0007D1E0E945E030E9421050E9419048B8BB6
:103FD0009C8B8B899C89009721F481E090E08B8BEE
:103FE0009C8B0E94BE138D8B1E8A1F8A36C18D89C1
:103FF0000E94991E8D8B61E070E080E090E00E944D
:104000008F02882361F08F898F5F8F8B8F898F3F1D
:1040100009F08AC00E9474190E94861EA3C11F8ADB
:104020000E9461078D890E94991E8D8B8091852643
:1040300090918626A0918726B09188268639910591
:10404000A105B10509F46CC00E9419049C018B897B
:104050009C898217930728F48B899C8901968B8B06
:104060009C8B0E9419049C018B899C8901972817BD
:10407000390720F48E898F5F8E8B01C01E8A8E894E
:10408000853610F00E94D503809185269091862672
:10409000A0918726B09188260E9459258091852677
:1040A00090918626A0918726B09188268536910525
:1040B000A105B10560F084E690E0A0E0B0E0809357
:1040C000852690938626A0938726B0938826809194
:1040D000852690918626A0918726B091882624E691
:1040E00030E040E050E079018A01E81AF90A0A0B51
:1040F0001B0BD801C7012AE030E040E050E0BC01D2
:10410000CD010E94F333DA01C9019C0144E6429FCC
:10411000C001439F900D1124885A9D4F0E94DC13CB
:104120008D890E94991E8D8B809120269091212649
:10413000803D07E0900708F43FC0109220261092BF
:10414000212680911626482F50E080918526909157
:104150008626A0918726B09188269C01CA01880FE7
:10416000991F880F991F885D994DFC012083318329
:1041700060911626462F50E080916F269091702610
:10418000A0917126B09172269C01CA010296880FF7
:10419000991F880F991F8E5D994DFC0120833183F3
:1041A000862F8F5F8093162680911626863021F405
:1041B0000E94F008109216268091062690910726FC
:1041C000883EF3E09F0790F0109206261092072693
:1041D00082E091E00E94F715009731F48BE291E0C4
:1041E0000E94F715009711F00E94E41480910826B0
:1041F00090910926A0910A26B0910B26883E03E0F3
:104200009007A105B10560F01092082610920926CA
:1042100010920A2610920B268D890E94991E8D8B72
:104220008091112690911226893813E1910788F028
:1042300010921126109212260E94C92D882329F06F
:1042400089E00E94D5170E94132E8D890E94991E25
:104250008D8B8D890E94991E8D8B0E94D418882386
:1042600009F0C5CE0E9474190E94AB1880E090E05E
:10427000AAE7B4E4888F998FAA8FBB8F2DEC3CEC12
:104280004CE255E4688D798D8A8D9B8D0E94443374
:10429000DC01CB018C8F9D8FAE8FBF8F20E030E093
:1042A00040E85FE36C8D7D8D8E8D9F8D0E94C332C3
:1042B00088232CF481E090E088A399A342C020E0F9
:1042C0003FEF4FE757E46C8D7D8D8E8D9F8D0E9463
:1042D0004033181664F520E030E040E251E4688D88
:1042E000798D8A8D9B8D0E944433DC01CB01BC010A
:1042F000CD010E94C732DC01CB0188A399A312C073
:1043000084E191E08AA39BA38AA19BA18C01C801AF
:104310000197F1F78C010AA31BA388A199A101972A
:1043200088A399A388A199A1009751F717C06C8D14
:104330007D8D8E8D9F8D0E94C732DC01CB0188A3BD
:1043400099A388A199A18CA39DA38CA19DA18C0167
:10435000F8013197F1F78F010CA31DA30E94D5033B
:1043600001C00000A596CDBFDEBFDF91CF911F91A8
:104370000F91FF90EF900895CF93DF93CDB7DEB705
:104380002597CDBFDEBF10920C2610920D2680918E
:104390001F26898380911B2690911C26A0911D26A3
:1043A000B0911E268A839B83AC83BD831092202606
:1043B0001092212680911626482F50E08091852664
:1043C00090918626A0918726B09188269C01CA01EB
:1043D000880F991F880F991F885D994DFC012083D4
:1043E000318360911626462F50E080916F26909180
:1043F0007026A0917126B09172269C01CA01029686
:10440000880F991F880F991F8E5D994DFC0120839D
:104410003183862F8F5F809316260E94F00813C089
:1044200080910C2690910D26883EF3E09F0710F0B6
:104430000E94D5030E94BE13882319F00E94081918
:1044400002C00E94F8180E943719882349F70E9479
:104450000819898180931F268091162681508093A8
:1044600016268A819B81AC81BD8180931B26909307
:104470001C26A0931D26B0931E262596CDBFDEBF19
:10448000DF91CF910895CF93DF93CDB7DEB70E9430
:1044900047290E945A22DF91CF910895CF93DF934D
:1044A000CDB7DEB780E696E022E0FC012583DF9100
:1044B000CF910895CF93DF93CDB7DEB780E696E036
:1044C00022E0FC012683DF91CF910895CF93DF9303
:1044D000CDB7DEB702C00E94C3290E94B829882345
:1044E000D1F7DF91CF9108950F931F93CF93DF936F
:1044F000CDB7DEB7A397CDBFDEBF88A399A36AA3CC
:104500007BA38AA19BA1813021E0920714F080E077
:1045100029C181E089830E944E221A821B8293C0A6
:104520008981082F10E08A819B8128A139A1820FFF
:10453000931FFC0180810E94A629882F90E0802390
:10454000912321E0009709F420E029838CEB94E784
:10455000A3E1BCE38C839D83AE83BF832DEC3CEC55
:104560004CE255E46C817D818E819F810E944433B1
:10457000DC01CB0188879987AA87BB8720E030E0E0
:1045800040E85FE3688579858A859B850E94C33210
:1045900088232CF481E090E08C879D8742C020E046
:1045A0003FEF4FE757E4688579858A859B850E94B0
:1045B0004033181664F520E030E040E251E46C81AD
:1045C0007D818E819F810E944433DC01CB01BC013F
:1045D000CD010E94C732DC01CB018C879D8712C0C0
:1045E00084E191E08E879F878E859F858C01C8012D
:1045F0000197F1F78C010E871F878C859D850197A8
:104600008C879D878C859D85009751F717C068859D
:1046100079858A859B850E94C732DC01CB018C8716
:104620009D878C859D85888B998B888999898C013C
:10463000F8013197F1F78F01088B198B8A819B81E3
:1046400001968A839B832A813B818AA19BA128179B
:1046500039070CF465CF88E79BE20E94372D0000F4
:104660000E94CE29982F81E089278823C9F78AE9FB
:1046700099E9A9E1BEE38A8B9B8BAC8BBD8B2DECBA
:104680003CEC4CE255E46A897B898C899D890E94C7
:104690004433DC01CB018E8B9F8BA88FB98F20E038
:1046A00030E040E85FE36E897F89888D998D0E94B4
:1046B000C33288232CF481E090E08A8F9B8F42C024
:1046C00020E03FEF4FE757E46E897F89888D998D11
:1046D0000E944033181664F520E030E040E251E4D7
:1046E0006A897B898C899D890E944433DC01CB01D6
:1046F000BC01CD010E94C732DC01CB018A8F9B8FA8
:1047000012C084E191E08C8F9D8F8C8D9D8D8C01EA
:10471000C8010197F1F78C010C8F1D8F8A8D9B8D3D
:1047200001978A8F9B8F8A8D9B8D009751F717C0B9
:104730006E897F89888D998D0E94C732DC01CB01FB
:104740008A8F9B8F8A8D9B8D8E8F9F8F8E8D9F8D55
:104750008C01F8013197F1F78F010E8F1F8F0E94A6
:104760005A228981A396CDBFDEBFDF91CF911F91E1
:104770000F910895CF93DF93CDB7DEB70E947C24CD
:10478000882331F082E090E080935E2790935F274A
:1047900080915E2790915F27DF91CF910895CF930D
:1047A000DF93CDB7DEB72797CDBFDEBF8C839D8368
:1047B0006E837F8383E08093AD2683E08093AE2673
:1047C0008C819D818093AF269093B0268E819F81AE
:1047D0008093B1269093B2268AE090E20E94980DD1
:1047E000898389818823A9F01A821B820DC089815F
:1047F000882329F08AE090E20E94980D89838A81BB
:104800009B8101968A839B838A819B81823091055B
:1048100074F389812796CDBFDEBFDF91CF910895D4
:10482000CF93DF93CDB7DEB72B97CDBFDEBF8E839F
:104830009F83688779874A875B8783E08093BD265B
:1048400080E18093BE268E819F818093BF269093C6
:10485000C026888599858093C1269093C226888535
:10486000880F8093C32619821A8219C089819A8180
:10487000880F991F2A853B85820F931FFC01208199
:10488000318189819A81880F991F8C53994DFC0140
:104890002083318389819A81019689839A83298132
:1048A0003A818091C1269091C22628173907F0F2EB
:1048B0008AE090E20E94370E8B838B818823A9F0D7
:1048C0001C821D820DC08B81882329F08AE090E232
:1048D0000E94370E8B838C819D8101968C839D83F2
:1048E0008C819D818230910574F38B812B96CDBF95
:1048F000DEBFDF91CF910895CF93DF931F92CDB7A5
:10490000DEB765E070E080E090E00E94CF2389830D
:104910008981882341F580911B2790911C278093E2
:104920005E2790935F2780911D2790911E2780938B
:1049300060279093612780911F2790912027809373
:10494000622790936327809121279091222780935B
:104950006427909365278091232790912427809343
:1049600066279093672789810F90DF91CF910895F3
:10497000CF93DF931F92CDB7DEB763E070E080E0A6
:1049800090E00E94CF23898389818823C1F480919C
:104990001B2790911C2780935E2790935F2780911F
:1049A0001D2790911E278093602790936127809107
:1049B0001F279091202780936227909363278981F6
:1049C0000F90DF91CF910895CF93DF93CDB7DEB7EE
:1049D0000E94B824882331F082E090E080935E2723
:1049E00090935F2780915E2790915F27009731F029
:1049F00084E090E080936027909361278091602706
:104A000090916127DF91CF910895CF93DF9300D0EC
:104A10001F92CDB7DEB78A839B838A819B819F7368
:104A20008A839B83CE010296AC0161E070E082E054
:104A300090E00E94102489838981882311F0898164
:104A400018C061E070E082E090E00E94CF2389838B
:104A50008981882311F089810CC020911B27309116
:104A60001C278A819B812817390711F083E08983ED
:104A700089812396CDBFDEBFDF91CF910895CF937B
:104A8000DF931F92CDB7DEB789838981853610F019
:104A90008EE00BC08981882F90E0049627E030E0FB
:104AA000B9010E94DF339B01C9010F90DF91CF91C3
:104AB0000895CF93DF93CDB7DEB72597CDBFDEBF87
:104AC0008C839D838C810E943F25898389818F30CF
:104AD00010F08EE089838981282F30E081E090E01A
:104AE00002C0880F991F2A95E2F701978A839B835A
:104AF0008A819B810E94052580E02596CDBFDEBF7F
:104B0000DF91CF910895CF93DF9300D000D0CDB740
:104B1000DEB789839A836B837C8389819A81FC01C8
:104B20008081982F907F8B81292F282B89819A81D2
:104B3000FC0120832496CDBFDEBFDF91CF91089585
:104B4000CF93DF9300D000D0CDB7DEB789839A83AF
:104B50006B837C8389819A81FC018681982F9C7F5D
:104B60008B81292F282B89819A81FC012683249609
:104B7000CDBFDEBFDF91CF910895CF93DF93CDB747
:104B8000DEB72797CDBFDEBF89839A836B837C8393
:104B90004D835E832F8389819A812B813C81FC0127
:104BA0002083318389819A81FC01808191812D81CB
:104BB0002863FC01218389819A81FC018081918194
:104BC0002F81FC01258389819A81FC01808191815B
:104BD00021E0FC0124832796CDBFDEBFDF91CF917A
:104BE00008950F93CF93DF93CDB7DEB72797CDBF4F
:104BF000DEBF8A839B836C834D835E832F834D81CD
:104C00005E818A819B8100E02F816C810E94112648
:104C1000898389812796CDBFDEBFDF91CF910F9128
:104C200008950F93CF93DF93CDB7DEB72A97CDBF0B
:104C3000DEBF8C839D836E834F83588729870A87C5
:104C40008985893010F080E076C08A85893010F03F
:104C500080E071C08C819D81FC018789882309F0E7
:104C600069C08C819D8121E0FC01278B8C819D8115
:104C7000FC01108E8E81282F220F8C819D81FC01DA
:104C80002283198216C08981882F90E02981222FE2
:104C900030E04F815885240F351FF90140812C8168
:104CA0003D81820F931F0396FC01408389818F5FB2
:104CB000898399818985981730F38C819D81298515
:104CC000FC01238B8C819D812A85FC01248B8C81A6
:104CD0009D81FC01158A8C819D81FC01168A8C8145
:104CE0009D81FC018389882379F08C819D81FC0161
:104CF00082818E7F8A838C819D81FC01808191815C
:104D00002A81FC01268314C08C819D81FC01848949
:104D1000882371F08C819D81FC01828181608B836D
:104D20008C819D81FC01808191812B81FC012683F6
:104D300081E001C080E02A96CDBFDEBFDF91CF9138
:104D40000F910895CF93DF9300D01F92CDB7DEB7B8
:104D50008A839B838A819B81FC0180819181FC01F4
:104D6000848189838981882F90E0887099270097B2
:104D700039F48981882F90E084709927009729F071
:104D80008A819B810E94E42619C08981882F90E046
:104D900080749927009729F08A819B810E941927A6
:104DA0000DC0898188232CF48A819B810E949C27D5
:104DB00005C08A819B8166E00E9400282396CDBFB2
:104DC000DEBFDF91CF910895CF93DF9300D01F9284
:104DD000CDB7DEB78A839B838A819B81FC0180816A
:104DE0009181FC01848189838981882F90E084707E
:104DF0009927009731F08A819B8124E0FC01208F64
:104E000005C08A819B8123E0FC01208F8A819B81E0
:104E1000FC018081918129812860FC0124838A81A1
:104E20009B81FC01178A2396CDBFDEBFDF91CF9116
:104E30000895CF93DF93CDB7DEB72697CDBFDEBF02
:104E40008D839E838D819E81FC01838989838D81E1
:104E50009E81FC0184898A838D819E81FC018081F1
:104E60009181FC018481882F90E0807199270097BF
:104E700091F08D819E81FC018081918123E0FC0174
:104E800023838D819E8125E0FC01208F8D819E8171
:104E9000FC01178A4BC08D819E81FC019589898117
:104EA000981708F58D819E81FC018589882F90E0F7
:104EB0002D813E81820F931F0396FC0180818B839D
:104EC0008D819E81FC01808191812B81FC01278352
:104ED0008D819E81FC018589282F2F5F8D819E8188
:104EE000FC01258B23C08D819E81FC0196898A81DE
:104EF000981778F48D819E81FC01828181608C837A
:104F00008D819E81FC01808191812C81FC01268311
:104F10000DC08D819E81FC018081918123E0FC0187
:104F200023838D819E8161E00E9400282696CDBF5B
:104F3000DEBFDF91CF910895CF93DF9300D000D0F3
:104F4000CDB7DEB78B839C838B819C81FC018689E6
:104F5000883008F58B819C81FC0180819181FC0166
:104F6000878189838B819C81FC018689882F90E0D1
:104F70002B813C81820F931F0B962981FC0120839A
:104F80008B819C81FC018689282F2F5F8B819C81DE
:104F9000FC01268B0DC08B819C81FC01808191815D
:104FA00023E0FC0123838B819C8162E00E94002826
:104FB0008B819C81FC0184898A838B819C81FC018B
:104FC00096898A81981748F48B819C81FC018081A5
:104FD000918122E0FC0123830DC08B819C81FC0127
:104FE0008081918127E0FC0123838B819C8161E09A
:104FF0000E9400282496CDBFDEBFDF91CF91089597
:10500000CF93DF9300D01F92CDB7DEB789839A8309
:105010006B8389819A812B81FC01208F89819A8100
:10502000FC01178A2396CDBFDEBFDF91CF91089593
:10503000CF93DF93CDB7DEB780E896E028E0FC01A0
:10504000218380E896E024E0FC01228341E050E0E7
:1050500060EA7AE080E799E20E94EA2B8091702969
:105060009091712923E0FC01258380917029909112
:1050700071292091702930917129F90123812F7CA8
:105080002061FC01238380EA9AE025E0FC0126836D
:1050900080EA9AE0FC011782809170299091712931
:1050A0002091702930917129F90124812061FC013E
:1050B00024838091702990917129209170293091D9
:1050C0007129F90124812860FC01248380EA90E0A1
:1050D00020EA30E0F90122812160FC0122837894EA
:1050E000DF91CF910895CF93DF93CDB7DEB702C0A4
:1050F0000E94E0280E94D5288823D1F7DF91CF9124
:105100000895CF93DF9300D0CDB7DEB78A836A814D
:1051100080E799E20E94462C898380E799E20E9409
:10512000372D89810F900F90DF91CF9108950F93C4
:105130001F93CF93DF93CDB7DEB72597CDBFDEBFEB
:105140008A839B836C837D8381E0898318C08981F6
:10515000082F10E08A819B81FC0120818A819B813C
:1051600001968A839B83822F0E948128882F90E05A
:105170008023912321E0009709F420E0298321E096
:105180008C819D81009709F420E08C819D8101979D
:105190008C839D832223D9F689812596CDBFDEBFDE
:1051A000DF91CF911F910F910895CF93DF93CDB7EA
:1051B000DEB780E799E20E94992CDF91CF910895A4
:1051C000CF93DF93CDB7DEB780E799E20E94BB2C87
:1051D000DF91CF9108951F920F9200903F000F92A0
:1051E00011242F933F934F935F936F937F938F93EC
:1051F0009F93AF93BF93EF93FF93CF93DF93CDB77D
:10520000DEB780E799E20E94372DDF91CF91FF91C1
:10521000EF91BF91AF919F918F917F916F915F912E
:105220004F913F912F910F9000923F000F901F9050
:1052300018951F920F9200903F000F9211242F9308
:105240003F934F935F936F937F938F939F93AF930E
:10525000BF93EF93FF93CF93DF93CDB7DEB780E794
:1052600099E20E94ED2CDF91CF91FF91EF91BF91D8
:10527000AF919F918F917F916F915F914F913F91EE
:105280002F910F9000923F000F901F901895CF9391
:10529000DF93CDB7DEB780E696E028E0FC012183FE
:1052A00080E696E024E0FC01228380E696E022E09E
:1052B000FC01218341E050E060EA79E088E79BE26D
:1052C0000E94EA2B8091782B9091792B23E0FC01AE
:1052D00025838091782B9091792B2091782B309198
:1052E000792BF90123812F7C2061FC01238380EA43
:1052F00099E025E0FC01268380EA99E0FC01178211
:105300008091782B9091792B2091782B3091792B6B
:10531000F90124812061FC0124838091782B9091F4
:10532000792B2091782B3091792BF90124812860F9
:10533000FC01248380EA90E020EA30E0F901228138
:105340002160FC012283DF91CF910895CF93DF93F9
:1053500000D0CDB7DEB78A836A8188E79BE20E94DE
:10536000462C898389810F900F90DF91CF9108950A
:10537000CF93DF93CDB7DEB788E79BE20E94992CED
:10538000DF91CF910895CF93DF93CDB7DEB788E754
:105390009BE20E94BB2CDF91CF910895CF93DF93C6
:1053A000CDB7DEB780EA99E0FC018181882F90E0DB
:1053B0008072992721E0009709F420E0822FDF9185
:1053C000CF9108951F920F9200903F000F921124E9
:1053D0002F933F934F935F936F937F938F939F93FD
:1053E000AF93BF93EF93FF93CF93DF93CDB7DEB728
:1053F00088E79BE20E94372DDF91CF91FF91EF91DB
:10540000BF91AF919F918F917F916F915F914F91DC
:105410003F912F910F9000923F000F901F90189591
:105420001F920F9200903F000F9211242F933F93F1
:105430004F935F936F937F938F939F93AF93BF939C
:10544000EF93FF93CF93DF93CDB7DEB788E79BE26F
:105450000E94ED2CDF91CF91FF91EF91BF91AF9121
:105460009F918F917F916F915F914F913F912F917C
:105470000F9000923F000F901F901895EF92FF92AF
:105480000F931F93CF93DF93CDB7DEB780E696E0FF
:1054900020E8FC01218380E696E020E8FC012583DA
:1054A00080E696E020E4FC012283E12CF12C08E167
:1054B00010E020E040E060E480E696E00E945116B3
:1054C00041E050E060EB79E088E697E20E94EA2B49
:1054D000809168279091692723E0FC0125838091C2
:1054E0006827909169272091682730916927F901F1
:1054F00023812F7C2061FC01238380EB99E023E250
:10550000FC01268380EB99E0FC01178280EA90E0A1
:1055100020EA30E0F90122812160FC0122837894A5
:10552000DF91CF911F910F91FF90EF900895CF934E
:10553000DF93CDB7DEB780916827909169272091DE
:10554000682730916927F9012481277FFC01248392
:105550008091682790916927209168273091692769
:10556000F90124812061FC01248380E696E020E893
:10557000FC01218380E696E020E8FC012583DF9191
:10558000CF910895CF93DF93CDB7DEB78091682791
:10559000909169272091682730916927F90124812A
:1055A0002F7EFC01248380916827909169272091A8
:1055B000682730916927F90124812860FC01248340
:1055C000DF91CF9108950F931F93CF93DF93CDB7C2
:1055D000DEB76097CDBFDEBF888B688988E697E22B
:1055E0000E94462C898388E697E20E94372D84E149
:1055F0009EEAA7E0BFE38A839B83AC83BD832DEC47
:105600003CEC4CE255E46A817B818C819D810E9457
:105610004433DC01CB018E839F83A887B98720E0C8
:1056200030E040E85FE36E817F81888599850E9444
:10563000C33288232CF481E090E08A879B8742C0A4
:1056400020E03FEF4FE757E46E817F8188859985A1
:105650000E944033181664F520E030E040E251E447
:105660006A817B818C819D810E944433DC01CB0166
:10567000BC01CD010E94C732DC01CB018A879B8728
:1056800012C084E191E08C879D878C859D858C017B
:10569000C8010197F1F78C010C871D878A859B85CE
:1056A00001978A879B878A859B85009751F717C04A
:1056B0006E817F81888599850E94C732DC01CB018C
:1056C0008A879B878A859B858E879F878E859F8506
:1056D0008C01C8010197F1F78C010E871F87898122
:1056E0006096CDBFDEBFDF91CF911F910F910895DE
:1056F000CF93DF93CDB7DEB788E697E20E94992C6F
:10570000DF91CF910895CF93DF93CDB7DEB788E6D1
:1057100097E20E94BB2CDF91CF9108951F920F92C8
:1057200000903F000F9211242F933F934F935F936C
:105730006F937F938F939F93AF93BF93EF93FF9359
:10574000CF93DF93CDB7DEB788E697E20E94372D7F
:10575000DF91CF91FF91EF91BF91AF919F918F9189
:105760007F916F915F914F913F912F910F90009298
:105770003F000F901F9018951F920F9200903F00CE
:105780000F9211242F933F934F935F936F937F93C7
:105790008F939F93AF93BF93EF93FF93CF93DF9339
:1057A000CDB7DEB788E697E20E94ED2CDF91CF916E
:1057B000FF91EF91BF91AF919F918F917F916F91E9
:1057C0005F914F913F912F910F9000923F000F906A
:1057D0001F901895CF93DF93CDB7DEB72697CDBF37
:1057E000DEBF89839A836B837C834D835E8389814B
:1057F0009A812B813C81FC012083318389819A81AC
:105800002D813E81FC012283338389819A818B5FC4
:105810009D4FFC01108289819A818C5F9D4FFC0114
:10582000108289819A81895F9D4FFC011082898154
:105830009A818A5F9D4FFC0110822696CDBFDEBF04
:10584000DF91CF910895CF93DF9300D000D0CDB7F3
:10585000DEB78B839C838B819C818A5F9D4FFC018B
:1058600080818F5F89838B819C81895F9D4FFC0143
:1058700080818A8381E029819A81291709F480E057
:105880002496CDBFDEBFDF91CF910895CF93DF93F4
:10589000CDB7DEB72897CDBFDEBF8E839F836887E5
:1058A0008E819F81049689839A838E819F810E9435
:1058B000232C8B838B818823A9F189819A818E5F28
:1058C0009D4FFC0180818C838C81882F90E0298101
:1058D0003A81820F931F93952885FC0120838C8148
:1058E000282F2F5F89819A818E5F9D4FFC01208335
:1058F0008E819F81FC0180819181FC0183818D8358
:105900008D81282F2C7F8E819F81FC018281938144
:10591000822B8D838E819F81FC01808191812D81DD
:10592000FC0123838B812896CDBFDEBFDF91CF9111
:105930000895CF93DF9300D000D0CDB7DEB78B832F
:105940009C838B819C818C5F9D4FFC01808189832E
:105950008B819C818B5F9D4FFC0180818A8381E0DC
:1059600029819A81291709F480E02496CDBFDEBFF2
:10597000DF91CF910895CF93DF93CDB7DEB7259711
:10598000CDBFDEBF8C839D838C819D8104968983EE
:105990009A8389819A818F5F9D4FFC018081882F36
:1059A00090E029813A81820F931FFC0180818B83D3
:1059B00089819A818F5F9D4FFC018081282F2F5F05
:1059C00089819A818F5F9D4FFC0120838B81259671
:1059D000CDBFDEBFDF91CF910895CF93DF93CDB7D9
:1059E000DEB72897CDBFDEBF8F8398878F819885DC
:1059F00004968A839B838A819B819E5FFC018081C0
:105A00008F5F8C838A819B818F5F9D4FFC0180819A
:105A10008D838F819885FC0180819181FC0180813B
:105A20008E839C818D81981711F4198219C081E0B1
:105A300089838F8198858C5F9D4FFC018081882FA1
:105A400090E02F813885820F931F04962E81FC01F0
:105A500020838F8198858C5F9D4F2C81FC01208352
:105A600089812896CDBFDEBFDF91CF910895CF9376
:105A7000DF93CDB7DEB72797CDBFDEBF8E839F8381
:105A80008E819F81049689839A838E819F81895F0D
:105A90009D4FFC0180818B8389819A818E5F9D4F10
:105AA000FC0190818B819817A1F48E819F81FC016C
:105AB00080819181FC0183818C838C818C7F8C839C
:105AC0008E819F81FC01808191812C81FC01238347
:105AD00026C08E819F81895F9D4FFC018081882F28
