:020000040001F9
:10600000C8300020F56001000F610100116101003E
:106010000000000000000000000000000000000080
:1060200000000000000000000000000013610100FB
:106030000000000000000000156101001761010070
:106040001961010019610100696301001961010012
:1060500019610100000000001961010019610100CF
:106060001961010039630100196101001961010022
:106070001961010019610100196101001961010034
:106080001961010019610100196101001961010024
:106090001961010019610100196101001961010014
:1060A00019610100196101000000000000000000FA
:1060B00000000000000000000000000000000000E0
:1060C0000348854600F032F800480047D5660100D5
:1060D000C8300020401E00BF00BF00BF00BF00BF8F
:1060E00000BF00BF00BF00BF00BF00BF00BFF1D1B5
:1060F000704700000321094802680A43026008480B
:1061000002680A4302600748804707480047FEE7E5
:10611000FEE7FEE7FEE7FEE7FEE70000240500409D
:106120005405004001630100C1600100064C0125D7
:10613000064E05E0E36807CC2B430C3C984710342F
:10614000B442F7D3FFF7C0FF306F0100506F01007A
:10615000F0B505460E460024064F06E0315D384690
:1061600000F09EF90746601CC4B2AC42F6D3384634
:10617000F0BD0000FFFF000010B53D48007800288A
:1061800004D001282AD002286FD156E0002404E070
:10619000611CC8B200F0F8FD641C0E2CF8DB002472
:1061A00012E00120A04033490968884300280AD042
:1061B0000120A040304909688843002803D1611CB0
:1061C000C8B200F0F1FD641C0E2CEADB00F0D2FD39
:1061D00001202749087000F05DFD47E0FF20913065
:1061E00000F0E8F8002800D140E0002404E0611C41
:1061F000C8B200F0D9FD641C0E2CF8DB002412E0BC
:106200000120A0401B490968084000280AD001204D
:10621000A040194909680840002803D1611CC8B290
:1062200000F0B2FD641C0E2CEADB00F0A8FD022099
:106230000F49087000F02EFD00BFFF20913000F0E4
:10624000B9F8002800D111E0002404E0611CC8B2B4
:1062500000F0AAFD641C0E2CF8DB03200449087032
:10626000044800680449086000BF00BF00BF10BDBB
:106270004C280020442800204828002001480068BD
:10628000704700004428002070B504460025002C0B
:1062900002D0012C14D109E0122000F055FC002896
:1062A00001D1012000E0002005460AE0112000F0A5
:1062B0004BFC002801D1012000E00020054600BF72
:1062C00000BF00BF284670BD10B50321122000F0AA
:1062D00017FC0321112000F013FC10BD8004800C7A
:1062E00005490968884200D17047034908600021C8
:1062F000024A117000BFF7E7442800204C28002014
:1063000010B500F0B1F9002805D0074807494860EA
:10631000C8130749886100F08BF9002802D00120DA
:106320000449886010BD0000DFFF07C00005004081
:10633000006C0040000600400848006800280CD0AF
:1063400007480068401C0649086006480068401C71
:1063500004490860002001490860704740910040EE
:10636000042800200828002010B500F097FD0446FE
:10637000204600F06BF810BD30B47446641E2578DA
:10638000641CAB4204D3635D5B00E31830BC184768
:106390001D46F8E702E008C8121F08C1002AFAD11A
:1063A00070477047002001E001C1121F002AFBD195
:1063B00070470000014604480068884201D9012066
:1063C00070470020FCE7000004280020002002495C
:1063D00008700249087070474E2800204D280020A0
:1063E00001460E4800780E4A1278904201D10020F2
:1063F00070470A4802780078401C084B187009481A
:10640000805C08701A461078C217120F1218121109
:106410001201821A1A700120EAE700004E280020BB
:106420004D28002068280020064800781030064AD1
:106430001278811AC817000F401800110001081ABD
:10644000C0B270474D2800204E2800200146114A56
:106450001278501CC217120F121812111201821A50
:106460000D4B1B789A4201D10020704709480278F1
:106470000078401C074B1870084881541A46107861
:10648000C217120F121812111201821A1A7001206B
:10649000EBE700004D2800204E280020682800204F
:1064A00003464B401846002209E0C307DB0F002BD0
:1064B00003D04008034B584000E04008521C082A13
:1064C000F3DB704701A0000010B5182000F022FB9C
:1064D000182000F043FB00240AE0A1000D4A5058A8
:1064E00000F018FBA1000B4A505800F037FB641C69
:1064F0000E2CF2DB084809490860094908600320AE
:106500000849087000F020F800F012FC00F0E4FBED
:1065100010BD00000C280020FF3F00004428002090
:10652000482800204C28002010B500F03FF8172024
:1065300003210522120707231B02D2188300D15022
:1065400000BF00F0F9FA10BD012013494860002097
:1065500012494860022088600420086101200E4929
:10656000C8607D20C0000D49403108600120000452
:106570000B49486001200B4908600920002805DB11
:10658000C206D20E01219140074A116000BF0120CE
:1065900001490860704700000090004000950040ED
:1065A000009300400092004000E100E010B5FFF7CA
:1065B0000DFF15200321020707231B02D2188300B9
:1065C000D15000BF162000218A0005231B07072495
:1065D00024021B1984001A5100BF15200E49C860FF
:1065E000162048610D4848620420086001200C49CB
:1065F0008860086000200B49886004200A494860D0
:106600000220002805DBC206D20E01219140074A74
:10661000116000BF10BD00000025004000E0D70160
:1066200000200040002100400023004000E100E085
:106630000C48008CC0B2012812D10A48808C000797
:10664000000F00280CD10748806AF021084040283C
:1066500006D10448C06A0840002801D101207047D3
:106660000020FCE7C00F00F01948008CC0B20128E0
:106670002CD11748808C0007000F002826D1144821
:10668000806AF0210840002806D11148C06A0840FD
:10669000002801D1012070470D48806AF021084090
:1066A000102806D10A48C06A0840002801D10120FC
:1066B000F1E70748806AF0210840302806D10448F5
:1066C000C06A0840002801D10120E4E70020E2E789
:1066D000C00F00F0FFF7F8FEFFF7F6FDFFF724FF0D
:1066E00000200549087006E000BF00F007F8002808
:1066F000FBD1FFF741FDF7E700280020F0B58DB092
:106700000025F948007800280CD00520F7490968D1
:10671000814201D9012100E00021002902D000209E
:10672000F14908700CA9022000F0C8FB0446002CB7
:1067300001D10DB0F0BD00BF0020EC49086000BFE2
:10674000E9480078002806D0012817D0022839D05F
:10675000032872D1CBE008A8007C03280CD10120CB
:10676000E149087008A8007CE149087008A8007C8D
:10677000E04908700120DCE70020DAE708A8007C87
:1067800003280BD10220D849087008A8007CD949F9
:1067900048700020D64908700120CAE708A8007C8C
:1067A00010280BD10320D049087008A8007CD049DC
:1067B00048700020CF4908700120BAE700F05CFA69
:1067C0000020B6E703222846691CCDB201A90A546D
:1067D0002846691CCDB201A90A5408A8007C000211
:1067E000C449488008A8027C2846691CCDB201A98A
:1067F0000A540CA9052000F061FB0446002C03D1CB
:1068000000F03AFA002094E7BA48418808A8007CD2
:106810000818B849488008A8027C2846691CCDB2EF
:1068200001A90A540CA9052000F048FB0446002CDD
:1068300004D100F021FA00207BE75DE108A8007C8C
:106840000002AC49888008A8027C2846691CCDB2A9
:1068500001A90A540CA9052000F030FB0446002CC5
:1068600003D100F009FA002063E7A248818808A854
:10687000007C08189F49888008A8027C2846691C6B
:10688000CDB201A90A540CA9052000F017FB04465B
:10689000002C03D100F0F0F900204AE708A8007CA2
:1068A0009449C8800CA9052000F008FB0446002C80
:1068B00003D100F0E1F900203BE78E48C08808A929
:1068C000097C090240188B49C88001A92846FFF7B6
:1068D0003FFC87B28748C088B84203D000F0CCF9AB
:1068E000002026E700F042F900F0C6F905E1032296
:1068F0002846691CCDB201A90A5410222846691CF9
:10690000CDB201A90A5408A8007C00027849488049
:1069100008A8027C2846691CCDB201A90A540CA91A
:10692000052000F0CBFA0446002C03D100F0A4F9B6
:106930000020FEE66E48418808A8007C08186C49D3
:10694000488008A8027C2846691CCDB201A90A54D7
:106950000CA9052000F0B2FA0446002C03D100F087
:106960008BF90020E5E608A8007C000260498880D9
:1069700008A8027C2846691CCDB201A90A540CA9BA
:10698000052000F09BFA0446002C03D100F074F9B6
:106990000020CEE65648818808A8007C0818544993
:1069A000888008A8027C2846691CCDB201A90A5437
:1069B0004F488088102803DD00F05EF90020B8E61B
:1069C0000CA9052000F07AFA0446002C03D100F04F
:1069D00053F90020ADE608A8007C4549887108A855
:1069E000027C2846691CCDB201A90A54404880792E
:1069F0003F4989884900884203D000F03DF90020D2
:106A000097E6002637E00CA9052000F057FA044667
:106A1000002C03D100F030F900208AE608A8007CA1
:106A20000102720032480830815208A8027C2846D0
:106A3000691CCDB201A90A540CA9052000F03EFA48
:106A40000446002C03D100F017F9002071E6710014
:106A500027480830415A08A8007C081881B2720003
:106A600023480830815208A8027C2846691CCDB210
:106A700001A90A54761C1E488088B042C3DC0CA9C8
:106A8000052000F01BFA0446002C03D100F0F4F8B6
:106A900000204EE608A8007C154908850CA90520B1
:106AA00000F00CFA0446002C03D100F0E5F80020B9
:106AB0003FE60F48008D08A9097C090240180C49DF
:106AC000088501A92846FFF743FB87B20848008DD7
:106AD000B84203D000F0D0F800202AE600F0B6F863
:106AE00000F0CAF809E00000602800200828002013
:106AF000782800205828002000BF00BF002018E69A
:106B000010B58A0005231B07072424021B198400E3
:106B10001A5110BD03210522120707231B02D218A8
:106B20008300D1507047000001218140014AD160AB
:106B3000704700000005005001218140014AD160EA
:106B40007047000000050050014603480069C84036
:106B5000C007C00F704700000005005001218140B0
:106B6000014A9160704700000005005030B589B0BF
:106B700032488588002440880300FFF7FDFB0504A8
:106B80001033404B56002E4802782046641C4000CB
:106B900001A90A526D1E002D00D148E000BF00205F
:106BA000610001AA5052FFF76FFB012807D1600076
:106BB00001A9085A01210843610001AA505201208D
:106BC000FFF762FB012807D1600001A9085A0221E2
:106BD0000843610001AA5052641C6D1E002D00D1B3
:106BE00025E000BFFFF74AFB82B22046641C40004C
:106BF00001A90A526D1E002D00D118E000BF114AF4
:106C00002046641C400001A90A526D1E002D00D1CF
:106C10000DE000BF0C4A2046641C400001A90A5246
:106C20006D1E002D00D102E000BF09B030BD00BFD5
:106C3000E0B201A900F0C8F800BFF6E7582800202C
:106C400000280020010200002F23000010B5094891
:106C5000408802280BD1074800898404A40C2046F0
:106C6000FFF73CFB0121022000F0EAF800E000BF42
:106C700000BF10BD78280020002003490870034998
:106C800008700349087070476028002078280020A9
:106C9000582800200020014908607047042800207F
:106CA00010B51720FFF748FF10BD00001720012185
:106CB0008140024A916000BF70470000000500500B
:106CC00070B504460D46FFF7F1FF2946204600F057
:106CD00021F9FFF7E5FF70BD10B5FFF7DBFF00F00E
:106CE0004EF8002405E0A1000E4A5058FFF71CFFA3
:106CF000641C0E2CF7DB00E000BFFF209130FFF793
:106D000059FB0028F8D0002405E0A100054A50589E
:106D1000FFF724FF641C0E2CF7DB034803490860CF
:106D200010BD00000C280020FF3F00004828002074
:106D300010B5FFF7AFFF00F01DF8002405E0A1003B
:106D40000A4A5058FFF70AFF641C0E2CF7DB00E0DC
:106D500000BFFF209130FFF72DFB0028F8D000F096
:106D60000EF800200249086010BD00000C28002029
:106D70004828002010B51820FFF7D6FE10BD10B52A
:106D80001820FFF7EBFE10BD10B50446002C07DD00
:106D90000E2C05DC611E8900024A5058FFF7C4FE24
:106DA00010BD00000C28002010B50446002C07DDA3
:106DB0000E2C05DC611E8900024A5058FFF7CEFEFA
:106DC00010BD00000C280020F0B58BB005460E4623
:106DD000002403222146641C01A842542146641C5D
:106DE00042546806020E2146641C01A84254002049
:106DF0000FE04100715A0A122146631CDCB201AB5C
:106E00005A544100725C2146631CDCB201AB5A54F7
:106E1000401CA842EDDB01A92046FFF799F987B293
:106E20002046611CCCB201A90F543A122046611CC5
:106E3000CCB201A90A542046FFF742FF0BB0F0BDC7
:106E4000FEB505460E46002403222146641C684612
:106E5000425410222146641C42542A122146641CCA
:106E600042542146641C455432122146641C42544B
:106E70002146641C465469462046FFF769F987B2EB
:106E80002146641C684647543A122046611CCCB225
:106E900069460A542046FFF713FFFEBD00BF0548B0
:106EA00080680128FBD1002002498860024880697F
:106EB000C0B27047002100400025004070B5044674
:106EC0000D4601260AE02046641E002804DB7D20D2
:106ED000C000FFF7FFF801E0002603E0FFF7A4FA87
:106EE0000028F0D000BF002C02DB2846FFF778FA1C
:106EF000304670BD0549C86100BF0549C96901290F
:106F0000FBD10021024AD1617047000000250040FA
:106F10000021004030B503460C46002504E0294618
:106F20006D1C605CFFF7E6FF9D42F8D330BD0000AA
:106F3000506F0100002800206800000094630100E9
:106F4000B86F01006828002060080000A4630100F9
:106F50000100000000000000000000001900000017
:106F60001A0000001B0000001C0000001D000000B3
:106F70001E000000000000000100000002000000F0
:106F800003000000040000000500000006000000EF
:106F900007000000000000000000000000000000EA
:106FA00000000000000000000000000000000000E1
:086FB000000000000024F400C1
:04000005000160C1D5
:00000001FF
