:020000040800F2
:1000000000200020F52D0008BD2D0008BF2D0008A0
:1000100000000000000000000000000000000000E0
:10002000000000000000000000000000C12D0008DA
:100030000000000000000000C32D0008C52D0008CE
:10004000752E000800000000752E0008752E0008AF
:10005000752E0008DD2D0008E72D0008752E00081C
:1000600000000000752E0008752E0008752E00088F
:10007000752E0008752E000800000000752E00087F
:100080000000000000000000000000000000000070
:10009000752E00080000000000000000752E00080A
:1000A00000000000752E00080000000000000000A5
:1000B000CD2D0008752E0008000000000000000093
:1000C00010B5064C2378002B07D1054B002B02D02E
:1000D000044800E000BF0123237010BD0C00002085
:1000E000000000005C550008044B10B5002B03D045
:1000F0000349044800E000BF10BDC04600000000F6
:10010000100000205C550008002243088B4274D385
:1001100003098B425FD3030A8B4244D3030B8B4208
:1001200028D3030C8B420DD3FF22090212BA030C11
:100130008B4202D31212090265D0030B8B4219D3F2
:1001400000E0090AC30B8B4201D3CB03C01A524112
:10015000830B8B4201D38B03C01A5241430B8B425A
:1001600001D34B03C01A5241030B8B4201D30B0343
:10017000C01A5241C30A8B4201D3CB02C01A52416A
:10018000830A8B4201D38B02C01A5241430A8B422D
:1001900001D34B02C01A5241030A8B4201D30B0216
:1001A000C01A5241CDD2C3098B4201D3CB01C01A30
:1001B000524183098B4201D38B01C01A524143093A
:1001C0008B4201D34B01C01A524103098B4201D328
:1001D0000B01C01A5241C3088B4201D3CB00C01A95
:1001E000524183088B4201D38B00C01A524143080D
:1001F0008B4201D34B00C01A5241411A00D2014632
:10020000524110467047FFE701B5002000F0F0F8BA
:1002100002BDC0460029F7D076E7704703460B437E
:100220007FD4002243088B4274D303098B425FD3EF
:10023000030A8B4244D3030B8B4228D3030C8B421B
:100240000DD3FF22090212BA030C8B4202D3121201
:10025000090265D0030B8B4219D300E0090AC30BD6
:100260008B4201D3CB03C01A5241830B8B4201D383
:100270008B03C01A5241430B8B4201D34B03C01A6C
:100280005241030B8B4201D30B03C01A5241C30AE4
:100290008B4201D3CB02C01A5241830A8B4201D355
:1002A0008B02C01A5241430A8B4201D34B02C01A3F
:1002B0005241030A8B4201D30B02C01A5241CDD2E4
:1002C000C3098B4201D3CB01C01A524183098B422F
:1002D00001D38B01C01A524143098B4201D34B0118
:1002E000C01A524103098B4201D30B01C01A52417B
:1002F000C3088B4201D3CB00C01A524183088B4202
:1003000001D38B00C01A524143088B4201D34B00EA
:10031000C01A5241411A00D201465241104670475C
:100320005DE0CA0F00D04942031000D34042534061
:1003300000229C4603098B422DD3030A8B4212D321
:10034000FC22890112BA030A8B420CD38901921153
:100350008B4208D3890192118B4204D389013AD090
:10036000921100E08909C3098B4201D3CB01C01A65
:10037000524183098B4201D38B01C01A5241430978
:100380008B4201D34B01C01A524103098B4201D366
:100390000B01C01A5241C3088B4201D3CB00C01AD3
:1003A000524183088B4201D38B00C01A5241D9D2EB
:1003B00043088B4201D34B00C01A5241411A00D26C
:1003C0000146634652415B10104601D34042002B68
:1003D00000D54942704763465B1000D3404201B5E7
:1003E000002000F005F802BD0029F8D016E770479C
:1003F0007047C046002B11D1002A0FD1002900D12F
:10040000002802D00021C943080007B4024802A115
:100410004018029003BDC046D9FFFFFF03B46846F1
:1004200001B5029800F034F8019B9E4602B00CBC66
:100430007047C046F0B5CE469946030C9C4613045F
:1004400047461B0C1D000E0061460404240C80B5B9
:100450000700100C4B436543414360432C0CC0180C
:1004600024188C46A34203D980235B029846C444D7
:10047000494679435643230C2D042D0C89196344B6
:1004800024046019C918C0BCB946B046F0BDC046C6
:10049000F0B557464E464546DE46E0B504000D0031
:1004A0009246994683B08B4230D82DD0494650466B
:1004B00001F054F829000600200001F04FF8331A2B
:1004C0009846203B34D49B4653465A469340424676
:1004D0001F00534693401E00AF423BD8AF4200D1AD
:1004E00079E05B46A41BBD41002B00DA76E00022D8
:1004F00000230092019301235A4693400193012364
:1005000042469340009329E08242CFD90022002343
:10051000009201930C9B002B01D01C605D60009841
:10052000019903B0F0BCBB46B246A946A046F0BD57
:1005300042469B4620239B1A5246DA40414613000E
:100540004A468A40170042461F43534693401E00C6
:10055000AF42C3D900220023009201934346002BEF
:10056000D8D0FB0772081A4346467B080EE0AB4220
:1005700001D1A2420CD8A41A9D41012024196D4139
:100580000021013E24184D41002E06D0AB42EED989
:10059000013E24196D41002EF8D1009801995B4667
:1005A00000196941002B24DB2B005A464446D340F6
:1005B0002A00E2401C005B461500002B2ADB2600C7
:1005C0009E40330026004746BE403200801A9941C3
:1005D000009001919EE7A342BCD882E742462023C7
:1005E00000219B1A0022009101920122DA4001921F
:1005F00085E7424620239B1A2A0046469A4023005C
:10060000F340444613432A00E2401C005B461500B9
:10061000002BD4DA42462F002023260097409B1A55
:10062000DE403B003343CDE770B5002813D0C3173D
:10063000C5185D40C40F280000F072FF9E23010022
:100640001B1A962B0FDC082834D008398D406D0218
:100650006D0AD8B202E0002400200025C00528431E
:10066000E407204370BD992B16DC421F052800D0FB
:1006700095402A00114802406E0709D00F263540E8
:10068000042D05D00432550102D59F2302405B1A88
:100690009201550AD8B2E1E70522121A2800D0408B
:1006A000020008001B3085402800451EA841024377
:1006B0001500DEE76D0296206D0ACFE7FFFFFFFB16
:1006C000F0B55746DE464E464546E0B51F000B03E3
:1006D0001B0B16009A46CA0F4B000400934687B0C6
:1006E0005B0D00D1D5E0BB4A934200D1F8E0514602
:1006F000420FC9000A43802109041143C2009146F8
:10070000B54A8A469D180023984602933C037B0015
:10071000FA0F3000240B5B0D009200D196E0AD4A39
:10072000934231D0720FE400224380242404144306
:10073000A94AF000944663445B195A1C0192424650
:1007400000260A2A42DC5A4600994A40934642460D
:10075000022A32DC013A012A00D949E1022E00D1F5
:10076000CAE0012E3DD100230024002210005A4689
:100770001B052343D2071343190007B0F0BCBB4647
:10078000B246A946A046F0BD924B2643EB18002E78
:1007900000D1BBE00322414611435A4688460099E6
:1007A0004A40802109018C4629006144019141465B
:1007B0000A2900DD33E2934603264246012797408B
:1007C000A6213A00C9000A400F4231D0029E022EF3
:1007D00000D135E2032E00D1D2E154464846012E25
:1007E000C1D0019A7D4B94466344002B00DCC0E0ED
:1007F000420709D00F220240042A05D0021D82427E
:100800008041404224181000E20106D5744B019A41
:100810001C4080239446DB006344724A93426BDCA5
:100820006207C00864025B050243240B5B0D9DE771
:10083000902189000F4263D188223A4200D1D7E04B
:10084000009BA2469B4681460296BFE723003343A6
:1008500000D17FE0002C00D1ADE1200000F060FE6F
:10086000020003000B3A1D201900821A30000839DB
:10087000D0408C400443300088405B4AEB1A9446D9
:1008800063445A1C0192424600260A2A00DC5AE7B9
:100890009CE753460343994654D05346002B00D15E
:1008A00077E1504600F03CFE0B235B429C46020081
:1008B000844411005046083988401D238046604614
:1008C0001B1A2000D8400300404603439A462300E9
:1008D0008B4099460023444D9846AD1A029315E784
:1008E00052460243914626D100221D000223924621
:1008F00008329046029309E700240022354B35E781
:10090000002380249B462403324B2FE702224146DA
:1009100011438022120194462A00624488460192C3
:100920000A2900DD52E75A460020009904004A4097
:10093000934602260BE70C221D00032381469046B6
:100940000293E3E600239A4604339846033B0025CE
:100950000293DBE6424601331A432B0090465A1CB1
:10096000019242460024002001260A2A00DCEAE621
:100970002CE70122D21A382A00DDF4E61F2A00DC17
:100980002AE11F214942CB1A2100D9400B00202A1D
:1009900005D0164A019D94466544AC402043421E52
:1009A00090411843072319000024014003420CD052
:1009B0000F230340042B00D140E1031D8342A441D7
:1009C0001800644261076402240BC20800230A4332
:1009D000CCE6C046FF07000001FCFFFFFF0300005C
:1009E000FFFFFFFEFE0700000DFCFFFF3E040000BE
:1009F00049464A460904090C0D00160C020C000475
:100A0000000C4543AC4605007543A84615000F0091
:100A10007543009202952A00009D6F4365462D0C98
:100A2000A94647444F44B84505D9150080225202D3
:100A30009046454402953D0C039565462D043F04C0
:100A40002D0CAC463D0065440495250C2404240C73
:100A5000AC4625007543A84665460F0069434144EE
:100A600089466743390C49446E43884503D980223F
:100A70005202904646440D0CA84635004544059563
:100A8000039D3F04A8463F0C0904C9198844454604
:100A9000039555462E04360C2F0C350045437843FC
:100AA00081463800A8462D0CAA46009A504372434E
:100AB0004A445244914503D980256D02A9464844D1
:100AC000150CA94645462D042D0CA84665467D43C8
:100AD000120448449044A9463200654662436E437E
:100AE0007C43170C3619BF19BC4203D98024640219
:100AF000A446E144029C039EA446059D66448E42A2
:100B00008941AC4612043C04120CA21862444942CA
:100B100054184644A4464645A44182466442A04631
:100B2000AA4292418C458941E244D0444942524212
:100B30000A43A045A44182458941644249420C438D
:100B400041463F0CD2191219CC0D0499700208438A
:100B5000411E884141464A44F60D52023043490243
:100B600014430843D20135D5012243080240134300
:100B7000E0071843640834E6009BA2469B46814682
:100B80008024534624031C4324034A462E4B240B43
:100B9000ECE500F0C5FC15239C4684440200634646
:100BA00020321C2B00DC84E6002399462300083801
:100BB00083409A468EE600F0B3FC02000300153233
:100BC00020331C2A00DC4EE602003400083A0020E4
:100BD000944052E6019304E61C4B21009C4603001E
:100BE000019DD3406544A94019430300AB40581E02
:100BF000834119430800D4404B0709D00F230B4011
:100C0000042B05D00B1D8B42804140422418180054
:100C1000230200D4D6E6012300240022A6E50F29F2
:100C2000AAD1802352461B031A42A9D01C42A7D145
:100C30001C43009B02009B46034B97E50024C1E642
:100C40000024014B220091E5FF0700001E04000074
:100C5000F0B54E464546DE465746E0B585B00090B5
:100C600001910C034F00CE0F610A009CB046640F47
:100C70000C4300997F0DC80011001A001B039C460D
:100C80000091019251004B0D9946019B009DD90F97
:100C900063466A0F5B0A1343EA0094469346C14ACF
:100CA00003900293914500D1CDE0012569404D4666
:100CB0007D1BAA468E4200D180E0002D00DC35E38A
:100CC0004946002900D1DFE0974200D194E1524625
:100CD0000125382A19DC8022029B12041343029357
:100CE00052461F2A00DDE3E1534620226146029D61
:100CF000D21A9540D9400D43614691400A00511ED9
:100D00008A411543029ADA40A41A451BA842804141
:100D10004042241A230200D43DE16402640A002CFC
:100D200000D147E1200000F0FBFB0300083B20213D
:100D30002800CA1AD0409C4002009D4022439F4296
:100D400000DD77E1D81B0130091A2C008D40C4402A
:100D50006B1E9D411300C2408B40254300271400A9
:100D60001D436B0709D00F232B40042B05D02B1DEF
:100D7000AB42AD416D4264191D00230200D440E135
:100D8000884A0137974200D101E10126434686494E
:100D9000ED0821404A072A437C054D022D0B640DC6
:100DA0001E4024052C43F60734431000210005B0F3
:100DB000F0BCBB46B246A946A046F0BD002D00DC03
:100DC000D0E24946002900D0D4E06146029B194395
:100DD00000D12BE1691E012D00D1D9E1954200D14E
:100DE0000AE10125382917DC8A4653461F2B00DD0E
:100DF000E7E12022D21A029B614693401D00534630
:100E0000D940634693401A000D43511E8A41534610
:100E10001543029ADA40A4182D18854280414042B9
:100E20002418230200D4B6E05E4B01379F4200D164
:100E3000ADE001215C4B6A081C4029400A43E507EC
:100E4000154364088DE7594A029B92466246BA44AC
:100E50001A432CD08E422ED05246002A60D0002F4A
:100E600000D1DBE063460E00029CD8086207024313
:100E7000E4081300234300D154E280252D032543C9
:100E80002D03484C2D0B8CE76146029B194300D182
:100E9000CCE029000139012D00D188E1954200D133
:100EA000AAE00125382900DD2FE78A4618E701224C
:100EB00051408E42D0D15346002B00D1BEE0002FCE
:100EC00000D038E1CA462200024300D1E2E1534695
:100ED000591E012B00D10DE2324A924500D1D2E1D8
:100EE0000127382913DC1F2900DDEEE12022029BB7
:100EF000521A250007009A46CC4090409540CF40BA
:100F0000A244421E904153462F43074302933D00A3
:100F1000654465459241029B52424F46D41880E792
:100F2000234A7D1C154200D0AAE062462500029BA0
:100F300005431A43002F00D0F5E0002D00D16BE1EE
:100F4000002A00D152E16346C51A029BE21AA84268
:100F50009B415B42D31A1A0200D4D5E163461D1AA5
:100F6000AC4592410126029B52421C1B8846A41AA2
:100F70000E40F6E697423FD052460125382A00DD62
:100F80004AE78022029B1204134302932DE73C00A0
:100F90000025002205E707232B40002B00D0E2E6C6
:100FA0006BE0C046FF070000FFFF7FFF01F8FFFF77
:100FB000FE070000280000F0B3FA030018331F2BCF
:100FC00000DCB4E62A00083882409F4200DDB9E028
:100FD000DB1B581C1F2800DCA0E115001F3BDD4077
:100FE000202805D040231B1A9A40531E9A411543CE
:100FF000072300272B40D0E7C00862070243E4081C
:1010000037E7EA0863071A43D34BE4089F4200D14D
:101010002FE72403250B7C05640DC2E6CA46220097
:10102000024358D163460E00029C0393039B57462C
:10103000DA08E7E7C94CFF1A144092E6C84D7A1C5B
:101040002A4200D084E022000243002F00D0EFE0CB
:10105000002A00D1E5E0624602990A4300D1C5E0CA
:101060006346C5188C46854280416444404224183A
:10107000230202D5B94B01371C40BA460395D5E788
:101080006246851AA842924152429146029BE31A57
:101090001A004B46D21A130091461A026CD44A46E3
:1010A0004C462A4300D03AE600260024002578E684
:1010B000029953460D00203AD540202B06D04022FD
:1010C000D21A0B00934062461A4393465B465A1E5F
:1010D00093411D4319E653465A1E012B00D1C6E029
:1010E0009D4EB24500D1BDE688460E000125382A46
:1010F00010DC1F2A7FDC20212500891A0700884088
:101100008D40D740D440411E8841029B3D431B1B6C
:10111000054302936246551BAC459241029B5242E5
:101120004F469C1AF6E5002D00D0B7E0002A00D10A
:10113000F0E001260E4063460298D90842070A43B0
:10114000C40896E6854CFF1A14406207E40860E77D
:1011500081498A4200D1C9E06346C1188142804179
:10116000029B4042E3181B18DD075C08072349086F
:101170000D4317002B4010E763461D1AAC45924102
:101180000126029B52421C1B8846A41A0E40C6E54B
:101190006346C518029B854280419C464042644498
:1011A00024180127230200D4F5E6022741E663460E
:1011B000C51AA8428041029B4042E41A0127241A22
:1011C000A8E5029D52462B00203AD3401900534611
:1011D000202B06D04022D21A2B00934062461A439D
:1011E00093465D466B1E9D410D4315E66207C008A0
:1011F0000243E4080DE7110027002039CF40202AE0
:1012000005D040218A1A9440250005430395039D8B
:101210006A1E95413D437DE7002A00D144E701263F
:101220000E406346D908029B5A070A43DC08F0E6E1
:10123000002A28D06246029FC0083A4300D1DCE66B
:10124000620710438022E4081203144209D0FD080B
:10125000154206D1634601262C00D8087B071843A7
:101260000E40420FC000C0085207024301E6634629
:101270001D1AAC459241029B52421C1B0E0088462F
:101280000127A41A46E56346D908029B5A070A4378
:10129000DC08EEE56346029C0393C7E6C008002A1B
:1012A00000D1AAE6620710438022E4081203144228
:1012B000D7D0029FFD081542D3D163460126D80836
:1012C0007B072C0018430E40CBE70A002700203A8A
:1012D000D740202905D04022521A944025000543CA
:1012E0000395039D6A1E95412F4310E614000025C7
:1012F000002256E5029B60449946604592414C4469
:1013000052420500A4184CE71A001C002A4300D0E2
:10131000B3E6C9E6802400262403AEE5202100259B
:10132000091A17E5002200250B4C3AE5002D00D1E3
:10133000F6E54B46DA1B9246002F00D16FE6382ABD
:1013400005DC80263604344388460E00D1E6884604
:101350000E000125DEE6C046FF070000FFFF7FFF0D
:10136000FE070000002D00D168E64B46D91B002F78
:1013700001D18A46A7E50127382900DDC7E580228B
:1013800012041443AFE5C04670B542024300C40FD7
:10139000FE201B0E591C550A08420CD0E021890082
:1013A0008C466D07120B63441B051343E40723436C
:1013B0002800190070BD002B14D1002D1BD028006F
:1013C00000F0AEF80A281CDC0B232A001B1ADA40B6
:1013D000030015339D400E4B12031B1A5B05120BC5
:1013E0005B0DE1E7002D09D0130B802212031A4395
:1013F0006D07084BD8E700230022D5E70022054BF4
:10140000D2E703002A000B3B9A400025E3E7C046E1
:1014100089030000FF070000F0B54B000F035B0DD0
:101420003B4C450F83B07F0A5E1C2F430090019117
:10143000CA0FC50026420BD036495C18FE2C13DDBE
:10144000FF200023C0051843D207104303B0F0BDAE
:10145000002B02D100200023F4E73D43F0D080238D
:10146000DB03FF203B43EDE7002C14DD009BFF0076
:101470009B01581E8341690F3B430B43590741D0E1
:101480000F211940042928D00433590125D50134EE
:101490000023E0B2D6E721001731DBDB80211E20DC
:1014A00009043943001B1F281BDD02267642341B2A
:1014B0000E00E6403400202804D0174884466344D8
:1014C00099400D432B00591E8B412343590715D0DA
:1014D0000F2100241940042917D19B015B0AE0B2B7
:1014E000B0E70E4C1C192B00A540C340A140681E5C
:1014F000854129430B4300245907C1D19B0100209A
:101500005B0A9FE7DB08E0B29CE70433E5E7C046EF
:10151000FE07000080FCFFFFA2FCFFFF82FCFFFF34
:101520001C2101231B04984201D3000C10391B0A13
:10153000984201D3000A08391B09984201D30009D7
:10154000043902A2105C40187047C046040302022E
:1015500001010101000000000000000010B5002999
:1015600003D1FFF7DDFF203002E00800FFF7D8FFCE
:1015700010BDC04610B5A024E40520000022402183
:1015800001F0B0FF00228021200001F0ABFF10BD70
:1015900010B5A024E40520000122402101F0A2FFA3
:1015A00001228021200001F09DFF10BD0022034B8D
:1015B0001B685A625A6A8242FCD370478C01002031
:1015C00070B5FA2604000025B600A54200D170BD12
:1015D0003000FFF7EBFF0135F7E7002310B5DCB271
:1015E000A24200D810BDC45CCC540133F7E70023FD
:1015F0004118884202D1D843C0B270470278013006
:101600009B18DBB2F5E70300F0B541180725002071
:10161000994211D0082480221F7846B24000C0B2FF
:10162000002E00DA68403A4200D06840013C52087F
:10163000002CF2D10133EBE7F0BD0000F0B593B020
:101640000AAC160005900B22069120001C4903F0FD
:101650007BFF232004AB15220021C01803F048FFB4
:101660007300DBB20793102308A80370059B0321C6
:101670004370069B27001B78012583702370FFF7BA
:10168000C2FF60700237AE420DD8FA239B0002936E
:10169000079B10210193059A01230094094802F049
:1016A000B5F813B0F0BD069B04AA5B5D01213B7049
:1016B00009A81375FFF7A7FF01357870E2E7C04668
:1016C00074550008CC010020F0B5294E99B00500F2
:1016D00010AC059104923100202208A803F034FFD9
:1016E00031002022200003F02FFF049B2A005F001E
:1016F000FA23FFB29B00102102931E480123019799
:10170000009402F05DF9102307A8267803700421E5
:10171000013383704570C670FFF775FF65782D1A29
:101720006B1E9D4102AB1E760126049BB3420BD873
:101730003A0008A80599FFF750FF00200E4A1388C9
:101740005B19138019B0F0BD1821A37802AA5218B2
:101750009355173902AA06A81374FFF754FFE378CC
:1017600001361B1A5A1E93410234ED18DDE7C046BC
:1017700094550008CC010020560000200023F0B54D
:101780000D0087B004AC01901700200006222A4902
:1017900003AE338003F0D8FE019BA5702380022F97
:1017A00021D0042F31D0012F18D1032221003E2057
:1017B000FFF744FFFA20C000FFF7F8FE03212000E6
:1017C000FFF715FF0523307060200222310073708F
:1017D000FFF734FFFA20C000FFF7E8FE0220FFF712
:1017E000EFFE07B0F0BD042221003E202D0AE57077
:1017F000FFF724FFFA20C000FFF7D8FE04212000E5
:10180000FFF7F5FE06233070DEE72B0A06222100E3
:101810003E20E3702B0C2D0E23716571FFF70EFF38
:10182000FA20C000FFF7C2FE06212000FFF7DFFE0E
:1018300008233070C8E7C046B455000807B501A9B1
:10184000088002223E20FFF7F9FE0220FFF7B8FED3
:1018500007BD000013B50023141E6A4601931380D0
:10186000908011D1022201A93E20FFF7E7FEFA2065
:10187000C000FFF79BFE102240201C49FFF724FF09
:101880000220FFF79DFE13BD012C18D191713E205F
:10189000032201A9FFF7D2FEFA20C000FFF786FE5F
:1018A000032101A8FFF7A3FE6B466A4618700523C3
:1018B0005370022269466020FFF7C0FEE0E7022C69
:1018C000DED1D1803E20042201A9FFF7B7FEFA2025
:1018D0008000FFF76BFE042101A8FFF788FE6B462E
:1018E0006A461870062353702200E3E7AC0000201C
:1018F00007B501AB1980002A08D108490232FFF769
:10190000E3FEFA20C000FFF751FE07BD012AFCD11B
:1019100019000132FFF792FEF3E7C046CC00002029
:10192000002210B50C001100FFF794FF012C09D024
:101930000020022C08D1054A537810781B02C018E9
:1019400080B201E0014B187810BDC046AC00002009
:10195000002210B511001220FFF7CAFF034A044B02
:1019600051781278090252181A8010BDCC0000205C
:101970006600002010B59020FFF760FFFA20C0003D
:10198000FFF714FE0222A349A348FFF7F7FE012246
:101990000D21A248FFF7F2FE0122A1481100FFF736
:1019A000EDFE01220D219F48FFF7E8FE02225021A3
:1019B0009D48FFF7E3FE012282219C48FFF7DEFEEF
:1019C000012282219A48FFF7D9FE01222621994857
:1019D000FFF7D4FE012207219748FFF7CFFE01222F
:1019E00007219648FFF7CAFE932001220721000233
:1019F000FFF7C4FE022280219148FFF7BFFE0422B8
:101A000090499148FFF7BAFE904C042290499148C2
:101A1000FFF7B4FE022290499048FFF7AFFE210085
:101A200002228F48FFF7AAFE02228E498E48FFF756
:101A3000A5FE210002228D48FFF7A0FE02228C495C
:101A40008C48FFF79BFE02228B498C48FFF796FEDD
:101A500002228B498B48FFF791FE02228A498B486C
:101A6000FFF78CFE02228A498A48FFF787FE02228E
:101A700089498A48FFF782FE022289498948FFF78F
:101A80007DFE0122BC218848FFF778FE01227721E4
:101A90008648FFF773FE012205218548FFF76EFE99
:101AA0000A21012283484942FFF768FE01222821CA
:101AB0008148FFF763FE012237218048FFF75EFE71
:101AC00002227F497F48FFF759FE02227E497F4864
:101AD000FFF754FE012203217D48FFF74FFE01224C
:101AE0007C481100FFF74AFE0222F0217A48FFF7F6
:101AF00045FE022279481100FFF740FE0122032132
:101B00007748FFF73BFE012203217648FFF736FEB8
:101B1000012219217448FFF731FE0122192173486F
:101B2000FFF72CFE724C01220F217248FFF726FEB0
:101B300001220F217048FFF721FE210002226F4889
:101B4000FFF71CFE210002226D48FFF717FE01225D
:101B500034216C48FFF712FE012253216A48FFF737
:101B60000DFE9621022269480901FFF707FE0222B5
:101B700067496848FFF702FE012204216648FFF723
:101B8000FDFD022264216548FFF7F8FD02223221A3
:101B90006348FFF7F3FD01220F216248FFF7EEFDD6
:101BA00001221E216048FFF7E9FD01227D215F48E7
:101BB000FFF7E4FD012204215D48FFF7DFFD01226C
:101BC00064215C48FFF7DAFD01225A215A48FFF7E9
:101BD000D5FD022259495A48FFF7D0FD02220F21B4
:101BE0005848FFF7CBFD01220D215748FFF7C6FDEE
:101BF000012211215548FFF7C1FD0122544811006F
:101C0000FFF7BCFD9220FFF719FE5248FFF7CEFC0C
:101C100010BDC046A22C00003492000008930000C2
:101C2000379200003692000043930000FB920000C0
:101C3000FA920000FC920000FD920000FF9200006A
:101C40006D92000044C0413FA8910000D07B00008D
:101C500014725C48AC91000061A9FFFFEA9100009A
:101C6000EC910000F4BEFFFFEE910000F091000047
:101C7000BD0F0000F2910000E5A2FFFFF49100000B
:101C800002510000F6910000EADEFFFFF89100002B
:101C9000F4110000FA910000B72D0000FE91000041
:101CA000FFAA00000493000061920000629200000D
:101CB000A6920000A99200009A9200009D92000056
:101CC0006C070000CB92000094110000CE9200003F
:101CD000C0920000C3920000D19200005F92000009
:101CE000359300003A9300003D93000041930000BB
:101CF000740E00003E930000429300003B930000EE
:101D00003F93000075920000789200003F9200001F
:101D1000C80A0000419200007B920000109300006E
:101D200012930000809200008192000082920000D5
:101D300083920000849200008592000080C1FFFF22
:101D40008A9200008C920000869200008792000028
:101D50009592000060EA000010B5FFF70BFEFFF758
:101D6000F7FD074B00201B88DB0708D4022105483C
:101D7000FFF7D6FD044BC01843425841C0B210BD16
:101D800066000020049300000155FFFF10B5064CCB
:101D900000222000082101F0A5FB002210212000D4
:101DA00001F0A0FB10BDC0460004005010B5064C69
:101DB00001222000082101F095FB012210212000C2
:101DC00001F090FB10BDC0460004005000227F20AF
:101DD000110010B5FFF78CFD0A4B0B4A1B780B491D
:101DE000137001229808104008701800084910402C
:101DF00008700849580810400870DB08064913406D
:101E00000B7010BDCC000020640000205C0000209E
:101E10005B0000205A00002059000020A02010B5CF
:101E200000220221C00501F05DFB10BD10B5FFF7D7
:101E30008FFD064B00201A88C0239B001A4203D056
:101E40003C30FFF7BDFB012010BDC04666000020FE
:101E500070B5A025FA24ED05280001220221E40036
:101E600001F040FB2000FFF7A1FB28000022022127
:101E700001F038FB2000FFF799FB70BD00226220C3
:101E8000110010B5FFF734FD034A537810781B0298
:101E9000C01880B210BDC046CC000020002210B592
:101EA00010001100FFF724FD034A537810781B023D
:101EB000C01880B210BDC046CC00002010B5FA2476
:101EC000E4000F20FFF7BAFC2000FFF76FFB0F20A4
:101ED000FFF7B4FC2000FFF769FBFFF7DFFF4007C7
:101EE000C00F10BD70B5A025FA24ED052800012211
:101EF0000221E40001F0F6FA2000FFF757FB002270
:101F00000221280001F0EEFA2000FFF74FFBFFF757
:101F1000C5FF83080120984370BD00000022F8B57A
:101F2000012411000320FFF7E3FC184D184E2B7815
:101F3000184A9908214011703370174ADB08234072
:101F400013706B78154AD908E34021401170144A88
:101F500023401370002205201100FFF7C9FC002266
:101F6000104F2B78110007203B70FFF7C1FC2A7837
:101F70000D4B38781A7033780C491B189B18A34204
:101F800000DC002401200C70F8BDC046CC0000200D
:101F90006A00002061000020600000205F00002037
:101FA0005E00002069000020680000205D00002025
:101FB000002210B511000400FFF79AFCFA20C000BF
:101FC000FFF7F4FA074A143C53781B021E2C03D87F
:101FD0001078C01880B210BD0A2012789B185843A0
:101FE000F8E7C046CC00002070B514240C4D20004A
:101FF000FFF7DEFF0234E4B228800235342CF6D13C
:102000002000FFF7D5FF074B18803620FFF7D0FFE1
:10201000054B18803820FFF7CBFF044B188070BDAC
:102020008C0000207400002072000020700000204E
:1020300000223A20110010B5FFF75AFC034A5378EA
:1020400010781B02C01800B210BDC046CC000020A2
:10205000002210B51100FFF74BFC0A4B58781B7893
:102060000002C018FEF7E0FAFFF78EF9064A074BA8
:10207000FEF726FB064A074BFEF7EAFDFFF7CCF911
:1020800010BDC046CC0000209A9999999999B93F02
:102090006666666666127140002210B511008320E4
:1020A000FFF7D8FB034A044B517812780902521803
:1020B0001A8010BDAC0000206200002070B5FFF750
:1020C000DDFE80250300124A108000202B421ED026
:1020D000FFF7AEFF0F4B1880FFF786FFFFF7DCFF1F
:1020E0007020FFF7B5FF0C4C20607420FFF7B0FFA5
:1020F00060607620FFF7ACFFA0606820FFF7A8FFC4
:102100000122E06029006220FFF7F2FB012070BD90
:102110006C0000206E00002078000020F0B5002345
:10212000322101250B480C4C0C4E22001A412A4248
:1021300007D05A00B25E904200DD1000914200DAF2
:1021400011000133102BF0D1054B1880054B19807D
:10215000F0BDC04670170000FFAA00008C000020F0
:102160008A00002088000020F0B50023012604002A
:102170000A4F0B488B4200D3F0BDE25C504008226E
:1021800005004008354001D0784080B2013AD2B213
:10219000002AF5D10133DBB2ECE7C04601A0FFFF16
:1021A000FFFF0000F7B50091082954D1C478837867
:1021B000467924021C43037936021E43C37982798F
:1021C0001B0213430621019305784778FFF7CCFFE4
:1021D000019B98423FD1022D3DD1E1204000FFF705
:1021E000E5F9032F37D180239B009C423DD1002687
:1021F0001D2200214F4803F07BF918234E4C257017
:102200003500A3704D4B677000934D4B01222B415D
:1022100013420CD0009A6B00D05E39004000FDF7ED
:10222000FDFF7300E3180212DA70187101360135F0
:10223000102DEAD11B212000FFF796FFFF23E07647
:10224000000A20776377FFF7A3F903231E223D4896
:10225000210002F0BCFFFFF78DF98021A0200022B1
:102260008900C00501F03EF9F7BDB8235B019C422F
:1022700031D11B220021344803F03AF9334B0120BD
:102280001E88002319001A002B4C67702C4F2570F4
:10229000A5703D001541054208D0350015410542A5
:1022A00003D005008D402B439BB201310132102A2F
:1022B000EFD11A0A05212000E2702371FFF754FFC5
:1022C000FF236071000AA071E371FFF761F9032336
:1022D00008221C48BCE780235B00002C19D19E42D9
:1022E000B9D121001D22134803F002F9124C2570C8
:1022F0006770A57005212000FFF736FFFF2360718E
:10230000000AA071E371FFF743F93B000D48009A02
:102310009EE79C429FD1A6429DD11D2200210548E7
:1023200003F0E6F81923044C25706770A57023713B
:10233000E0E7C0462B000020280000208C00002091
:10234000FFAA0000040100202D00002062000020F0
:10235000A02010B50121C00501F0BEF8434258414C
:10236000C0B210BDF0B500228DB00121634801F06C
:10237000B9F800220221614801F0B4F88021A020C0
:1023800000224900C00501F0ADF88021A020002204
:102390008900C00501F0A6F8FFF7F8FCA020002294
:1023A0004021C00501F09EF8A0200226544C0122D5
:1023B0008021C00501F096F8E36A01253343E3620A
:1023C000E36A07A933400693069B88235B030893BF
:1023D00020234A480793099600F050FF002231005D
:1023E000062000F0A7FE062000F0CEFEE36AA02043
:1023F0002B43E362E36A04272B400593059B842368
:1024000007A99B03C00508930995079500F036FFBF
:1024100031000022052000F08DFE052000F0B4FE02
:102420000822E36A80212B43E362E36AA0202B4069
:102430000093009BE36AC0053343E362E36A3340E1
:102440000193019BE36A3B43E362E36A3B400293EF
:10245000029BE36A1343E362E36A13400393039B23
:10246000E36A0B43E362E36A0B400493049B032398
:10247000089300230993234B079307AB190000F03F
:10248000FDFE214B1D48079307AB190000F0F6FE37
:102490001E4B1F48079307AB190000F0EFFE07AB78
:1024A00019001C4800F0EAFE07AB19001A4800F0BA
:1024B000E5FE08228021E36A1848AB43E362E36A41
:1024C000B343E362E36ABB43E362E36A9343E362D9
:1024D000E36A8B43E36200F003FC114B29001A68A6
:1024E000280017431F6001F0E1FBBFF34F8F0D4B36
:1024F0000D4ADA60BFF34F8FC046FDE7000400507D
:1025000000100240FEFF0000DFFF0000FFFF0000A0
:1025100000080050000C0050001C0050D0000020AB
:102520000070004000ED00E00400FA05064B1A6D53
:10253000920002D50121054A11708022196D120402
:102540000A431A657047C04600100240510000203F
:1025500070B50A4D0121280002F0D4F8084B002480
:10256000984209D101F08EFB22000121280002F0DF
:10257000C3F801F091FB0134200070BDD0000020B1
:10258000ADDE000010B572B6FA208000FFF718F833
:10259000FEE770B58026A0251424B600ED050122C3
:1025A00031002800013C00F09DFFE4B21220FFF74B
:1025B00045F9002CF3D1FFF7E5FF000010B50C4BF7
:1025C0001B78D9B2002B12D10A4C0822200002F04D
:1025D0008FFFFEF7CFFF2022074B2100DA67074865
:1025E000183A02F054FF002801D0FFF7CBFF10BDCE
:1025F000CE00002048000020080100200401002037
:1026000010B50C4C2378002B12D1202001332370FD
:10261000094B1A68136883431360082902D10748DD
:10262000FFF7C0FD00232370FEF7A4FFFFF7C6FFEE
:1026300010BDC046CE00002004010020480000204C
:1026400010B5044801F016FB002801D0FFF79AFFEF
:1026500010BDC046F400002010B5FFF7F1FF2021A7
:10266000144B1A6813688B431360FFF78FFBC82065
:10267000FEF7A6FFFFF722FC002816D001228021DA
:102680006220FFF735F901F0FDFA01210A480B4AF3
:1026900002F032F801F000FBBFF34F8F084B094AFC
:1026A000DA60BFF34F8FC046FDE70748FEF77EFFB5
:1026B000E0E7C04604010020D0000020ADDE0000AD
:1026C00000ED00E00400FA058813000010B5FFF7E4
:1026D0003FFE094A1378002808D00133DBB213709B
:1026E0000F2B07D900231370FFF7B6FF002B01D083
:1026F000013BF3E710BDC0465800002010B5A324ED
:102700000E4B0F4819880288FA3189B264005308C9
:10271000A1420AD20B4B1B78002B0CD10A4B1B7821
:10272000002B08D02D32FF3293B2084A0380934227
:1027300003D9FFF791FF0132F6E710BD6E000020CC
:10274000540000205B0000205C000020F82A0000FC
:1027500010B598B0302200210CA802F0C9FE142256
:102760000021684602F0C4FE1822002105A802F0EC
:10277000BFFE1A491A4B0A6801241A4080231B0124
:1027800013430B600A230B9306330F9300230BA80C
:102790000E941094149301F023FB011E01D0FFF757
:1027A000F1FE0F2302900390049068460093019479
:1027B00001F064FD0028F2D12A230593223B079300
:1027C00080239B010993802305A89B02069301F0B7
:1027D00033FE0028E3D118B010BDC04600700040A1
:1027E000FFE7FFFFF0B58DB000F06AFBFFF79EFE3C
:1027F000FFF7AEFF1422002107A802F079FE0422A1
:102800000127A020C84EC94CF36A21001343F3628C
:10281000F36AC00513400093009BF36A023A3B43FE
:10282000F362F36A3B400193019BF36A1343F36243
:10283000F36A134002930022029B00F053FE002231
:102840001B21BB4800F04EFEA0200794002407A9DE
:10285000C005089709940A9400F010FD1B23B448A2
:1028600007A90793089709940A9400F007FD20230D
:10287000AF4807A907930894099400F0FFFCA02033
:1028800007A9C00507970894099700F0F7FC0822EC
:10289000210005A802F02CFEC223A64DFF336B6277
:1028A0002B002C331C70A44B04222B60C023280067
:1028B0001B06EC63AC63AC622C636C636B60AC6056
:1028C000EC602F616A61AC61EC612C8400F01EFB4E
:1028D000A04201D0FFF756FE8024984B64012800E7
:1028E00005A90593069400F0E7FB0028F2D1944D6A
:1028F000944BA8602B60944B28616861A861E861E3
:10290000286228006B60EF6000F02AFF011EE1D111
:10291000280001F033F9011EDCD1280001F054F940
:10292000071ED7D10100102207A802F0E1FD0822FE
:10293000390003A802F0DCFD8023844DDB052B6009
:102940000E236B60824B2800AF60EB602F616F61DC
:1029500001F004FF0028BDD1280007A9079401F069
:1029600043FF0028B6D10390049003A9280001F08A
:10297000DDFF031EAED17748774A83600260E12213
:10298000520242600C22C360036142618361C361F1
:102990000362436202F0E2FC041E9BD101F0CCF919
:1029A00001F0C0F98023F2681B021343F3606B4807
:1029B0006B4B446003607F2383608033C36004619A
:1029C00044618461C46101F049FE002800D081E7C0
:1029D000280001F0E7FEFFF7BBFC002802D001222F
:1029E000604B1A70FFF7B4FD002801D0FFF7BAFC66
:1029F000FFF714FA3220FEF7E3FD5B485B4B036000
:102A0000022343605A4BC3605A4B836001F000F9C4
:102A1000002800D05EE7FA25FFF7D0FDFFF7B6F9F2
:102A2000FFF716FAAD00FFF701FA534C002820D04B
:102A3000FA250023AD002380FFF754FA002823D0A5
:102A400000232380FFF788F9002826D00023238065
:102A5000FFF734FB002826D000232380414B1B784E
:102A6000002B29D1454B464A1B88934224D8FFF7B7
:102A7000F3FD2800FEF79AFD2388642B01D9FFF7A8
:102A800088FD01332380CEE72800FEF78FFD2388E1
:102A9000642BF4D801339BB2CDE72388642BEED8A6
:102AA00001339BB2CDE72388642BE8D80133354846
:102AB0002380FEF77BFDCBE72220FEF7BFFE8025BB
:102AC000FFF774F92220FEF7B9FEFFF777FD6D00DE
:102AD000FFF7FCFDFFF77AF9FFF710FEFFF71EFB8B
:102AE000FEF736FFFFF7EAFA0023984202D1238867
:102AF00001339BB22380FFF711FA0023984202D1E1
:102B0000238801339BB2A02000222900C005238026
:102B100000F0E8FC2388642BB1D8FFF791FD0A2070
:102B2000FEF74EFDD4E7C04600100240C20300008D
:102B30000004005020020020002401402000001466
:102B4000CC01002000540040170630008C0100200A
:102B5000FFFF00000401002000440040D0000020DE
:102B60000028004050000020F40000200030004009
:102B7000FF0F0000FC08000052000020720000203F
:102B8000973A000088130000202110B5174C083038
:102B900023681A688A431A60C26F520701D502225D
:102BA0001A620822C16F114200D01A62C26F9207E6
:102BB00001D504221A620122C16F114200D01A62AB
:102BC000C36F002B0BD1200001F006FF002801D0BD
:102BD000FFF7D8FC200002F0C1FB0028F8D100224A
:102BE000034B1A70FFF7EAFC10BDC0460401002039
:102BF000CE0000200122054B596B0A435A63802204
:102C0000996B52050A439A637047C0460010024010
:102C100010B5040086B01422002101A802F068FC5F
:102C20000E4B22689A4216D180220D4B9200596BAE
:102C3000A0200A4301215A63DA6AC0050A43DA6216
:102C4000DB6A0B400093009B202301A901931D3BED
:102C5000029300F013FB06B010BDC04600240140F3
:102C60000010024010B5040086B01422002101A813
:102C700002F03EFC0F4B22689A4219D102220E4C00
:102C80000E48E36A01A91343E362E36A1340009329
:102C9000009BC0230193AE3B02930F3B0493023B86
:102CA000059300F0EBFA8023A26B9B031343A3630D
:102CB00006B010BD00540040001002400004005057
:102CC000054B02689A4205D18023044ADB02116D4C
:102CD0000B4313657047C0460028004000100240B7
:102CE000044B02689A4204D1034A0449136D0B4015
:102CF000136570470028004000100240FFFFFBFFF3
:102D000080230268DB059A4204D10123024A916BB9
:102D10000B4393637047C0460010024010B5040097
:102D200086B01422002101A802F0E2FB144B2268B5
:102D30009A4222D18022134B9202996BA0200A431F
:102D400001219A63DA6AC0050A43DA62DB6A0B4042
:102D50000093009B0C2301930A3B02935B1804939E
:102D60005B1801A9059300F089FA00221C201100CC
:102D700000F0E0F91C2000F007FA06B010BDC046D4
:102D80000044004000100240094B026810B59A420E
:102D90000CD1A020074A0849936BC0050B409363F0
:102DA0000C2100F025FB1C2000F0FAF910BDC046F4
:102DB0000044004000100240FFFFFDFFFEE7FEE779
:102DC0007047704710B500F08FF810BD10B502487D
:102DD00001F02EFE10BDC0460401002010B50120F8
:102DE00000F088FB10BD10B5202000F083FB10BD63
:102DF0007047000013488546FFF7FAFF1248016844
:102E0000090E124A914205D1114812490160124837
:102E10001249016012481349134A002302E0D458B2
:102E2000C4500433C4188C42F9D3104A104C002308
:102E300001E013600432A242FBD302F061FBFFF712
:102E4000D1FCFEE700200020040000001F0000006D
:102E500034100240010000000000014000000000AA
:102E6000000000200C000020EC5500080C000020A1
:102E700080020020FEE7000070B50500FA200D4B2F
:102E800080001978FDF740F90B4C01002068FDF730
:102E90003BF900F095F904000120002C09D1032D25
:102EA00007D802382200290000F044F92000034B23
:102EB0001D6070BD040000200000002008000020FC
:102EC0004023084A10B5116803200B431360FFF735
:102ED000D3FF041E03D1FFF78DFE200010BD012497
:102EE000FBE7C04600200240034A044B11681B78F0
:102EF0005B1813607047C0467C020020040000206D
:102F0000014B18687047C0467C02002070B5041E53
:102F100016D0436D002B05D102005032836513702B
:102F2000FFF776FE636DDB0603D423689A685207C9
:102F300008D51023626D503413436360002323705F
:102F4000012070BD616D564A11400632FF320A43BE
:102F50006265032299681140524A012902D118681A
:102F6000084219D180256168ED0548004008A84253
:102F700003D080200006814276D118698000800845
:102F800018611869014319611820D9688143D96013
:102F9000D968A0680143D9601168434801401160B5
:102FA000616B1068490601431160802299685205DF
:102FB000114202D199680A439A60DA683B49256B4D
:102FC0000A40DA60621CD17FE268D8682A43024373
:102FD000A06980030243E069C0030243480302433F
:102FE00020002C300078400002432069023845421E
:102FF000684180000243C220DA60626AFF30824288
:1030000004D0A56AD8682A430243DA60A21CD27FA2
:10301000012A06D1002933D18022D96852020A43FD
:10302000DA60E16B1A69012932D12148656C0240EE
:103030001A61226C18692A43A56C2A4302431A615B
:103040001A691143196107215A6900208A435A619C
:103050005A69A16B0A435A610323A065626D9A43C2
:10306000023B134363656CE71869124D80008008CA
:10307000186110682840106010680143116083E7F0
:103080002021606D01436165A16D0A43A265C8E717
:1030900001210A42D7D01A698A431A61D3E7C04690
:1030A000FDFEFFFF08270140FFFFFFFD1902FEFFA5
:1030B00003FCFFFFFFFFC3FF30B50400503422784C
:1030C00003000220012A0BD0013820701A6895688D
:1030D0006D0706D52022596D0A435A6500232370D7
:1030E00030BD80250B68AD02580349682B400E4D5A
:1030F000400BA9420DD0916A01439162002B05D08B
:1031000080230A4ADB0311680B4313600020207000
:10311000E6E7916A81439162002BF7D0034A0449A4
:1031200013680B40F1E7C04601100000082701407A
:10313000FFFFBFFF10B5FF2403220B002100024058
:10314000D20091409B012340C943934000280ADBF1
:10315000C0240B4A800880008018A40002590A404D
:103160001343035110BD0F2210400838054A800850
:1031700080008018C26911401943C161F2E7C0465E
:1031800000E100E000ED00E0002805DB1F2318400F
:103190001E3B8340014A13607047C04600E100E0D7
:1031A000002809DB1F2318401E3B8340034AD367D6
:1031B000BFF34F8FBFF36F8F7047C04604E100E04D
:1031C0008022431E5204012093420DD2C021074A9F
:1031D00007485360036A09061B021B0A0B4303627C
:1031E00000200723906013607047C04610E000E0A5
:1031F00000ED00E030B5841DE27F0300022A06D016
:103200000422C263012000220533DA7730BD026850
:103210000E2011681C25814311600121106888432C
:1032200010605A6C186C2A400D00954045600020D3
:10323000E177E8E770B5841DE37F022B03D0042318
:10324000C363012070BD0E2103681C251A688A43E0
:103250001A600122196891431960436C016C2B407C
:1032600015009D404D60E2770022431DDA77836BA5
:10327000934200D098470020E4E700000023F0B517
:1032800085B00A681400DC4001D105B0F0BD01250D
:1032900014009D402C4000942A4200D198E04A68D6
:1032A0005F0094460322644622400324BC40E4436A
:1032B0000194541E012C2ED88668019C2640CC68AF
:1032C000BC403443846044680126AC432500644616
:1032D000240934409C402C434460C568019C25402F
:1032E0008C68BC402C43C460022A16D107250F26E7
:1032F0001D40AD00AE40DC08A40004190294246A0D
:1033000003962600039CA64334000E69AE40264374
:10331000029C266201E0032ADFD1BA400468019DC5
:1033200025402A43C02402606246A40222424FD0B4
:103330000125284CA027626BFF052A436263264AB9
:103340009C08A400A4180F2202351D40AD00AA401D
:10335000A66896430022B84210D0204F0132B842EE
:103360000CD01F4F0132B84208D01E4F0132B84274
:1033700004D01D4A8218571EBA410532AA4067463A
:103380003243A260194A009C9668009DE44335438D
:10339000FF0201D43500254067469560D668009D40
:1033A0003543BF0201D4350025406746D5605668D5
:1033B000009D3543BF0301D4350025406746556065
:1033C0001568009E2E43FF0301D425402E00166091
:1033D000013356E700100240000001400004005095
:1033E00000080050000C005000E4FFAF0004014052
:1033F000F0B500220F0085B03B00D34001D105B0ED
:10340000F0BD012393401C0001933C401F4255D066
:103410002B4B032591088900C9180F231540AD00D7
:10342000AB408E6802931E400396A0260023F6054B
:10343000B04213D0234B9C46012360450ED0224B53
:103440009C460223604509D0204B9C4603236045DF
:1034500004D01F4BC3185E1EB3410533AB40039D20
:10346000AB4210D11B4B1D68A5431D605D68A54391
:103470005D60DD68A543DD609D68A5439D608B6848
:10348000029CA3438B60032451008C4007210F262C
:10349000114089008E400368019923430360D308DB
:1034A0009B00C3181D6AB5431D62C368A343C36074
:1034B00043688B4343608368A343836001329BE787
:1034C000000001400004005000080050000C0050B3
:1034D00000E4FFAF0004014000690840431E98412A
:1034E000C0B27047002A01D0816170478162FCE759
:1034F00070470000044B10B55A69104202D0586161
:10350000FFF7F6FF10BDC0460004014003689A694A
:10351000920701D500229A6201229969114202D1D3
:1035200099690A439A61704730B5039C0068234348
:10353000120489051A43890D054B45680A43640D39
:10354000234352009D4352082A43426030BDC04687
:10355000FF63FF03F7B5150002680E0091691023A1
:103560000F0004001F40002019420DD00700D36156
:103570000190236820219A690A425FD1002F31D03F
:1035800004270120019B1F43802225685200AB695C
:10359000134202D00120EA6107438022D200134285
:1035A00003D0082101200F43EA61802292001342D8
:1035B00049D00223EA611F432000FFF7A7FF6B6891
:1035C000224A012013406B60636C20223B436364FA
:1035D000230041331A70220000234232403413701A
:1035E000237032E0721CC5D0FFF78AFC401BB0424A
:1035F00001D8002EBDD122002368423258681178CC
:103600009A69C9B212040BD58022D201104207D1A7
:10361000202905D059680A435A60FFF771FC05005C
:10362000202223689B691342A3D1FFF769FC401B4A
:103630001928F5D92023012701939AE7002F9FD15C
:103640002022DA619CE70028B6D1FEBD00E800FE2A
:10365000F8B504000D001600022723689B693B4261
:1036600001D0002021E0320029002000FFF772FF86
:10367000002819D16B1CF0D0FFF742FC801BA84238
:1036800001D8002DE9D12368996902230A001A4064
:103690001942E2D12021636C0B4363642300403460
:1036A000413319705A7022700120F8BDF8B504003A
:1036B0000D0017001E00226893692B405B1B5942C6
:1036C0004B41BB4201D000201FE0731CF4D0FFF738
:1036D00017FC069BC01AB04201D8002EEBD123681C
:1036E0009B692B405B1B5A425341BB42E3D12022D2
:1036F000636C012013436364230041331A7022007A
:1037000000234232403413702370F8BDF8B5040032
:103710000E001700202523689B692B4201D0002052
:103720001DE03A0031002000FFF714FF002815D1FA
:10373000FFF7E6FBC01BB04201D8002EEBD1236897
:103740009B691A002A402B42E5D1636C2B436364CA
:103750002300403441331D705A7022700120F8BD9F
:1037600070B504000120002C3FD0250041352B7896
:10377000DAB2002B05D12300403320001A70FFF786
:1037800071FA242301212B702368E0681A68A66867
:103790008A431A601A4962680A401A619A6819498C
:1037A0000A409A60012821D18022120232439A6095
:1037B0005868154A02435A60DA6800200A40DA6005
:1037C000616922690A43A16909020A43DA60216A30
:1037D000E2690A431A60012219680A431A60202329
:1037E00060642B7020634234207070BD842212020A
:1037F00032439A600228DBD1802212015A60D7E757
:10380000FFFFFFF0FF7FFFFF00800002F0B5070021
:1038100087B003930CAB029204CB41371B88049210
:1038200005933B7804000E000220202B08D1002ACB
:1038300002D0059B002B05D180239B0063640120EF
:1038400007B0F0BD230040331A780220012AF7D0D8
:1038500001221A70FFF754FB802105000090192304
:10386000012220000902FFF721FF0028E7D12123D0
:103870003B7027001F3342373B70049B60646362D8
:10388000059B606363856B461A7B4B4B310000934D
:10389000802320005B04FFF747FE2A0020000E99DA
:1038A000FFF7D6FE002829D1039A2368012A16D1F2
:1038B0006A46127A9A620022802120000E9B0095AF
:1038C000FFF7F4FE002819D1638DFF2B1AD880234F
:1038D000628D9B0492B22285D2B2009017E0029AC8
:1038E0002000120A9A620E992A00FFF7B1FE002802
:1038F00004D16B4622681B7A9362DCE700234034D4
:1039000023709CE7FF22802322855B040090310016
:103910002000FFF709FE2A0020000E99FFF798FE0D
:10392000002800D08BE7636A22681978013391621E
:103930006362638D228D013B9BB26385013A638D87
:1039400092B22285002B16D0002A14D180212000AB
:103950000E9B0095FFF7AAFE002800D06FE7638D4D
:10396000FF2B21D9FF22802322855B0400903100A8
:103970002000FFF7D9FD638D002BCCD12A00200059
:103980000E99FFF7C3FE002800D058E720212368D6
:103990000A4DD9615A682A405A60230040344133A5
:1039A0001970387020704BE78023628D9B0492B2AF
:1039B0002285D2B20090DAE70020008000E800FE05
:1039C000F0B5060087B003930CAB029204CB4136EE
:1039D0001B8804920593337804000F000220202BEB
:1039E00008D1002A02D0059B002B05D180239B0023
:1039F0006364012007B0F0BD230040331A78022031
:103A0000012AF7D001221A70FFF77AFA80211923D0
:103A100000900500012220000902FFF747FE031E67
:103A2000E7D12222327026001E3242363270049ACA
:103A300060646262059A4E4962856A466063127BE1
:103A4000200000913900FFF76FFD2A0020000E9939
:103A5000FFF7FEFD00282AD1039A2368012A17D117
:103A60006A46127A9A620022402120000E9B00953D
:103A7000FFF71CFE00281AD1628D3E4BFF2A1AD890
:103A8000628D92B2228500938023D2B29B0417E00C
:103A9000029A2000120A9A620E992A00FFF7D8FDB6
:103AA000002804D16B4622681B7A9362DBE700236F
:103AB000403423709DE7FF222285009380235B041E
:103AC00039002000FFF730FD0022042120000E9B6A
:103AD0000095FFF7EBFD002800D08AE723685A6ABB
:103AE000636A1A70636A228D01336362638D013ADF
:103AF000013B9BB26385638D92B22285002B16D069
:103B0000002A14D1802120000E9B0095FFF7CEFDE6
:103B1000002800D06DE7638DFF2B21D9FF22802381
:103B200022855B04009039002000FFF7FDFC638DC7
:103B3000002BC9D12A0020000E99FFF7E7FD0028CD
:103B400000D056E7202123680B4DD9615A682A40DE
:103B50005A6023004034413319703070207049E7B7
:103B60008023628D9B0492B22285D2B20090DAE764
:103B7000002000800024008000E800FEF0B5040072
:103B80004134227803000F000220D6B2202A18D137
:103B90001D0040352A78012A13D0242222701B6888
:103BA000233A1968074891431960196801400020B9
:103BB000196019683943196019680A431A60267038
:103BC0002870F0BDFFEFFFFF0200F0B5413214781E
:103BD0000300E5B20220202C17D11C0040342678C7
:103BE000012E12D0223010701B6823381E68074F38
:103BF00086431E601E6809023E4031431960196801
:103C000008431860002015702070F0BDFFF0FFFF22
:103C100070B504000120002C16D02368124A072634
:103C20001A60124A1A6062685A60A2689A60FFF7C6
:103C300067F905002368DA68324206D11969E2683B
:103C400091420DD01A61002070BDFFF759F9401B59
:103C50002A28EFD92368DB683342EBD00320F3E74F
:103C6000034A1A60EFE7C046CCCC0000555500006F
:103C7000AAAA00000368024A00201A607047C046E2
:103C8000AAAA00008023034A5B0011680B4313605B
:103C90007047C04600700040024A034913680B4059
:103CA0001360704700700040FFFEFFFF194BF0B536
:103CB0001E680500802034000127174A8000126A20
:103CC00004403A40064205D0002A03D01868134E3B
:103CD0003040186003261868B04328430425186054
:103CE0000F4806693543056101290ED130BF04250F
:103CF0000169A9430161002C06D0002A04D080226A
:103D0000196892000A431A60F0BD40BF20BF20BF6F
:103D1000EDE7C0460070004000000140FFFDFFFFDE
:103D200000ED00E08023034ADB0011680B431360C1
:103D30007047C046007000408023034A9B00116812
:103D40000B4313607047C046007000400C221E4BAE
:103D500070B5DC682240082A34D00C2A0CD0042A22
:103D600028D118681023184043425841174B40424D
:103D70001840174BC01870BDA2021648120F805C85
:103D800080222402D968A40F52020134114209D0C2
:103D9000114A00230021FCF74DFB22000023FCF711
:103DA00029FBE8E71A6810231A4201D0084AF0E715
:103DB0000A4AEEE780205B6800021B045B0F0133B8
:103DC0009840D8E70448D6E700100240001BB7002F
:103DD00000093D00BA55000800127A000024F400E2
:103DE000F0B5050085B0002855D00C23C04C026802
:103DF000E668E7681E4080235B0219001F40D20777
:103E00003DD42B689B0700D586E02B68DB0628D5C0
:103E1000002E00D0DFE023689B0502D5AB69002BA4
:103E200039D080276268B3492B6A0A401A435B0B7A
:103E300001333F029F4062606168EA690902090A32
:103E400012060A436260E168AB480B061B0FC35CB5
:103E5000AA4ADF40AA4B17601868FFF70DF8002840
:103E600030D12B681B0700D5ECE02B685B0700D531
:103E70000EE16B6A002B00D093E1002022E0082EB7
:103E800003D00C2E09D1002F07D023689B03B8D58F
:103E90006B68002BB5D1012014E06A688A4213D107
:103EA000226813432360FFF72BF8009080222368D9
:103EB00092021342A5D1FFF723F8009BC01A642891
:103EC000F4D9032005B0F0BDA021C9028A4205D172
:103ED00080222168D2020A432260E1E721688948F2
:103EE0000140216021680B400393039B86492368AE
:103EF0000B402360002AD6D1FFF702F80090802201
:103F000023689202134200D17BE7FEF7F9FF009B82
:103F1000C01A6428F3D9D4E72022EB68134203D0F7
:103F20002168934311432160042E03D00C2E24D129
:103F3000002F22D12268520701D5002BABD0616837
:103F40002A697248120201400A430921626022680C
:103F50008A4313432360FFF7F9FEE368664A1B06B2
:103F60001B0FD35C6549D840654B08601868FEF7A5
:103F700083FF002800D148E7A4E7002B19D00921CE
:103F800022688A4313432360FEF7BAFF0700042226
:103F90002368134207D062682B695C491B020A4000
:103FA0001343636031E7FEF7ABFFC01B0228EED975
:103FB00087E70122236893432360FEF7A1FF0700F0
:103FC00004222368134200D11FE7FEF799FFC01BAC
:103FD0000228F5D975E7AB69002B20D08023226831
:103FE0005B0013432360FEF78BFF070080222368EA
:103FF000920013420DD063683E4A13402A6A13436D
:1040000063606268EB6912021B06120A1343636065
:1040100027E7FEF775FFC01B0228E7D951E72368A1
:104020003B4A13402360FEF76BFF070080222368A2
:104030009200134200D114E7FEF762FFC01B022872
:10404000F4D93EE76A690123002A10D0226D134398
:104050002365FEF755FF07000222236D134200D0AF
:1040600003E7FEF74DFFC01B0228F5D929E7226DB3
:104070009A432265FEF744FF07000222236D134294
:1040800000D1F2E6FEF73CFFC01B0228F5D918E785
:1040900080230021A26B5B0500911A4204D1A26B20
:1040A0001343A3630123009380221A4F52003B68FD
:1040B000134208D08022AB68520093422CD1226D6B
:1040C000134323654DE080223B68520013433B605D
:1040D000FEF716FF019080223B6852001342E9D19F
:1040E000FEF70EFF019BC01A6428F4D9E9E6C0462A
:1040F00000100240FF1FFFFFCB550008000000200A
:1041000008000020FFFFFEFFFFFFFBFFFFE0FFFFB7
:10411000FFFEFFFF00700040002B16D1236D514AB7
:1041200013402365236D504A13402365FEF7E8FED4
:1041300007008022236D920013421AD0FEF7E0FEA2
:104140004A4BC01B9842F4D9BBE6A021C9008B4260
:1041500018D18023216DDB000B432365236D1A43A7
:104160002265FEF7CDFE07008022236D92001342E8
:1041700010D0009B012B00D07BE6A36B3C4A134080
:10418000A36376E6236D374A13402365236D364AD1
:10419000134096E7FEF7B4FE344BC01B9842E3D9B8
:1041A0008FE60C2E43D0334A022B2ED12368802772
:1041B00013402360FEF7A4FE0600BF0423683B42C1
:1041C0001DD1E96AAB6AE2680B432B4980260A409D
:1041D00013432A6BB6041343E360802322685B0415
:1041E00013432360FEF78CFE05002368334200D0A2
:1041F00043E6FEF785FE401B0228F6D961E6FEF78E
:104200007FFE801B0228D9D95BE6236880261340F5
:104210002360FEF775FE0500B6042368334200D123
:104220002BE6FEF76DFE401B0228F6D949E6012B6E
:1042300000D130E68023E068AA6A5B020340934223
:1042400000D028E6F023EA6A9B030340934200D0A3
:1042500021E6C0231B0418402B6BC01A431E984153
:10426000C0B22FE6FFFEFFFFFFFBFFFF8813000039
:10427000FFFFFFEFFFFFFFFEFFFF02FFF7B5041E8A
:10428000019101D10120FEBD01255B4E019A3368E9
:104290002B40934231D32268930743D4D20749D4A9
:1042A00001253368019A2B40934209D93368AB4307
:1042B0003360FEF725FE070033682B4200D08CE008
:1042C00022684E4D530700D58FE0120706D5EA68E5
:1042D00023694B49DB000A401343EB60FFF736FDCF
:1042E000EB68484A1B061B0FD35C4749D840474B35
:1042F00008601868FEF7C0FDC5E73368019AAB4354
:1043000013433360FEF7FCFD07003368019A2B402E
:104310009342C0D0FEF7F4FD3D4BC01B9842F4D948
:104320000320B0E7F0203549CB688343A0680343FE
:10433000CB60B3E7314D62682B68022A18D19B032A
:10434000A0D50321EB688B431343EB60FEF7D8FD48
:1043500063680700022B18D10C22EB681340082B6E
:104360009ED0FEF7CDFD2A4BC01B9842F4D9D7E76B
:10437000032A02D19B01E4D484E7012A02D15B071E
:10438000DFD47FE79B05DCD47CE7032B0BD10C2229
:10439000EB681340934283D0FEF7B2FD1C4BC01B69
:1043A0009842F4D9BCE7012B11D00C22EB681342E0
:1043B00000D175E7FEF7A4FD154BC01B9842F4D958
:1043C000AEE7FEF79DFD124BC01B9842A8D80C2209
:1043D000EB681340042BF4D162E7FEF791FD0C4B20
:1043E000C01B984200D867E79AE7EB6809490B4081
:1043F000E1680B43EB6068E70020024000100240D8
:10440000FFC7FFFFCB550008000000200800002078
:1044100088130000FFF8FFFF044B054ADB680549DD
:104420005B055B0FCB5C1068D84070470010024002
:1044300000000020C35500080368F7B505009B067F
:104440002BD580230021514C5B05A26B00911A42B1
:1044500004D1A26B1343A3630123009380274C4E26
:104460007F0033683B4238D0C020C02221686B688F
:10447000800359409202014240D1206D2968060014
:104480001640104243D12B689B0654D4009B012B4D
:1044900003D1A36B3F4A1340A3632B689A0706D549
:1044A0000C203A49CA6C8243A8680243CA645A077E
:1044B00006D536493848CA6C0240E8680243CA64E7
:1044C0001A0706D531493548CA6C024028690243AB
:1044D000CA641B0652D400200FE033683B433360AC
:1044E000FEF70EFD019033683B42BDD1FEF708FD9B
:1044F000019BC01A6428F6D90320FEBD19001140A3
:104500009142BAD1216801208903B6D5F5E713405D
:10451000B342B8D08906B9D58021236D206D090337
:1045200001432165216D1E4A1E481A400140216544
:104530002265DB0512D46968C0230A009B021A4079
:104540009A4207D1236818480340C02080030140E5
:104550000B432360236D1A43226597E7FEF7D0FCD7
:1045600080270600BF00236D3B4200D08BE7FEF79B
:10457000C7FC0E4B801B9842F5D9BDE7034A0C4996
:10458000D36C0B4069690B43D364A4E7001002406D
:1045900000700040FFFFFFEFFFF3FFFFFFCFFFFFC3
:1045A000FFFFFCFFFFFFF7FFFFFFCFFF88130000B7
:1045B000FFFFF3FFF8B50B4A03680400DA60FEF76B
:1045C0009FFCFA2705002026BF002368DB683342E2
:1045D00001D00020F8BDFEF793FC401BB842F4D98F
:1045E0000320F7E75F7F0100F7B54026036804006A
:1045F000DA68002532420ED18022D968FA270A43B0
:10460000DA60FEF77DFCBF0001902368DB6833426F
:1046100001D1012D01D12800FEBDFEF771FC019BE7
:10462000C01AB842F1D90422A31C0125DA77ECE7BD
:104630008021036810B5DA6804008A43DA609B6859
:104640009B0601D5002010BDFFF7B4FF0028F9D06C
:10465000042302340120E377F5E7000070B504007D
:104660000120002C12D0A51CEB7FDAB2002B04D164
:104670002318DA772000FEF723FB0223EB77236869
:10468000DA68D20603D501230020EB7770BDCA2279
:104690005A62773A20005A62FFF7A6FF002823D11A
:1046A000236814499A6820690A409A606268996888
:1046B0000243A06902430A439A60E26820001A613B
:1046C000A268196912040A431A61FFF7B1FF0028B2
:1046D0000AD1032122686669D36C8B43D364E369F2
:1046E000D16C33430B43D364FF2223685A62002802
:1046F000C9D0CBE7BFFF8FFF036889005033C918CB
:104700000A607047036889005033C9180868704709
:10471000802210B50368D205904202D00D4CA04211
:104720000CD17024A3434C682343904202D0094A21
:10473000904203D1084A1340CA681343802293432E
:104740000A69134303608B68C3620B6883620123A9
:10475000436110BD00080140FFFCFFFF70B504007D
:104760000120002C1DD0250039352B78DAB2002B22
:1047700005D12300383320001A70FEF7C1FA022356
:104780002B702068211DFFF7C3FF220001230020AA
:104790003E3213703D34043A13705370937023709B
:1047A0002B7070BD01000300012010B539310C7869
:1047B000E2B2844213D10018087080211B68C90539
:1047C0008B4202D007498B420AD107219A680A40DE
:1047D000062A03D0012219680A431A60002010BD7E
:1047E0001968F9E700080140F0B5040002223834E6
:1047F000257803001000012D1CD01D00013839352B
:1048000020702A701B68464E9A6832409A600A6887
:10481000602A59D02ED8402A00D16CE013D8202A23
:104820000BD008D8102116008E4306D001232B7020
:1048300000232370F0BD302AF8D17020996881439D
:104840000A4307212DE0502AF0D14E68CA68196A40
:104850001F6A120187431F62F0279869B843024319
:104860000A209A6170228143314319629968914309
:10487000193A16E080267601B24214D08026B6019D
:10488000B24212D0702AD1D19868264A4E681040A0
:104890008A68C968324309020A4302439A60772250
:1048A00099680A439A600020C0E798681D4A4E68DC
:1048B00010408A68C968324309020A4302439A6079
:1048C00080229968D201ECE71026186A4A68B04342
:1048D000C96818629E69144F09033E403143A026FF
:1048E000186A1201B043024399611A6270229968F2
:1048F0009143093AD5E74E68CA68196A1F6A1201DE
:1049000087431F62F0279869B84302430A209A61DF
:10491000702281433143196299689143293AC0E773
:104920008800FFFFFF00FFFFFF0FFFFF70B50400CF
:1049300002223834257803001000012D1AD01D0002
:10494000702639352A701B6858689A68B0430E681B
:10495000304358608020C005834202D0064883421D
:1049600004D18020496882430A439A6001230020D1
:104970002B70207070BDC0460008014030B5EFF3C9
:104980001084012282F310880168124D0B682B40BD
:104990000B6084F31088EFF3108482F310880168B1
:1049A0008B6893438B6084F31088036E93420AD123
:1049B000EFF3108183F31088102402681368A34377
:1049C000136081F310882022031DDA670023036639
:1049D000836630BDDFFEFFFF70B504000120002CB0
:1049E00017D024230025E36723681A6882431A60DE
:1049F00020001D605D609D60FEF7C6F92300280061
:104A00000833DD67231DE567DD6725666566783455
:104A1000257070BD70477047806A0023020010B592
:104A20005A321380083A1380FEF7AEF810BD00002A
:104A3000F7B504000068AB4BC16906688568194288
:104A40000BD12023194200D180E01E4200D17DE02D
:104A5000A36E2000002B6FD16FE001232F00A24A2C
:104A60001F4032403A4300D170E02500083519421A
:104A700005D0F20503D50362EA6F1343EB67022307
:104A8000194206D0002F04D00362EA6FDB181343EB
:104A9000EB670423194206D0002F04D00362EA6FAB
:104AA000023B1343EB670823194207D02022324010
:104AB0003A4303D00362EA6F1343EB6780231B0181
:104AC000194206D0720104D503622023EA6F134312
:104AD000EB67EB6F002B30D02023194206D01E422B
:104AE00004D0A36E002B01D0200098472268EB6F02
:104AF0004027966828223E40134020001E4321D0C4
:104B0000FFF73CFF23689B683B4217D0EFF310810F
:104B1000012383F3108822689368BB43936081F379
:104B20001088606F002809D0704B8363FEF782FB0A
:104B3000002802D0606F836B9847F7BD2000FEF716
:104B400023F8FAE7FEF720F8EE67F6E7236E012B6D
:104B500000D09AE01022114200D196E0164200D116
:104B600093E00262816840260F003740314253D003
:104B7000616F0868416889B20029DED02500583588
:104B80002D888D42D9D925005A35298001682020E9
:104B90000D0005400195014230D1EFF3108783F3FA
:104BA00010882568524A29681140296087F31088C7
:104BB000EFF3108783F310882568A9689943A960EB
:104BC00087F31088EFF3108C83F31088210080C9DD
:104BD000BD68B543BD608CF31088019AC867226632
:104BE000EFF3108083F31088102221680B68934341
:104BF0000B6080F31088606FFEF7FCFA022322003E
:104C00006366230058325A331B881188C91A89B247
:104C10002000FDF7F5FC90E7250021005A35288893
:104C20002D885831098880B2002D00D185E7091AF6
:104C300089B2002900D180E7EFF3108683F3108852
:104C400025682C4A28681040286086F31088EFF306
:104C5000108C83F31088200040C8B5689D43B56070
:104C60008CF310882025C5672766A766EFF31085AB
:104C700083F31088206832320368FF329343036065
:104C800085F3108802236366C2E780235B03194221
:104C900006D06D0204D50362200000F0F7FB4CE75C
:104CA0008023194203D01E4201D0E36ED1E6402298
:104CB000114200D141E7164200D13EE7EFF31080E8
:104CC000012383F3108821680B6893430B6080F302
:104CD00010882023E36700232000E366FFF79AFE95
:104CE0002BE7C0460F08000020010004194A000805
:104CF000FFFEFFFFDFFEFFFFF8B50300011DCC6FD5
:104D00005C331A880368222C5AD15B6A446D1340C5
:104D100002002370436D5A32013343651388013B0F
:104D20009BB2138013889CB2002B45D1EFF3108601
:104D3000013383F310880568244F2A683A402A60BB
:104D400086F31088EFF3108683F310880568AA684D
:104D50009A43AA6086F310882022CA6702681C4919
:104D6000846644668A420DD0526812020AD5EFF377
:104D7000108183F310880268164C13682340136077
:104D800081F31088036E012B17D100220266EFF326
:104D9000108483F3108801680F330A689A430A600D
:104DA00084F310880268D169194200D013620300AD
:104DB00058331988FDF724FCF8BDFFF72CFEFBE7FC
:104DC000082299690A439A61F6E7C046DFFEFFFFB1
:104DD00000480040FFFFFFFBF8B50300021DD16F44
:104DE0005C331C880368222959D1596A436D2140DC
:104DF00019800100023343655A310B88013B9BB295
:104E00000B800B889CB2002B45D1EFF31086013349
:104E100083F310880568244F29683940296086F398
:104E20001088EFF3108683F310880568A96899430A
:104E3000A96086F310882021D16702681B49846627
:104E400044668A420DD0526812020AD5EFF31081EF
:104E500083F310880268164C13682340136081F3B3
:104E60001088036E012B17D100220266EFF3108425
:104E700083F3108801680F330A689A430A6084F349
:104E800010880268D169194200D0136203005833B8
:104E90001988FDF7B5FBF8BDFFF7BDFDFBE708225C
:104EA00099690A439A61F6E7DFFEFFFF0048004078
:104EB000FFFFFFFBF8B504002569A16802682943DC
:104EC0006569C36929431068604D1943284001434F
:104ED000116051685E485F4D0140E06801435160D8
:104EE000A069AA4201D0216A084391685A4E314014
:104EF0000143916059498A4216D10C205849CA6C25
:104F00000240082A00D18AE007D8002A00D17DE0BB
:104F1000042A00D173E0012047E00C2AFBD1802055
:104F20000002834249D088E0AA42F4D1C021802007
:104F30004B4A0901D36C00010B4083420ED008D8C4
:104F4000002B2DD08022D2009342E4D1FEF7FEFE4A
:104F500028E08B42DFD18020000206E01068414B40
:104F6000C006C0171840404BC01803236268534363
:104F70008342D0D813038342CDD30021070E06020B
:104F8000500836184F410B0030003900FBF732FA59
:104F9000364BC218364B9A42BDD82368D86003E01E
:104FA000FFF73AFA0028E0D100200023A366E36669
:104FB000F8BDFFF731FA031EF6D061685B004808C0
:104FC0001818FBF7A1F802002A4B103A9A42A2D80F
:104FD0000F23020000079A4393B2400F2268034355
:104FE000D360E1E7FEF7B2FEE5E70B6813405A1E17
:104FF00093411C4A5B4213401B4A9B18DDE7802209
:1050000012029342EED0FEF7A1FE05E080221202CA
:105010009342CED0FFF700FA0028C5D00DE08020E3
:10502000102200028342E0D008681040431E9841DD
:105030000C4B404218400C4BC01861684B081818C4
:10504000FBF762F802000B4B103AA4E7F369FFEF9D
:10505000FFCFFFFF00480040FFF4FFFF0044004087
:105060000010024000E548FF0024F40000FDFFFFAF
:10507000FFFC0F00EFFF0000436A30B5DA0706D5EA
:105080000168284C4A682240846A22434A609A0791
:1050900006D50168244C4A682240C46A22434A600B
:1050A0005A0706D50168214C4A682240046B224306
:1050B0004A601A0706D501681D4C4A682240446BB5
:1050C00022434A60DA0606D501681A4C8A682240F3
:1050D000846B22438A609A0606D50168164C8A685A
:1050E0002240C46B22438A605A0610D50168134DD2
:1050F0004A68046C2A4022434A6080225203944248
:1051000005D14A680E4C2240446C22434A601B067B
:1051100006D502680B4953680B40816C0B43536002
:1051200030BDC046FFFFFDFFFFFFFEFFFFFFFBFF9F
:10513000FF7FFFFFFFEFFFFFFFDFFFFFFFFFEFFF3F
:10514000FFFF9FFFFFFFF7FFF7B504000D001700FB
:1051500000932268D3692B405B1B59424B41BB42F1
:1051600001D0002020E0089B0133F3D0FDF7C8FEFA
:10517000009BC01A089B984227D8002B25D0236893
:105180001A685207E5D5DA69082611003140019105
:1051900032420AD020001E62FFF7F0FBA319DE673F
:1051A0000023012078342370FEBD8022D9691201CA
:1051B0001142CED01A622000FFF7E0FB230020222C
:1051C0000833DA67019B783423700320ECE7F0B5ED
:1051D00087B00593C36F04000D0017000220202B39
:1051E00038D10138002935D0002A33D08023A26875
:1051F0005B019A4204D12369002B01D1014229D1DC
:10520000230000260833DE672123E367FDF778FEDD
:10521000230050331F80023303931F808023A26832
:1052200004905B019A4204D12369B34201D12E005C
:105230001D00230052331B889AB2002B0CD1059B12
:10524000402100932000049BFFF77EFF2023E367AB
:1052500000280DD107B0F0BD059B002200938021EE
:105260002000049BFFF770FF002803D02023E36792
:105270000320EFE72268002D0BD133880236DB05CF
:10528000DB0D9362039B039A1B88013B9BB2138047
:10529000CFE72B7801359362F4E70000030073B584
:1052A000002504000833DD67FDF72AFE23680600A9
:1052B0001B681B071DD58021264B2A0000938903FC
:1052C00003002000FFF740FFA84212D0EFF3108147
:1052D000012383F3108880202268136883431360BE
:1052E00081F310882023E3670320002378342370A0
:1052F00076BD250008CD1B685B0723D58021154BA3
:105300000022009320003300C903FFF71DFF00288F
:1053100018D0EFF31080012282F3108821680E4E1E
:105320000B6833400B6080F31088EFF3108082F33A
:10533000108821688B6893438B6080F3108820234A
:10534000EB67D1E720230020E367EB672066606608
:10535000CBE7C046FFFFFF01DFFEFFFF10B5041ED5
:1053600001D1012010BDC36F002B04D1020078329F
:105370001370FDF7D3FC242301212268E36713682F
:1053800020008B431360FFF795FD0128E9D0636A85
:10539000002B02D02000FFF76FFE236807495A68F0
:1053A00020000A402A215A609A688A439A600122A2
:1053B00019680A431A60FFF771FFD3E7FFB7FFFFD1
:1053C0000300583310B541651A805A8080210023AC
:1053D0008268836649018A4238D103695A1E934123
:1053E000FF225B429343264A9B1802005C321380E3
:1053F000030000220833DA67031D2232DA67EFF375
:105400001081012383F3108802689468234393601A
:1054100081F310888021846802691A4B49018C420B
:1054200002D1002A00D1184B83660123002A1FD025
:10543000EFF3108183F31088026820331068FF3384
:105440000343136081F31088002010BD002A05D1AA
:1054500002697F23002AC8D18033C6E7802149052D
:105460008A42C2D102693F23002ABED14033BCE741
:10547000EFF3108183F31088026820231068DFE7C0
:10548000FF010000F94C0008D94D00087047031DCA
:10549000DB6F70B504000220202B02D1002901D15E
:1054A000012070BD002AFBD08020A56801234001A7
:1054B000854204D12069002801D11942F0D1236628
:1054C000002320006366FFF77BFF0028E9D1226EEE
:1054D000012AE5D1102321680B62EFF3108182F3DA
:1054E0001088226814682343136081F31088D8E77A
:1054F00003008218934200D1704719700133F9E715
:1055000070B500260C4C0D4D641BA410A64209D1A9
:10551000002600F023F80A4C0A4D641BA410A64292
:1055200005D170BDB300EB5898470136EEE7B300E4
:10553000EB5898470136F2E7E4550008E4550008B7
:10554000E8550008E4550008002310B59A4200D140
:1055500010BDCC5CC4540133F8E70000F8B5C04678
:10556000F8BC08BC9E467047F8B5C046F8BC08BCFD
:045570009E4670479C
:105574000000000000000000000000000000000027
:105584000000000000000000000000000000000017
:105594000000000000000000000000000000000007
:1055A40000000000000000000000000000000000F7
:1055B400000000000000030406080C10182030004E
:1055C40000000001020304000000000000000001CC
:0855D4000203040607080900A8
:0855DC00B4AEFF7F01000000E6
:0455E400E9000008D2
:0455E800C1000008F6
:0C55EC000000200001000000040000008E
:0400000508002DF5CD
:00000001FF
